:100000000C945C000C9479000C9479000C947900A9
:100010000C9479000C9479000C945A0B0C94790090
:100020000C9479000C9479000C9479000C9479006C
:100030000C9479000C9479000C9479000C9479005C
:100040000C94FF000C9479000C9479000C947900C6
:100050000C9479000C9479000C9479000C9479003C
:100060000C9479000C947900000000002400270013
:100070002A0000000000250028002B0004040404CE
:100080000404040402020202020203030303030342
:10009000010204081020408001020408102001021F
:1000A00004081020000000080002010000030407FB
:1000B000000000000000000011241FBECFEFD8E0B8
:1000C000DEBFCDBF11E0A0E0B1E0E8EAFBE102C095
:1000D00005900D92AA31B107D9F721E0AAE1B1E06C
:1000E00001C01D92AC3AB207E1F70E945D0B0C947F
:1000F000D20D0C940000E2EBF0E02491EEE9F0E088
:100100009491EAE8F0E0E491EE23C9F0222339F07B
:10011000233001F1A8F4213019F1223029F1F0E067
:10012000EE0FFF1FEE58FF4FA591B4912FB7F89433
:10013000EC91811126C090959E239C932FBF08952A
:100140002730A9F02830C9F0243049F720918000E9
:100150002F7D03C0209180002F7720938000DFCF78
:1001600024B52F7724BDDBCF24B52F7DFBCF209185
:10017000B0002F772093B000D2CF2091B0002F7D18
:10018000F9CF9E2BDACFEEE9F0E02491EAE8F0E037
:100190008491882399F090E0880F991FFC01E85919
:1001A000FF4FA591B491FC01EE58FF4F85919491BA
:1001B0008FB7F894EC91E22BEC938FBF81E00E9413
:1001C0007B000E947C0680E00E947B000E947C06EF
:1001D000F5CF0F931F9310E000E022E040E850E0DD
:1001E00067E071E083EC90E00E945B09009721F0EA
:1001F0001F910F910C948A061F910F9108951F92E1
:100200000F920FB60F9211242F933F938F939F93CA
:10021000AF93BF938091A4019091A501A091A601F5
:10022000B091A7013091A30123E0230F2D3758F59A
:100230000196A11DB11D2093A3018093A401909369
:10024000A501A093A601B093A70180919F01909171
:10025000A001A091A101B091A2010196A11DB11D23
:1002600080939F019093A001A093A101B093A2015C
:10027000BF91AF919F918F913F912F910F900FBEA2
:100280000F901F90189526E8230F0296A11DB11D0F
:10029000D2CF0FB6F8940F92FC01928D0F900FBE43
:1002A00081E0911180E00895E0915101F0915201B7
:1002B0008081811107C08FEF9FEF90939E01809303
:1002C0009D010895E0915101F09152010580F68160
:1002D000E02D80819181F1CFCF93DF93FC01A08548
:1002E000B1858281938124813581EC013D832C830A
:1002F000C481D5819B838A8311968D919C9112979D
:100300008E179F0721F41296DC93CE9311971186D6
:1003100010868C9181508C93DF91CF9108950F932B
:100320001F93CF93DF938C01FB0180819181D801D2
:1003300013968F3F9807F1F4E801AF81B8851296C4
:100340008D919C91139793838283EC01FD83EC83C1
:10035000B583A4831396FC93EE93129711870087BD
:10036000F80180818F5F8083DF91CF911F910F9182
:100370000895D90112962D913C911397E901488176
:10038000598184179507A8F7DACFFC010396928369
:1003900081832FEF3FEF3483238396838583908778
:1003A000878310820895FC0173836283918780871D
:1003B0004617570790F0421B530B848595854817C5
:1003C0005907C8F4BF016E5F7F4F80918001909103
:1003D00081010E948F0180E008954217530718F4AD
:1003E0006217730740F4BF016E5F7F4F80918201F7
:1003F00090918301EECF81E00895EF92FF920F93E9
:100400001F93CF93DF93EC018B017A016C857D857F
:10041000600F711F9801A701CE010E94D3018111C5
:1004200007C0DF91CF911F910F91FF90EF9008953A
:100430008C859D85080F191FE889F989CE010995DA
:10044000E5CFEF92FF920F931F93CF93DF938C0131
:100450007B01E0918201F09183010580F681E02D1E
:10046000C681D781CE0102960E946C018A8982FFE3
:100470000FC0A701B801CE010E94FD01E889F989EA
:10048000CE01DF91CF911F910F91FF90EF900994D2
:100490008E7F8A8BF3CFE0918201F091830180817E
:1004A00081110DC080918001909181019093830111
:1004B00080938201F0938101E0938001089505808B
:1004C000F681E02D6FEF7FEF808191810E94210204
:1004D000E2CFBF92CF92DF92EF92FF920F931F93E2
:1004E000CF93DF93EC01B62EC0909A01D0909B0180
:1004F0000091510110915201E0904F01F090500194
:1005000080917A0190917B0102960E946C01CF3F0D
:10051000DC0709F042C0BB2009F43FC0E091440170
:10052000F0914501A0917A01B0917B011596FC9361
:10053000EE931497A0917A01B0917B01848195810B
:1005400017969C938E93169780917A0190917B01D8
:10055000A481B581029613969C938E9312978091F5
:100560007A0190917B01029695838483E0917A01D0
:10057000F0917B0183E491E093878287809143012E
:100580008F5F80934301DF91CF911F910F91FF9077
:10059000EF90DF90CF90BF900895CC0DDD1DE091DE
:1005A0007A01F0917B01D383C28360917A017091CB
:1005B0007B016E5F7F4FCC15DD0560F4C701DF91D5
:1005C000CF911F910F91FF90EF90DF90CF90BF9050
:1005D0000C948F01C8010E948F0180919D01909120
:1005E0009E01C817D90778F6D0939E01C0939D014C
:1005F000CACFCF93DF93DC011596ED91FC91068075
:10060000F781E02DA489B589868597852089318970
:10061000EC013D832C83C089D1899B838A83CF01E0
:100620000C9611962D913C9112972817390721F4B9
:100630001296DC93CE931197158A148A2C9121502F
:100640002C9320917C01211157C0A285B385848110
:10065000958126813781EC013D832C83C681D7812A
:100660009B838A83CF01029611962D913C9112971C
:100670002817390721F41296DC93CE93119713862D
:1006800012862C9121502C93C689209179012C1728
:1006900010F4C093790129E02C9FE0011124CB5A7A
:1006A000DE4F0980DA81C02DD583C4834C815D8102
:1006B00057834683AC81BD8113969C938E9312978A
:1006C0009D838C83A689A29FD0011124AB5ABE4F73
:1006D000B387A2878C918F5F8C93A0917A01B091A0
:1006E0007B01968956968C91891730F581E080932D
:1006F0007D01DF91CF910895A0913001B09131013A
:10070000B787A68714962D913C911597318B208B36
:100710001496CD91DC9115979B838A8315969C93B3
:100720008E9314978FE291E0958B848B80912F01AB
:100730008F5F80932F01D1CF80E0DBCFEF92FF92CC
:100740000F931F93CF93DF93EC010FB6F8940F92A2
:100750001E8D7C0181E1E80EF11C01E01116D4F040
:100760008FEF8E8F0F900FBE0FB6F8940F921D8DE6
:100770007E0188E0E80EF11C01E01116B4F08FEF65
:100780008D8F0F900FBEDF91CF911F910F91FF9032
:10079000EF9008958989882319F3C7010E94F9020F
:1007A000811100937D011150D9CF8885882339F3B9
:1007B000C7010E94F902811100937D011150DDCF24
:1007C0000FB6F8940F9280919A0190919B010F902F
:1007D0000FBE089580917C018F5F80937C01089506
:1007E0000F920FB6F8940F921F9211242F923F92FE
:1007F0004F925F926F927F928F929F92AF92BF9231
:10080000CF92DF92EF92FF920F931F932F933F931C
:100810004F935F936F937F938F939F93AF93BF9308
:10082000CF93DF93EF93FF93A0917A01B0917B0177
:100830000DB60D920EB60D9280917C01882321F0A9
:1008400081E080937D0161C010927D01A0917A01C9
:10085000B0917B01E0917A01F0917B012D913C9167
:100860008789908D82179307A8F080917A019091E3
:100870007B0180917A0190917B01259A2D9A2FEF2F
:1008800087EA91E6215080409040E1F700C00000E7
:100890001D9AF5CF2091790189E001C02150422FA6
:1008A00050E0849FF001859FF00D1124EB5AFE4F1C
:1008B0009081992399F3A181B28112966D917C91D7
:1008C00072836183289FC0011124885A9E4F681744
:1008D000790721F4858196819283818389E0849FC1
:1008E000F001859FF00D1124EB5AFE4F0180F2813B
:1008F000E02D8681978190937B0180937A012093EC
:10090000790180917A0190917B01A0917A01B09157
:100910007B01CD91CDBFDD91DEBFFF91EF91DF91E6
:10092000CF91BF91AF919F918F917F916F915F9187
:100930004F913F912F911F910F91FF90EF90DF907A
:10094000CF90BF90AF909F908F907F906F905F906F
:100950004F903F902F901F900F900FBE0F900895D3
:100960008F929F92BF92CF92DF92EF92FF920F935E
:100970001F93CF93DF930FB6F8940F9280917C0171
:10098000815080937C0180917C01882379F080E004
:100990000F900FBEDF91CF911F910F91FF90EF90BD
:1009A000DF90CF90BF909F908F90089580913901F4
:1009B000882369F3E0903401F0903501F0E0E0E045
:1009C00039E041E080912F0181115EC0EF2B11F0E1
:1009D0000E945401E0905301F0905401E114F1049D
:1009E00009F47DC189E0D82ECC24C3940FEF1FEF0A
:1009F00080917C01811161C1C0919A01D0919B01CC
:100A00004E018FEF881A980A90929B0180929A016A
:100A100081149104B9F48091510190915201209177
:100A20004F01309150013093520120935101909326
:100A3000500180934F0180914E018F5F80934E0152
:100A40000E94540180919D0190919E01B12C8816C5
:100A5000990608F026C1E0917A01F0917B01E689C0
:100A6000DE9EF0011124EB5AFE4F8081823010F09F
:100A7000BB24B39480917D01811103C0BB2009F494
:100A800025C1C0927D0122C1D7011696ED91FC913E
:100A9000A489B5896685778580899189EB019D83D5
:100AA0008C8380899189EC017B836A83BF01645FB9
:100AB0007F4F11960D911C9112970617170721F47D
:100AC00012969C938E931197158A148A8C9181505B
:100AD0008C93A285B3858481958166817781EC01B1
:100AE0007D836C8366817781EB019B838A83CF0151
:100AF000029611960D911C9112970817190721F46F
:100B000012967C936E931197138612862C91215026
:100B10002C93A689209179012A1710F4A0937901CA
:100B20003A9FD0011124AB5ABE4F11960D90BC9143
:100B3000A02DB583A48314966D917C91159777832E
:100B4000668314966D917C911597EB019B838A8344
:100B500015969C938E9314979689939FD001112498
:100B6000AB5ABE4FB387A2878C918F5F8C93A091B5
:100B70007A01B0917B0156968C91891708F022CFAB
:100B800040937D011FCFE0915101F091520105800A
:100B9000F681E02D0680F781E02D82819381881611
:100BA000990628F490939E0180939D0154CFC285AD
:100BB000D3858481958126813781DC0115963C930C
:100BC0002E93149726813781D90113969C938E9387
:100BD0001297CF01029649815A814817590711F49B
:100BE0003A83298313861286288121502883A48979
:100BF000B5891097F9F02685378540895189E90133
:100C00005D834C8340895189EA013B832A83119695
:100C10006D917C9112979F01245F3F4F621773077C
:100C200021F412965C934E931197158A148A2C9195
:100C300021502C93A689209179012A1710F4A093B2
:100C40007901DA9ED0011124AB5ABE4F11960D9056
:100C5000BC91A02DB583A48314962D913C9115973A
:100C60003783268314962D913C911597E9019B8338
:100C70008A8315969C938E93149796899D9DD00197
:100C80001124AB5ABE4FB387A2878C918F5F8C9390
:100C9000E0917A01F0917B018689891710F4BB24D9
:100CA000B394E0915101F0915201808181116BCF99
:100CB00010939E0100939D01CECE8091530190919F
:100CC000540101969093540180935301D1E0ED1AA1
:100CD000F10809F08DCE10925401109253018091C9
:100CE0007D01882309F453CE80917A0190917B0194
:100CF0000E94F00381E04CCE0E94EA0360E08EE3A4
:100D000090E00E9469020E94B004811102C00E941A
:100D1000F0030895CF93DF93EC010FB6F8940F9290
:100D2000809139018F5F8093390180917A01909190
:100D30007B01892B09F080C0D0937B01C0937A019D
:100D400080913901813081F585E591E00E94C501EE
:100D50008EE591E00E94C50187E691E00E94C50101
:100D600080E791E00E94C50185E291E00E94C50103
:100D70008CE191E00E94C5018FE291E00E94C501E3
:100D80008AE391E00E94C50183E491E00E94C501DD
:100D900085E291E090935201809351018CE191E0C2
:100DA0009093500180934F0180912E018F5F80932B
:100DB0002E01AE89809179018A1710F4A0937901F0
:100DC00029E02A9FD0011124AB5ABE4F11960D90F5
:100DD000BC91A02DBD83AC8314968D919C911597E9
:100DE0009F838E831496ED91FC911597CE01029608
:100DF0009383828315969C938E931497EE89E29F3A
:100E0000F0011124EB5AFE4FFB87EA8780818F5F48
:100E100080830F900FBE80919C01882351F0E09158
:100E20007A01F0917B0196898E89981710F40E94BF
:100E3000F003DF91CF91089580919C018111B4CF8F
:100E4000E0917A01F0917B0196898E89891708F4E7
:100E5000ABCFD0937B01C0937A01A6CF0F920FB690
:100E6000F8940F921F9211242F923F924F925F920B
:100E70006F927F928F929F92AF92BF92CF92DF92AA
:100E8000EF92FF920F931F932F933F934F935F9394
:100E90006F937F938F939F93AF93BF93CF93DF9382
:100EA000EF93FF93A0917A01B0917B010DB60D9263
:100EB0000EB60D9213BE80917C018111F9C0809114
:100EC0009A0190919B01019690939B0180939A01C6
:100ED000009781F5209151013091520140914F01CD
:100EE0005091500150935201409351013093500161
:100EF00020934F0120914E012F5F20934E01E091EE
:100F00005101F09152012081211107C02FEF3FEFD5
:100F100030939E0120939D010DC0E0915101F0910D
:100F200052010580F681E02D2081318130939E01B0
:100F300020939D0120919D0130919E01821793077E
:100F400010F420E0A1C020E039E0D32EE09151015F
:100F5000F09152013081311107C08FEF9FEF9093D4
:100F60009E0180939D0190C0E0915101F09152014A
:100F70000580F681E02D0680F781E02D42815381C6
:100F80008417950728F450939E0140939D017CC0DF
:100F9000A285B3854481558166817781EA017D838D
:100FA0006C8366817781EB015B834A83AF014E5F7F
:100FB0005F4F11960D911C9112970417150721F49C
:100FC00012967C936E931197138612863C91315042
:100FD0003C93A489B5891097F9F0668577850089D7
:100FE0001189EB011D830C8300891189E8017B8342
:100FF0006A831196ED90FC901297BF01645F7F4F5A
:10100000E616F70621F412961C930E931197158A93
:10101000148A3C9131503C93A689309179013A175A
:1010200010F4A0937901DA9ED0011124AB5ABE4F7F
:1010300011960D90BC91A02DB583A48314966D914B
:101040007C9115977783668314966D917C911597A3
:10105000EB015B834A8315965C934E931497468904
:101060004D9DD0011124AB5ABE4FB387A2873C914E
:101070003F5F3C93E0917A01F0917B013689341710
:1010800008F064CF21E062CFE0917A01F0917B011A
:10109000E689D9E0ED9FF0011124EB5AFE4F8081E3
:1010A000823008F021E080917D0181110EC00AC0DC
:1010B0008091530190915401019690935401809333
:1010C00053016CC0222309F469C080917C018823FC
:1010D00021F081E080937D0161C010927D01A0919B
:1010E0007A01B0917B01E0917A01F0917B012D9121
:1010F0003C918789908D82179307A8F080917A019F
:1011000090917B0180917A0190917B01259A2D9A93
:101110002FEF87EA91E6215080409040E1F700C030
:1011200000001D9AF5CF2091790189E001C021507E
:10113000422F50E0849FF001859FF00D1124EB5A5F
:10114000FE4F9081992399F3A181B28112966D91FE
:101150007C9172836183289FC0011124885A9E4F1D
:101160006817790721F4858196819283818389E0CC
:10117000849FF001859FF00D1124EB5AFE4F0180F2
:10118000F281E02D8681978190937B0180937A0193
:101190002093790180917A0190917B01A0917A014D
:1011A000B0917B01CD91CDBFDD91DEBFFF91EF917D
:1011B000DF91CF91BF91AF919F918F917F916F916F
:1011C0005F914F913F912F911F910F91FF90EF9061
:1011D000DF90CF90BF90AF909F908F907F906F9057
:1011E0005F904F903F902F901F900F900FBE0F90E9
:1011F0000895CF93DF93009751F0EC010E94EA032A
:10120000CE010E94330DDF91CF910C94B004DF9199
:10121000CF91089500E010E08091380181110CC059
:1012200080915501823010F00E94F00301151105E4
:1012300099F30E940000F0CF0FB6F8940F92E0915E
:101240003F01F0914001C681D781CE0102960E94F4
:101250006C0180913901815080933901809138016E
:101260008150809338010F900FBE8F89988D0E9416
:10127000F908CE010E94F908CFCFCF93DF93EC019C
:101280000E94EA03CE010E94970CEC010E94B00478
:10129000209769F4259A2D9A2FEF80E792E021504C
:1012A00080409040E1F700C000001D9AF5CFCE01CC
:1012B000DF91CF9108957F928F929F92AF92BF92CC
:1012C000CF92DF92EF92FF920F931F93CF93DF9312
:1012D000982EA92E762E872E7A01B22ECA010E9450
:1012E0003D096C01D0E0C0E0892B09F460C080E3C7
:1012F00090E00E943D09EC01892B09F455C080E380
:10130000DE011D928A95E9F7D88ECF8AA70165EA9A
:1013100070E0C6010E94CB0DB1E0EB1AF108EF8935
:10132000F88DEE0DFF1D672D782DCE0149969B019E
:10133000205F3F4FDB014D91BD01DC014D93CD019D
:10134000AB0141505109DA014C91442319F02617A1
:10135000370781F718A6BE8AB9A61B861A861D8A8A
:101360001C8AD987C88784E090E08B1991099D87F2
:101370008C87DB8BCA8B9082DF011197AC9211971F
:101380001C92119780E88C9311971C9257971C928E
:1013900011971C92B397F983E8830115110539F071
:1013A000F801D183C08303C0C6010E94F908CE01B1
:1013B000DF91CF911F910F91FF90EF90DF90CF9031
:1013C000BF90AF909F908F907F900895CF93DF93C1
:1013D00000D000D01F92CDB7DEB785E0B82ECE0189
:1013E00001967C01E0918201F09183011081D12C62
:1013F000C12C112329F00580F681E02DC080D18019
:101400000E94EA030E94E0034C0180914C019091FC
:101410004D018816990608F089C00E944B029092EF
:101420004D0180924C010E94B004D701EB2D1D921A
:10143000EA95E9F700919801109199010FB6F89497
:101440000F92D8015A96DC905A97DD2009F42FC1EB
:101450005C964C915C974423F9F050E016968D9180
:101460009C911797840F951F17969C938E931697B0
:1014700014962D913C9115978217930738F08D9112
:101480009C91119717969C938E931697F8016681FD
:101490007781C7010E94C20DDA94D8015A96DC9276
:1014A0005A9718968C91882339F0C80108960E94A3
:1014B000F90281110E94F0030F900FBEA980A7FCD2
:1014C000B9CF0C811D81D8011A968D919C91892BE1
:1014D00021F0C80102960E946C010E94E0036C0199
:1014E00080914C0190914D01C816D90610F40E94CC
:1014F0004B02D0924D01C0924C01EFEFEA0DE93062
:1015000008F098CF0E2E000CFF0BE357F54FD801D3
:1015100052968C9152970C94BC0D100B100B530BE0
:101520003B0B4D0B100B100B530B3B0B90924D01D3
:1015300080924C01112351F08C149D0470F00E9494
:10154000B004B401C6010E9421026FCFE091800176
:10155000F091810161E08081811160E0009198014A
:10156000109199010FB6F8940F92D8015D968C9165
:101570005D978F3F11F45D961C92F801868D8F3F29
:1015800009F4168E0F900FBED8015A968C915A9777
:1015900081113CC05296ED91FC91A0917A01B091DD
:1015A0007B011F96FC93EE931E97A0917A01B09158
:1015B0007B018481958151969C938E935097809165
:1015C0007A0190917B01A481B5810C9613969C932E
:1015D0008E93129780917A0190917B010C9695835E
:1015E0008483E0917A01F0917B01C8014196958B4B
:1015F000848BF80181898F5F818BC60188199909D5
:10160000662311F08FEF9FEF0E946902C8010E94CC
:101610009E030E94B004811108CF0E94F00305CF01
:101620008160F801828B8A809B8064857585680D56
:10163000791D9401A601C8010E94D301882309F4F1
:10164000F9CED80152968C91529782FF10C01C9609
:101650006D917C91680D791DA601C8010E94FD0164
:10166000D8015096ED91FC91C8010995E3CE8E7F8B
:10167000F801828BF5CF816052968C9352976A81E4
:101680007B811D967C936E931C976C0D7D1D96013E
:10169000A601C8010E94D301CDCE81FD04C0C801BE
:1016A0000E94F908C7CE8E7FF801828BC3CE0F90BF
:1016B0000FBE98CE0E942E071895CF93DF93CDB71B
:1016C000DEB760970FB6F894DEBF0FBECDBF78943B
:1016D00084B5826084BD84B5816084BD85B5826037
:1016E00085BD85B5816085BD80916E0081608093E8
:1016F0006E00109281008091810082608093810051
:101700008091810081608093810080918000816060
:10171000809380008091B10084608093B1008091BB
:10172000B00081608093B00080917A0084608093E3
:101730007A0080917A00826080937A0080917A00AA
:10174000816080937A0080917A00806880937A002B
:101750001092C10020910501309106018FEF98E0B1
:10176000821B930B90930201809301010E94E90078
:10177000ADE0B1E0FE0131962DE131E0BF018D9188
:101780008193882319F02A173B07C9F70EE711E068
:1017900020E040EC50E08AE099E00E945B0900976D
:1017A00009F4B9C00E948A060FB6F8940F9280918E
:1017B000980190919901892B09F050C08DE891E032
:1017C0000E94C50184E891E00E94C5018DE891E086
:1017D000909383018093820184E891E0909381014A
:1017E0008093800181E590E00E943D098C01009783
:1017F00089F14F96F801918380838AE0838F85E099
:10180000848F0FB6F8940F9280819181238D448D3F
:10181000BC01249F600D711D112475836483128E99
:10182000938382832150330B429FB001439F700DFD
:101830001124860F971F978386838FEF858F868F5E
:10184000C80108960E94C501C80141960E94C501C1
:101850000F900FBE10939901009398010F900FBE47
:101860008091980190919901892B09F454C006E95F
:1018700011E023E04CE550E062E171E086EE99E092
:101880000E945B09009709F446C00E948A06F894FA
:101890008FEF9FEF90939E0180939D0181E0809355
:1018A0009C0110929B0110929A01A89588E190ECFE
:1018B0000FB6F894A895809360000FBE90936000D7
:1018C000A0917A01B0917B01CD91CDBFDD91DEBFBA
:1018D000FF91EF91DF91CF91BF91AF919F918F9148
:1018E0007F916F915F914F913F912F911F910F9138
:1018F000FF90EF90DF90CF90BF90AF909F908F9030
:101900007F906F905F904F903F902F901F900F901F
:101910000FBE0F900895809100010E94E90000E041
:1019200010E001151105E9F30E940000FACF0F93B2
:101930001F93CF93DF938230910510F482E090E003
:10194000E091AA01F091AB0130E020E0B0E0A0E02E
:10195000309799F42115310509F44AC0281B390B39
:1019600024303105D8F58A819B816115710589F193
:10197000FB0193838283FE0111C04081518102816A
:10198000138148175907E0F04817590799F4109741
:1019900061F012960C93129713961C933296CF0116
:1019A000DF91CF911F910F9108950093AA01109399
:1019B000AB01F4CF2115310551F04217530738F030
:1019C000A901DB019A01BD01DF01F801C1CFEF01DF
:1019D000F9CF9093AB018093AA01CDCFFE01E20F26
:1019E000F31F819391932250310939832883D7CFF4
:1019F0002091A8013091A901232B41F420910301EA
:101A0000309104013093A9012093A8012091010194
:101A1000309102012115310541F42DB73EB74091B7
:101A2000050150910601241B350BE091A801F091AE
:101A3000A901E217F307A0F42E1B3F0B2817390763
:101A400078F0AC014E5F5F4F2417350748F04E0F1A
:101A50005F1F5093A9014093A801819391939FCF59
:101A6000F0E0E0E09CCFCF93DF930097E9F0FC013A
:101A7000329713821282A091AA01B091AB01ED01BD
:101A800030E020E01097A1F420813181820F931F74
:101A90002091A8013091A9012817390709F061C0E8
:101AA000F093A901E093A801DF91CF910895EA0195
:101AB000CE17DF07E8F54A815B819E01411551058C
:101AC000B1F7E901FB83EA8349915991C40FD51F0E
:101AD000EC17FD0761F4808191810296840F951FB8
:101AE000E90199838883828193819B838A83F0E0D3
:101AF000E0E012968D919C9113970097B9F52D9186
:101B00003C911197CD010296820F931F2091A8015D
:101B10003091A9012817390739F6309751F51092FD
:101B2000AB011092AA01B093A901A093A801BCCF68
:101B3000D383C28340815181840F951FC817D90771
:101B400061F44E5F5F4F88819981480F591F51831F
:101B500040838A819B81938382832115310509F01B
:101B6000B0CFF093AB01E093AA019ECFFD01DC0161
:101B7000C0CF13821282D7CFEE0FFF1F0590F491D2
:101B8000E02D0994FB01DC0102C001900D9241504F
:101B90005040D8F70895DC0101C06D93415050408A
:081BA000E0F70895F894FFCF6F
:101BA800030000AC018000426C696E6B0049444C34
:0A1BB8004500546D7220537663005F
:00000001FF
