:100000000C9462000C948A000C948A000C948A0070
:100010000C948A000C948A000C944B190C948A005E
:100020000C948A000C948A000C948A000C948A0028
:100030000C948A000C948A000C948A000C948A0018
:100040000C948F0A0C948A000C94FF0A0C94D90A21
:100050000C948A000C948A000C948A000C948A00F8
:100060000C948A000C948A000000000023002600F3
:10007000290000000000240027002A0000000000E2
:10008000250028002B0004040404040404040202D4
:100090000202020203030303030301020408102007
:1000A0004080010204081020010204081020000012
:1000B0000008000201000003040700000000000027
:1000C0000000E31911241FBECFEFD8E0DEBFCDBF83
:1000D00011E0A0E0B1E0E2EEFEE302C005900D9277
:1000E000AA38B107D9F723E0AAE8B1E001C01D9210
:1000F000A935B207E1F710E0C2E6D0E004C02197CD
:10010000FE010E948A1CC136D107C9F70E94221A3B
:100110000C946F1F0C94000090E0FC01E255FF4F1F
:100120002491FC01E656FF4F3491FC01EA57FF4F42
:10013000E491EE23C9F0222339F0233001F1A8F431
:10014000213019F1223029F1F0E0EE0FFF1FE458C1
:10015000FF4FA591B4918FB7F894EC91611126C02F
:1001600030953E233C938FBF08952730A9F0283067
:10017000C9F0243049F7809180008F7D03C08091C1
:1001800080008F7780938000DFCF84B58F7784BD28
:10019000DBCF84B58F7DFBCF8091B0008F778093CC
:1001A000B000D2CF8091B0008F7DF9CF3E2BDACF57
:1001B000CF93DF9390E0FC01E656FF4F24918A57DE
:1001C0009F4FFC0184918823D1F090E0880F991F04
:1001D000FC01EE58FF4FA591B491FC01E458FF4F8C
:1001E000C591D49161110EC09FB7F8948C91E22F04
:1001F000E0958E238C932881E223E8839FBFDF91D3
:10020000CF9108958FB7F894EC91E22BEC938FBFC8
:10021000F6CFAF92BF92CF92DF92EF92FF920F9301
:100220001F93CF93DF936C017B018B01040F151F8C
:10023000EB015E01AE18BF08C017D10759F06991F4
:10024000D601ED91FC910190F081E02DC601099558
:10025000892B79F7C501DF91CF911F910F91FF9005
:10026000EF90DF90CF90BF90AF900895FC01538D39
:10027000448D252F30E0842F90E0821B930B541780
:1002800010F0CF96089501970895FC01918D828D0D
:10029000981761F0A28DAE0FBF2FB11D5D968C91A6
:1002A000928D9F5F9F73928F90E008958FEF9FEFE5
:1002B0000895FC01918D828D981731F0828DE80FA1
:1002C000F11D858D90E008958FEF9FEF0895FC015B
:1002D000918D228D892F90E0805C9F4F821B910928
:1002E0008F739927089580E392E00E94670121E0CF
:1002F000892B09F420E0822F08950E947301811157
:100300000C940000089580E090E0892B11F00C948B
:100310007D010895FC01A48DA80FB92FB11DA35A2A
:10032000BF4F2C91848D90E001968F739927848F15
:10033000A689B7892C93A089B1898C918370806438
:100340008C93938D848D981306C00288F389E02DD9
:1003500080818F7D80830895EF92FF920F931F938A
:10036000CF93DF93EC0181E0888F9B8D8C8D981368
:100370001AC0E889F989808185FF15C09FB7F89474
:10038000EE89FF896083E889F989808183708064C0
:1003900080839FBF81E090E0DF91CF911F910F910B
:1003A000FF90EF900895F62E0B8D10E00F5F1F4F1A
:1003B0000F731127E02E8C8D8E110CC00FB607FC29
:1003C000FACFE889F989808185FFF5CFCE010E94B7
:1003D0008A01F1CFEB8DEC0FFD2FF11DE35AFF4F9A
:1003E000F0829FB7F8940B8FEA89FB898081806245
:1003F000CFCFCF93DF93EC01888D8823B9F0AA8902
:10040000BB89E889F9898C9185FD03C0808186FDCF
:100410000DC00FB607FCF7CF8C9185FFF2CF80811E
:1004200085FFEDCFCE010E948A01E9CFDF91CF9108
:1004300008954F925F926F927F92AF92BF92CF9248
:10044000DF92EF92FF920F931F93CF93DF93EC0114
:100450005A018B014C8C5D8C6E8C7F8C7301620118
:10046000F7FAF094F7F8F0949A01AB01C701B601DE
:100470000E94921E181664F09501A801C301B201F2
:100480000E94331D7301620187FD02C0650178017E
:1004900020E030E0A901C701B6010E94331D81119F
:1004A00017C01B821C821D821E82C88ED98EEA8EC6
:1004B000FB8EDF91CF911F910F91FF90EF90DF9016
:1004C000CF90BF90AF907F906F905F904F900895C6
:1004D000A701960160E074E284E799E40E94381D68
:1004E0009F770E94B11D6B837C838D839E8311E077
:1004F00020E030E0A901C701B6010E94921E181643
:100500000CF010E01A83D1CFCF93DF93FC01278149
:10051000222359F1EC0161E080850E94D80061E05E
:1005200089850E94D8008F81843011F08830B1F421
:1005300061E08A850E94D80061E08B850E94D80026
:100540008FA58F3F91F061E00E94D8006EA581E0F9
:1005500068278FA5DF91CF910C948C00833011F028
:10056000863071F761E08A85E9CFDF91CF910895F8
:10057000CF93DF93FC0127812223A9F0EC010190A6
:10058000F081E02D0284F385E02D60E009958FA5D0
:100590008F3F49F061E00E94D8006EA58FA5DF91E2
:1005A000CF910C948C00DF91CF910895DC01ED91F7
:1005B000FC91228533854770552766277727415060
:1005C000510961097109473051056105710560F4F0
:1005D000FA01E351FD4F0C948A1CF702F902FB0269
:1005E000FD02FF020103030361E0F901099465E0E4
:1005F000FCCF64E0FACF66E0F8CF62E0F6CF6AE0C5
:10060000F4CF68E0F2CF69E0F0CFCF93DF93EC0155
:10061000CB01BA0126E030E040E050E00E946B1CC4
:10062000623071058105910589F16CF461157105E0
:1006300081059105D1F06130710581059105F9F0D1
:10064000DF91CF910895643071058105910561F1C5
:1006500024F1653071058105910591F7E881F981F3
:100660000284F385E02D66E006C0E881F98102840A
:10067000F385E02D64E0CE01DF91CF910994E8810C
:10068000F9810284F385E02D65E0F5CFE881F981F9
:100690000284F385E02D61E0EECFE881F9810284E8
:1006A000F385E02D63E0E7CFE881F9810284F385EB
:1006B000E02D62E0E0CFDC01ED91FC910284F38556
:1006C000E02D437055276627772742305105610595
:1006D000710571F0433051056105710559F04130E4
:1006E00051056105710511F065E0099466E0FDCFE3
:1006F0006AE0FBCF69E0F9CFCF93DF93EC01CB0148
:10070000BA0123E030E040E050E00E946B1C613011
:1007100071058105910599F062307105810591059A
:10072000A9F0672B682B692BC1F4E881F981028459
:10073000F385E02D64E0CE01DF91CF910994E8814B
:10074000F9810284F385E02D61E0F5CFE881F9813C
:100750000284F385E02D62E0EECFDF91CF91089522
:10076000DC01ED91FC910284F385E02D4370552767
:1007700066277727423051056105710571F04330D6
:1007800051056105710559F041305105610571054B
:1007900011F062E0099463E0FDCF61E0FBCF60E01F
:1007A000F9CFCF93DF93EC01E881F9810284F385DF
:1007B000E02D8A8160E0811162E0CE010995E88137
:1007C000F9810284F385E02D8A8161E0811163E083
:1007D000CE0109958CA59DA58230910538F0880F32
:1007E000991F880F991F05970197F1F7E881F98103
:1007F0000284F385E02D8A8160E0811162E0CE0100
:10080000DF91CF910994CF93DF93EC0120E030E0AA
:10081000A901688D798D8A8D9B8D0E94921E181674
:100820002CF4E8A9F9A9DF91CF910994EAA9FBA9D1
:10083000FACFCF92DF92EF92FF920F931F93CF9355
:10084000DF93DC011796CC91C43039F0C83059F1F0
:10085000C33019F0C63049F1C2E08C01085F1F4F68
:10086000F12CE12CC62ED12CD1E0F8016481C60117
:100870000E2C02C0959587950A94E2F780FD6D27AE
:100880000F5F1F4F80810E948C00BFEFEB1AFB0AA5
:10089000EC1658F3DF91CF911F910F91FF90EF90DD
:1008A000DF90CF900895C4E0D8CFC3E0D6CFDC016D
:1008B0001796EC911797E93008F038C0F0E0ED5941
:1008C000FB4F0C948A1C6C04720478047E0484042C
:1008D00096048A0496049004ED91FC910684F785B1
:1008E000E02D0994ED91FC910088F189E02DF9CF7C
:1008F000ED91FC910288F389E02DF3CFED91FC910D
:100900000488F589E02DEDCFED91FC910688F789FB
:10091000E02DE7CFED91FC91008CF18DE02DE1CF42
:10092000ED91FC91028CF38DE02DDBCF0895CF92F9
:10093000DF92EF92FF92CF93DF93EC013FB7F894F1
:100940008091040290910502A0910602B0910702E5
:1009500026B5A89B05C02F3F19F00196A11DB11D1A
:100960003FBFBA2FA92F982F88276C017D01C20E97
:10097000D11CE11CF11C42E0CC0CDD1CEE1CFF1C68
:100980004A95D1F788A599A5AAA5BBA5B701A60147
:10099000481B590B6A0B7B0B8B819C81AD81BE81FF
:1009A000481759076A077B0728F188899989AA8916
:1009B000BB892A812223D1F00196A11DB11D888B0C
:1009C000998BAA8BBB8B488959896A897B89CE010F
:1009D0000E945704C8A6D9A6EAA6FBA681E0DF912B
:1009E000CF91FF90EF90DF90CF9008950197A109EC
:1009F000B109E5CF80E0F3CF4F925F926F927F9283
:100A00008F929F92AF92BF92CF92DF92EF92FF921E
:100A10000F931F93CF93DF93EC01CC88DD88EE8892
:100A2000FF8888899989AA89BB89C81AD90AEA0ADC
:100A3000FB0A688D798D8A8D9B8D9B01AC010E948C
:100A4000971E4B015C0168A179A18AA19BA19B0122
:100A5000AC010E94C71C9B01AC01C501B4010E94FE
:100A6000381D0E94AA1DC114D104E104F10409F04B
:100A7000B6C062307105810591050CF0D0C01B82B3
:100A80001C821D821E82188E198E1A8E1B8E1CAA25
:100A90001DAA1EAA1FAAC12CD12C7601C701B6011E
:100AA000DF91CF911F910F91FF90EF90DF90CF904A
:100AB000BF90AF909F908F907F906F905F904F907E
:100AC00008951016110612061306B4F46C157D0570
:100AD0008E059F051CF42A812111A1C09B01AC0148
:100AE00088279927DC01821B930BA40BB50B8CABD9
:100AF0009DABAEABBFAB93C0011511052105310510
:100B000009F48DC06C157D058E059F050CF087C01E
:100B10008A81882309F483C030952095109501952A
:100B20001F4F2F4F3F4F0CAB1DAB2EAB3FAB77C0D2
:100B3000011511052105310509F471C08824992496
:100B400054018C189D08AE08BF08681579058A0500
:100B50009B050CF064C08A81811161C0DDCFCCACF3
:100B6000DDACEEACFFACA7019601C701B6010E9457
:100B7000C71C2B013C01C501B4010E94E21D20E00D
:100B800030E040E850E40E94971E20E030E040E86A
:100B90005FE30E94C71C9B01AC01C301B2010E942C
:100BA000381D9B01AC01C701B6010E94C61C3B0168
:100BB0006C01FE01E05CFF4FE080F1800281138157
:100BC0009701A8010E94921E181614F47301860161
:100BD000C701D8018CAF9DAFAEAFBFAF3AC00CA973
:100BE0001DA92EA93FA91C141D041E041F040CF4EA
:100BF00068CF10161106120613060CF099CF0027C5
:100C0000112798010C191D092E093F09601771075A
:100C1000820793070CF062CF2A8121115FCF8CA845
:100C20009DA8AEA8BFA881149104A104B10409F045
:100C300096CF88AD99ADAAADBBAD8CAF9DAFAEAF31
:100C4000BFAF81E01C141D041E041F040CF080E0E3
:100C50008A833FEF831A930AA30AB30A8CAA9DAA38
:100C6000AEAABFAA8CAC9DACAEACBFACC501B40102
:100C70000E94B11D6B017C01CB82DC82ED82FE8281
:100C8000A501940160E074E284E799E40E94381DB4
:100C9000688F798F8A8F9B8F2A812111FFCE905880
:100CA000688F798F8A8F9B8FF9CECF92DF92EF92E8
:100CB000FF92CF93DF93EC01688D798D8A8D9B8DA8
:100CC0009B01AC010E94971E6B017C0168A179A178
:100CD0008AA19BA19B01AC010E94C71C9B01AC0196
:100CE000C701B6010E94381D0E94AA1D6CAB7DABE6
:100CF0008EAB9FABCE01DF91CF91FF90EF90DF9055
:100D0000CF900C94FC0408950C94CE1B0F931F936A
:100D1000CF93DF93E0914002F091410282E0808323
:100D2000E0913C02F0913D021082E0913E02F09190
:100D30003F0280E1808310924802E0914402F091EA
:100D4000450286E08083E0914202F0914302808177
:100D500080618083E0914202F0914302808188604B
:100D60008083E0914202F091430280818068808319
:100D7000E0914202F091430280818F7D80838FE178
:100D800090E00E946314EC01009781F099838883BE
:100D900081E08B8F1C8ECE010E94610E1D821C8211
:100DA000198218821E82CE010E941D11D093A301C8
:100DB000C093A20110E000E024E040E450E069E3C9
:100DC00071E082E498E00E94811424E040E450E065
:100DD00061E471E080E39AE00E94811424E040E63F
:100DE00050E06EE471E08EE097E00E94811423E011
:100DF00040E850E066E671E08AEA99E00E948114DA
:100E000023E040E850E062E771E08BE199E00E9466
:100E10008114DF91CF911F910F910895812C912C16
:100E200080E8A82E8FE3B82EC1E0D2E004E013E002
:100E300080E090E8A9E0B4E480939E0190939F0144
:100E4000A093A001B093A10180918C01811105C0F4
:100E5000C0938C01D0938D014FC0C0909601D0906B
:100E60009701E0909801F090990180918D0120E028
:100E700030E048EC53E4823009F46CC0833009F46C
:100E800082C0813009F0C5C0C701B6010E94331D80
:100E90001816E4F420E030E849E054E4C701B60154
:100EA0000E94921E87FF12C040909A0150909B01B1
:100EB00060909C0170909D0120E030E048EC52E48D
:100EC000C301B2010E94331D87FF1BC010928E0127
:100ED00010928F01109290011092910180E090E0A9
:100EE000A0E8BFEB8093920190939301A0939401AB
:100EF000B093950110938D010E94910E0E94910E66
:100F000097CF20E030E849E054E4C701B6010E94E1
:100F1000331D87FFF1CF20E030E048EC52E4C301FD
:100F2000B2010E94921E18163CF720E030E04CED12
:100F300052E4C301B2010E94331D87FFDDCF10923E
:100F400092011092930110929401109295010093D6
:100F50008D01D2CFC701B6010E94921E181664F609
:100F600080928E0190928F01A0929001B092910197
:100F70008092920190929301A0929401B092950177
:100F8000C0938D01B9CFC701B6010E94331D181659
:100F90008CF010928E0110928F011092900110929D
:100FA000910110929201109293011092940110926B
:100FB000950150CF20E030E849E054E4C701B60184
:100FC0000E94331D87FF98CFC0909A01D0909B015B
:100FD000E0909C01F0909D0120E030E04CED52E467
:100FE000C701B6010E94921E18160CF4B9CF20E07A
:100FF00030E048EC52E4C701B6010E94921E181678
:101000000CF07ACF20E030E04CED52E4C701B6019D
:1010100092CFC701B6010E94331D18160CF056CFAF
:1010200020E030E849E054E4C701B6010E94921E76
:1010300087FF4CCF40909A0150909B0160909C019B
:1010400070909D0120E030E048EC52E4C301B20111
:101050000E94331D87FD3ACF20E030E849E054E498
:10106000C701B6010E94331D87FF46CF20E030E064
:101070004CED52E4C301B2010E94921E18160CF40A
:1010800077CF3ACF60E08EE00E94D800C0E4C093F2
:101090007C0080917A00806480937A0080917A004D
:1010A00086FDFCCF6091780070917900072E000CCE
:1010B000880B990B0E94E21D20E030E040E85AE3E3
:1010C0000E94971E20E030E040EA50E40E94971E04
:1010D00020E030EE48E850E40E94C61C2DEC3CECC9
:1010E0004CEC59E30E94381D0E94AA1D072E000CEB
:1010F000880B990B0E94E21D6093960170939701F3
:1011000080939801909399010E940E0E60E08FE009
:1011100090E00E94730C0E94510F811102C00E9446
:10112000910E0E94910EB3CF4F925F926F927F9279
:101130008F929F92AF92BF92CF92DF92EF92FF92E7
:10114000CF93DF93EC016A017B0120E030E0A9013D
:10115000CB01B6010E94331D87FF04C0F7FAF0945B
:10116000F7F8F09488A099A0AAA0BBA0A7019601C7
:10117000C501B4010E94331D882309F44DC06CA938
:101180007DA98EA99FA90E94E21D2B013C01A70108
:101190009601C501B4010E94381D9B01AC01C30139
:1011A000B2010E94971E0E94AA1D6CAB7DAB8EAB54
:1011B0009FABA701960160E070E080E090E40E94A0
:1011C000381D0E940A1F26E53EE04DE25FE30E94C3
:1011D000971E20E034E244E759E40E94971E68AF6E
:1011E00079AF8AAF9BAFC8A2D9A2EAA2FBA2E881DD
:1011F000F9810084F185E02DCE01DF91CF91FF9040
:10120000EF90DF90CF90BF90AF909F908F907F90A6
:101210006F905F904F900994DF91CF91FF90EF9086
:10122000DF90CF90BF90AF909F908F907F906F9006
:101230005F904F90089520E030E543EC57E46091D3
:10124000E9027091EA028091EB029091EC020E9417
:10125000331D882349F180E090E5A3ECB7E4809347
:10126000E9029093EA02A093EB02B093EC0280E0D3
:1012700090E0A0E2B1E480930D0390930E03A0935D
:101280000F03B09310038091010390910203A0918A
:101290000303B0910403181619061A061B0624F45A
:1012A0008DEC92E00E94550640E050E563EC77E457
:1012B0008DEC92E00E9494088091A2019091A3018C
:1012C0000E944812813009F040C0609196017091EF
:1012D000970180919801909199019B01AC010E9426
:1012E000C71C20918E0130918F0140919001509147
:1012F00091010E94971E6B017C012091E5023091C3
:10130000E6024091E7025091E8020E94331D8823D3
:1013100031F0B701A6018DEC92E00E941902809194
:10132000D0029091D102A091D202B091D302892B28
:101330008A2B8B2B21F08DEC92E00E9497048091F8
:10134000A2019091A3010E941D110E94910E0E9482
:10135000910EB2CF20E030E048E453E460912D03D9
:1013600070912E0380912F03909130030E94331DC2
:10137000882349F180E090E0A8E4B3E480932D0352
:1013800090932E03A0932F03B093300380E090E45A
:10139000ACE9B5E48093510390935203A0935303B7
:1013A000B09354038091450390914603A091470365
:1013B000B0914803181619061A061B0624F481E199
:1013C00093E00E94550640E050E563EC77E481E14C
:1013D00093E00E9494088091A2019091A3010E9441
:1013E00048128130C1F520E030E048E453E46091D8
:1013F00092017091930180919401909195010E94C6
:10140000971E6B017C012091290330912A034091A2
:101410002B0350912C030E94331D882331F0B70118
:10142000A60181E193E00E9419028091140390913A
:101430001503A0911603B0911703892B8A2B8B2BD0
:1014400021F081E193E00E9497048091A2019091A4
:10145000A3010E941D110E94910E0E94910EBBCF0C
:1014600061E08FE00E94D80060E080E10E94D80037
:10147000C3E2D0E09AEAE92E90E0F92E26E9C22EE6
:1014800020E0D22E3AE3A32EB12C61E08FE00E943F
:101490008C00CE010197F1F760E08FE00E948C0094
:1014A000F7016491F6018491E82FF0E0EE0FFF1F41
:1014B000E859FF4F8591949100E412E42FE030E069
:1014C000462F0E94310B611571058105910529F0A8
:1014D0006F5F7F4F8F4F9F4F9F70CB01B5010E9471
:1014E000571C072E000C880B990B0E94E21D60937D
:1014F0009A0170939B0180939C0190939D010E949F
:101500000E0E60E08FE090E00E94730C0E94510F7D
:10151000811102C00E94910E0E94910EB6CF1F92BF
:101520000F920FB60F9211242F933F938F939F9397
:10153000AF93BF938091CA019091CB01A091CC0150
:10154000B091CD013091C90123E0230F2D3758F51B
:101550000196A11DB11D2093C9018093CA019093EA
:10156000CB01A093CC01B093CD0180910402909166
:101570000502A0910602B09107020196A11DB11DBE
:101580008093040290930502A0930602B093070291
:10159000BF91AF919F918F913F912F910F900FBE6F
:1015A0000F901F90189526E8230F0296A11DB11DDC
:1015B000D2CF1F920F920FB60F9211242F933F9309
:1015C0004F935F936F937F938F939F93AF93BF934B
:1015D000EF93FF9380E392E00E948A01FF91EF91E5
:1015E000BF91AF919F918F917F916F915F914F913B
:1015F0003F912F910F900FBE0F901F9018951F9243
:101600000F920FB60F9211242F938F939F93EF9306
:10161000FF93E0914002F09141028081E091460207
:10162000F091470282FD1BC09081809149028F5F3B
:101630008F7320914A02821741F0E0914902F0E055
:10164000E05DFD4F958F80934902FF91EF919F914F
:101650008F912F910F900FBE0F901F901895808142
:10166000F4CFCF92DF92EF92FF920F931F93E82F68
:10167000F92F05C0015011092109310961F190814B
:1016800096239417B9F305C00150110921093109B6
:1016900011F1908196239413F7CFC12CD12CE12C1A
:1016A000F12C0AC08FEFC81AD80AE80AF80A0C15FC
:1016B0001D052E053F0579F080818623841791F35F
:1016C0006C2D7D2D8E2D9F2D1F910F91FF90EF90F2
:1016D000DF90CF90089560E070E080E090E01F918F
:1016E0000F91FF90EF90DF90CF900895CF93DF930D
:1016F000FC01A085B1858281938124813581EC0133
:101700003D832C83C481D5819B838A8311968D91DF
:101710009C9112978E179F0721F41296DC93CE931B
:101720001197118610868C9181508C93DF91CF9107
:1017300008950F931F93CF93DF938C01FB0180815A
:101740009181D80113968F3F9807F1F4E801AF819A
:10175000B88512968D919C91139793838283EC01A7
:10176000FD83EC83B583A4831396FC93EE931297C9
:1017700011870087F80180818F5F8083DF91CF918F
:101780001F910F910895D90112962D913C911397B5
:10179000E9014881598184179507A8F7DACFFC0140
:1017A0000396928381832FEF3FEF348323839683C5
:1017B00085839087878310820895FC0173836283F9
:1017C000918780874617570790F0421B530B8485FB
:1017D000958548175907C8F4BF016E5F7F4F809108
:1017E000AD019091AE010E94990B80E008954217DF
:1017F000530718F46217730740F4BF016E5F7F4F01
:101800008091AF019091B001EECF81E00895EF9209
:10181000FF920F931F93CF93DF93EC018B017A011B
:101820006C857D85600F711F9801A701CE010E9414
:10183000DD0B811107C0DF91CF911F910F91FF90B8
:10184000EF9008958C859D85080F191FE889F98907
:10185000CE010995E5CFEF92FF920F931F93CF939F
:10186000DF938C017B01E091AF01F091B001058025
:10187000F681E02DC681D781CE0102960E94760BBB
:101880008A8982FF0FC0A701B801CE010E94070C10
:10189000E889F989CE01DF91CF911F910F91FF90D7
:1018A000EF9009948E7F8A8BF3CFE091AF01F09196
:1018B000B001808181110DC08091AD019091AE0188
:1018C0009093B0018093AF01F093AE01E093AD012E
:1018D00008950580F681E02D6FEF7FEF8081918183
:1018E0000E942B0CE2CFBF92CF92DF92EF92FF9239
:1018F0000F931F93CF93DF93EC01B62EC090080295
:10190000D09009020091D0011091D101E090CE0158
:10191000F090CF01809102029091030202960E9402
:10192000760BCF3FDC0709F042C0BB2009F43FC073
:10193000E091D301F091D401A0910202B091030291
:101940001596FC93EE931497A0910202B0910302B6
:101950008481958117969C938E93169780910202AD
:1019600090910302A481B581029613969C938E9365
:1019700012978091020290910302029695838483CC
:10198000E0910202F091030282ED91E09387828759
:101990008091D2018F5F8093D201DF91CF911F910F
:1019A0000F91FF90EF90DF90CF90BF900895CC0DF6
:1019B000DD1DE0910202F0910302D383C2836091A6
:1019C0000202709103026E5F7F4FCC15DD0560F45B
:1019D000C701DF91CF911F910F91FF90EF90DF90A2
:1019E000CF90BF900C94990BC8010E94990B8091E5
:1019F000C7019091C801C817D90778F6D093C801DC
:101A0000C093C701CACFE091D001F091D10180818C
:101A1000811107C08FEF9FEF9093C8018093C7019A
:101A20000895E091D001F091D1010580F681E02D7B
:101A300080819181F1CFFC01DB010FB6F8940F9208
:101A400040910802509109022D913C9111972F3F2E
:101A5000320711F18181928160910A0270817617BB
:101A600049F04817590730F01D921C9281E00F9001
:101A70000FBE0895481B590B42175307A8F7241BA4
:101A8000350B2D933C9380910A028083809108024C
:101A9000909109029283818380E0E9CFCF93DF9315
:101AA000DC011596ED91FC910680F781E02DA4896B
:101AB000B5898685978520893189EC013D832C8302
:101AC000C089D1899B838A83CF010C9611962D9171
:101AD0003C9112972817390721F41296DC93CE9384
:101AE0001197158A148A2C9121502C932091A701CB
:101AF000211157C0A285B3858481958126813781C4
:101B0000EC013D832C83C681D7819B838A83CF01DF
:101B1000029611962D913C9112972817390721F4BE
:101B20001296DC93CE931197138612862C91215036
:101B30002C93C68920912F022C1710F4C0932F02EA
:101B400029E02C9FE0011124C55FDD4F0980DA8177
:101B5000C02DD583C4834C815D8157834683AC817E
:101B6000BD8113969C938E9312979D838C83A68937
:101B7000A29FD0011124A55FBD4FB387A2878C918E
:101B80008F5F8C93A0910202B091030296895696C2
:101B90008C91891730F581E08093A601DF91CF9178
:101BA0000895A091E501B091E601B787A687149644
:101BB0002D913C911597318B208B1496CD91DC9112
:101BC00015979B838A8315969C938E93149784EE26
:101BD00091E0958B848B8091E4018F5F8093E40189
:101BE000D1CF80E0DBCFCF93DF93EB016091020296
:101BF00070910302645F7F4F0E94990B61E0CE01F8
:101C0000DF91CF910C94730C0FB6F8940F928091E2
:101C10000802909109020F900FBE08958091A701CC
:101C20008F5F8093A70108950FB6F8940F92FC017F
:101C3000928D0F900FBE81E0911180E00895EF9298
:101C4000FF920F931F93CF93DF93EC010FB6F8949D
:101C50000F921E8D7C0181E1E80EF11C01E011164E
:101C6000D4F08FEF8E8F0F900FBE0FB6F8940F92B7
:101C70001D8D7E0188E0E80EF11C01E01116B4F024
:101C80008FEF8D8F0F900FBEDF91CF911F910F912E
:101C9000FF90EF9008958989882319F3C7010E9466
:101CA0004E0D81110093A6011150D9CF888588234C
:101CB00039F3C7010E944E0D81110093A601115006
:101CC000DDCFCF93DF93EC010FB6F8940F928881AC
:101CD00099812B8D4C8DBC01249F600D711D1124A9
:101CE0007D836C831A8E9B838A832150330B429FA2
:101CF000B001439F700D1124860F971F9F838E8321
:101D00008FEF8D8F8E8FCE0108960E94CF0BCE0164
:101D100041960E94CF0B0F900FBE81E0DF91CF91D3
:101D200008950F920FB6F8940F921F9211242F92DC
:101D30003F924F925F926F927F928F929F92AF925B
:101D4000BF92CF92DF92EF92FF920F931F932F9348
:101D50003F934F935F936F937F938F939F93AF9333
:101D6000BF93CF93DF93EF93FF93A0910202B091C3
:101D700003020DB60D920EB60D928091A701882335
:101D800021F081E08093A60161C01092A601A0918C
:101D90000202B0910302E0910202F09103022D9140
:101DA0003C918789908D82179307A8F08091020259
:101DB000909103028091020290910302259A2D9A3C
:101DC0002FEF87EA91E6215080409040E1F700C074
:101DD00000001D9AF5CF20912F0289E001C021500B
:101DE000422F50E0849FF001859FF00D1124E55FA4
:101DF000FD4F9081992399F3A181B28112966D9143
:101E00007C9172836183289FC0011124825F9D4F62
:101E10006817790721F4858196819283818389E00F
:101E2000849FF001859FF00D1124E55FFD4F018037
:101E3000F281E02D868197819093030280930202C4
:101E400020932F028091020290910302A09102023E
:101E5000B0910302CD91CDBFDD91DEBFFF91EF9137
:101E6000DF91CF91BF91AF919F918F917F916F91B2
:101E70005F914F913F912F911F910F91FF90EF90A4
:101E8000DF90CF90BF90AF909F908F907F906F909A
:101E90005F904F903F902F901F900F900FBE0F902C
:101EA00008958F929F92BF92CF92DF92EF92FF920E
:101EB0000F931F93CF93DF930FB6F8940F928091F7
:101EC000A70181508093A7018091A701882379F011
:101ED00080E00F900FBEDF91CF911F910F91FF9087
:101EE000EF90DF90CF90BF909F908F90089580915A
:101EF0000102882369F3E090E901F090EA01F0E043
:101F0000E0E039E041E08091E40181115EC0EF2B17
:101F100011F00E94030DE090A401F090A501E114DE
:101F2000F10409F47DC189E0D82ECC24C3940FEFCD
:101F30001FEF8091A701811161C1C0910802D0916A
:101F400009024E018FEF881A980A90920902809236
:101F5000080281149104B9F48091D0019091D101CB
:101F60002091CE013091CF013093D1012093D00147
:101F70009093CF018093CE0180910A028F5F80936E
:101F80000A020E94030D8091C7019091C801B12CF3
:101F90008816990608F026C1E0910202F09103022A
:101FA000E689DE9EF0011124E55FFD4F80818230DD
:101FB00010F0BB24B3948091A601811103C0BB2013
:101FC00009F425C1C092A60122C1D7011696ED9150
:101FD000FC91A489B5896685778580899189EB0113
:101FE0009D838C8380899189EC017B836A83BF0107
:101FF000645F7F4F11960D911C911297061717077A
:1020000021F412969C938E931197158A148A8C91C1
:1020100081508C93A285B385848195816681778177
:10202000EC017D836C8366817781EB019B838A83DE
:10203000CF01029611960D911C911297081719075E
:1020400021F412967C936E931197138612862C912D
:1020500021502C93A68920912F022A1710F4A093C7
:102060002F023A9FD0011124A55FBD4F11960D900C
:10207000BC91A02DB583A48314966D917C91159786
:102080007783668314966D917C911597EB019B8302
:102090008A8315969C938E9314979689939FD0016B
:1020A0001124A55FBD4FB387A2878C918F5F8C935E
:1020B000A0910202B091030256968C91891708F004
:1020C00022CF4093A6011FCFE091D001F091D10122
:1020D0000580F681E02D0680F781E02D82819381D5
:1020E0008816990628F49093C8018093C70154CFAD
:1020F000C285D3858481958126813781DC0115963F
:102100003C932E93149726813781D90113969C9383
:102110008E931297CF01029649815A814817590729
:1021200011F43A832983138612862881215028834B
:10213000A489B5891097F9F026853785408951899A
:10214000E9015D834C8340895189EA013B832A83FD
:1021500011966D917C9112979F01245F3F4F6217FA
:10216000730721F412965C934E931197158A148A83
:102170002C9121502C93A68920912F022A1710F41C
:10218000A0932F02DA9ED0011124A55FBD4F1196B6
:102190000D90BC91A02DB583A48314962D913C91F4
:1021A00015973783268314962D913C911597E90155
:1021B0009B838A8315969C938E93149796899D9DF5
:1021C000D0011124A55FBD4FB387A2878C918F5F8B
:1021D0008C93E0910202F09103028689891710F432
:1021E000BB24B394E091D001F091D10180818111A1
:1021F0006BCF1093C8010093C701CECE8091A4018C
:102200009091A50101969093A5018093A401D1E03E
:10221000ED1AF10809F08DCE1092A5011092A401DB
:102220008091A601882309F453CE809102029091F7
:1022300003020E94910E81E04CCEAF92BF92DF92DA
:10224000EF92FF920F931F93CF93DF9300D000D0B4
:102250001F92CDB7DEB78C011D821C8280E0780111
:1022600098E0E90EF11C0FB6F8940F92D8015A9637
:102270002C915A975B969C915B97291708F0B0C0F8
:102280005A96DC905A975C964C915C9741118CC0A1
:102290008D919C91892B11F080E00AC0F801E480B7
:1022A000F580E114F10431F580E0F8011582148223
:1022B000D394D8015A96DC925A9751969C919923BF
:1022C00021F0C80141960E944E0D81110E94910E8D
:1022D0000F900FBE81E00F900F900F900F900F9016
:1022E000DF91CF911F910F91FF90EF90DF90BF9002
:1022F000AF900895D7019A968C919A9781509A96AB
:102300008C939A9756962C91569799969C9129174B
:1023100059F28111C9CF5701B2E0AB0EB11CC50112
:102320000E94760BF70181A5868B482F50E024E0B0
:1023300030E0241B350B3587248790912F029817A6
:1023400010F480932F0289E0849FD001859FB00D07
:102350001124A55FBD4F11960D90BC91A02DF701E2
:10236000B583A48314962D913C91159737832683CA
:102370001496ED91FC911597B382A2821596BC92AA
:10238000AE921497D7015696EC915697E89FF001BC
:102390001124E55FFD4F1B96FC93EE931A97808105
:1023A0008F5F808381E081CF50E070E060E0129623
:1023B0008D919C910E945F1FF801848D2281338151
:1023C000820F932F911D93838283248135818217FD
:1023D000930708F461CF80819181938382835CCFDE
:1023E0002C813D81232B21F40F900FBE80E073CF11
:1023F000811109C080910A0289838091080290911D
:1024000009029B838A830F900FBE0E940E0E0FB6A7
:10241000F8940F92F801858D8F3F09F4158ED8013D
:102420005E968C915E978F3F11F45E961C920F9092
:102430000FBEBE016C5F7F4FCE0101960E941B0D47
:10244000811120C00FB6F8940F92F801928D838D00
:102450000F900FBE981310C06C817D81C7010E9440
:10246000F30DC8010E941F0E0E94510F811102C07E
:102470000E94910E81E0F7CEC8010E941F0E0E94BB
:10248000510FF8CFC8010E941F0E0E94510FAECF0E
:102490007F928F929F92AF92BF92CF92DF92EF92F4
:1024A000FF920F931F93CF93DF9300D000D01F9222
:1024B000CDB7DEB78C018FEF9FEF9D838C83D12C3E
:1024C00090E0580121E1A20EB11C89E0782E24E0B1
:1024D000822E912C0FB6F8940F92D8015A968C91B7
:1024E0005A978823C9F181505A968C935A978D91A7
:1024F0009C91892B71F4E0910202F09103023097D4
:1025000019F082A58F5F82A7D8011596FC93EE93F0
:102510001497F8018085882339F0C80108960E9435
:102520004E0D81110E94910E0F900FBEDD24D394A9
:102530008D2D0F900F900F900F900F90DF91CF91F6
:102540001F910F91FF90EF90DF90CF90BF90AF90D1
:102550009F908F907F9008952C813D81232B21F4B3
:102560000F900FBED12CE4CF911109C080910A02C7
:10257000898380910802909109029B838A830F903E
:102580000FBE0E940E0E0FB6F8940F92D8015D9602
:102590008C915D978F3F11F45D961C92F801868DAA
:1025A0008F3F09F4168E0F900FBEBE016C5F7F4FF8
:1025B000CE0101960E941B0D8111AFC0C8010E947F
:1025C000140E882309F4A3C0D8018D919C91892B06
:1025D00009F078C00FB6F8940F92F801E480F58006
:1025E000E114F10409F491C0D70156968C915697E5
:1025F000E0910202F09103029689891708F07AC0EF
:102600001C962D913C911D9737FD0CC0E091020264
:10261000F091030296899401291B31091D963C9380
:102620002E931C97879DC0011124855F9D4FF70154
:10263000228533852817390709F054C06701F2E075
:10264000CF0ED11CC6010E94760BE0910202F091E0
:102650000302E689D7015696EC9380912F028E17DC
:1026600010F4E0932F027E9EF0011124E55FFD4FF0
:102670000180F281E02DD7011596FC93EE9314971B
:102680008481958117969C938E931697A481B5812A
:102690001396DC92CE921297D582C482D7015696B9
:1026A000EC915697E79DF0011124E55FFD4F1B96D5
:1026B000FC93EE931A9780818F5F8083DD24D394FF
:1026C0000F900FBE6C817D81C5010E94F30DC80182
:1026D0000E941F0E0E94510F811102C00E94910E94
:1026E00091E0F8CEE0910202F09103028689F701B1
:1026F000868BE4CFE0910202F0910302DD24D394B3
:1027000099969C9186899817D8F2D12CD9CFC80177
:102710000E941F0E0E94510FE3CFC8010E941F0E9E
:102720000E94510FC8010E94140E8823C9F2DD20B7
:1027300009F4FECE0FB6F8940F92F8018189882330
:1027400009F47BC00688F789E02D908184E0891B1D
:10275000D80114960D911C910115110509F400CFB3
:10276000F80191A5981708F4982FD80156968C91E6
:102770005697981709F4F4CE9A962C919A9721308F
:1027800009F0EECE56969C9356971C962D913C914F
:102790001D9737FD08C024E030E0291B31091D9644
:1027A0003C932E931C97B9E08B9FC0011124855F49
:1027B0009D4FF801228533852817390709F0D0CEBF
:1027C0007801F2E0EF0EF11CC7010E94760BF801D0
:1027D000A68980912F028A1710F4A0932F0289E016
:1027E0008A9FD0011124A55FBD4F11960D90BC9119
:1027F000A02DF801B583A48314962D913C911597D3
:10280000378326831496ED91FC911597F382E2822B
:102810001596FC92EE921497D8015696EC91569725
:10282000E89FF0011124E55FFD4F1B96FC93EE93AA
:102830001A9780818F5F808393CE80E089CFCF937A
:10284000DF93009751F0EC010E940E0ECE010E9422
:10285000CE1BDF91CF910C94510FDF91CF91089552
:1028600000E010E08091A80181110CC080910B0262
:10287000823010F00E94910E0115110599F30E940B
:102880007D01F0CF0FB6F8940F92E091E001F09146
:10289000E101C681D781CE0102960E94760B80911C
:1028A00001028150809301028091A80181508093A0
:1028B000A8010F900FBE8F89988D0E941F14CE0122
:1028C0000E941F14CFCFCF93DF93EC010E940E0E16
:1028D000CE010E94321BEC010E94510F209769F437
:1028E000259A2D9A2FEF80E792E02150804090406A
:1028F000E1F700C000001D9AF5CFCE01DF91CF9126
:1029000008957F928F929F92AF92BF92CF92DF9263
:10291000EF92FF920F931F93CF93DF93982EE92EA0
:10292000762E872E6A01F22ECA010E9463145C0182
:10293000892B09F4F2C080E390E00E946314EC015B
:10294000892B09F4E7C080E3DE011D928A95E9F73F
:10295000B88EAF8AA60165EA70E0C5010E94681FC3
:10296000B1E0CB1AD108EF89F88DEC0DFD1D672D74
:10297000782DCE0149969B01205F3F4FDB014D91A1
:10298000BD01DC014D93CD01AB0141505109DA018C
:102990004C91442319F02617370781F718A6B4E0A5
:1029A000FB1202C083E0F82EFE8AF9A61B861A8667
:1029B0001D8A1C8AD987C88784E090E08F19910905
:1029C0009D878C87DB8BCA8B9082DF011197EC92FD
:1029D00011971C92119780E88C9311971C9257972E
:1029E0001C9211971C92B397F983E8830115110586
:1029F00019F0F801D183C0830FB6F8940F9280913B
:102A000001028F5F80930102809102029091030284
:102A1000892B09F091C0D0930302C09302028091E8
:102A20000102813081F58BE092E00E94CF0B84E1BE
:102A300092E00E94CF0B8DE192E00E94CF0B86E2E4
:102A400092E00E94CF0B86EF91E00E94CF0B8DEEBB
:102A500091E00E94CF0B84EE91E00E94CF0B8BEDB2
:102A600091E00E94CF0B82ED91E00E94CF0B86EFA8
:102A700091E09093D1018093D0018DEE91E09093FD
:102A8000CF018093CE018091FF018F5F8093FF0182
:102A9000AE8980912F028A1710F4A0932F0229E0AB
:102AA0002A9FD0011124A55FBD4F11960D90BC91B6
:102AB000A02DBD83AC8314968D919C9115979F8317
:102AC0008E831496ED91FC911597CE010296938317
:102AD000828315969C938E931497EE89E29FF00162
:102AE0001124E55FFD4FFB87EA8780818F5F80833C
:102AF0000F900FBE80910002882351F0E0910202F6
:102B0000F091030296898E89981710F40E94910E15
:102B100081E004C0C5010E941F148FEFDF91CF91A7
:102B20001F910F91FF90EF90DF90CF90BF90AF90EB
:102B30009F908F907F900895809100028111A3CF84
:102B4000E0910202F091030296898E89891708F4B8
:102B50009ACFD0930302C093020295CFCF93DF9315
:102B6000CDB7DEB72A970FB6F894DEBF0FBECDBF44
:102B700085E0B82ECE0101967C01E091AF01F09185
:102B8000B0011081D12CC12C112329F00580F681D0
:102B9000E02DC080D1800E940E0E0E94040E4C01D8
:102BA0008091A9019091AA018816990608F090C019
:102BB0000E94550C9092AA018092A9010E94510F87
:102BC000D701EB2D1D92EA95E9F70091C50110910F
:102BD000C6011A86198680E04801F1E18F0E911C2A
:102BE0000FB6F8940F92D8015A96DC905A97DD20D0
:102BF00009F42FC15C964C915C974423F9F050E0A6
:102C000016968D919C911797840F951F17969C93FC
:102C10008E93169714962D913C91159782179307D2
:102C200038F08D919C91119717969C938E931697DF
:102C3000F80166817781C7010E945F1FDA94D8018D
:102C40005A96DC925A9718968C91882339F0C801CD
:102C500008960E944E0D81110E94910E0F900FBE9A
:102C6000A980A7FCB2CF0C811D81D8011A968D9145
:102C70009C91892B21F0C80102960E94760B0E943C
:102C8000040E6C018091A9019091AA01C816D90681
:102C900010F40E94550CD092AA01C092A901EFEF46
:102CA000EA0DE93008F091CF0E2E000CFF0BE15A2F
:102CB000F94ED80152968C9152970C948A1CE216C8
:102CC000E21625170D171F17E216E21625170D1726
:102CD0009092AA018092A901112351F08C149D04B5
:102CE00070F00E94510FB401C6010E942B0C68CFF6
:102CF000E091AD01F091AE0161E08081811160E071
:102D00000091C5011091C6010FB6F8940F92D80139
:102D10005D968C915D978F3F11F45D961C92F80142
:102D2000868D8F3F09F4168E0F900FBED8015A96EC
:102D30008C915A9781113CC05296ED91FC91A091D3
:102D40000202B09103021F96FC93EE931E97A0918E
:102D50000202B09103028481958151969C938E93D7
:102D600050978091020290910302A481B5810C9644
:102D700013969C938E931297809102029091030276
:102D80000C9695838483E0910202F0910302C801BE
:102D90004196958B848BF80181898F5F818BC60169
:102DA00088199909662311F08FEF9FEF0E94730C29
:102DB000C8010E941F0E0E94510F811101CF0E9475
:102DC000910EFECE8160F801828B8A809B806485A3
:102DD0007585680D791D9401A601C8010E94DD0B5F
:102DE000882309F4F2CED80152968C91529782FF33
:102DF00010C01C966D917C91680D791DA601C801CB
:102E00000E94070CD8015096ED91FC91C8010995DC
:102E1000DCCE8E7FF801828BF5CF816052968C9349
:102E200052976A817B811D967C936E931C976C0DE3
:102E30007D1D9601A601C8010E94DD0BC6CE81FD55
:102E400004C0C8010E941F14C0CE8E7FF801828B7F
:102E5000BCCE29853A85232B19F40F900FBE8DCE59
:102E6000811109C080910A028E838091080290919D
:102E7000090298878F830F900FBE0E940E0E0FB627
:102E8000F8940F92F801858D8F3F09F4158ED801C3
:102E90005E968C915E978F3F11F45E961C920F9018
:102EA0000FBEBE01675F7F4FCE0106960E941B0DCD
:102EB00081111BC0C8010E94140E882381F069850E
:102EC0007A85C4010E94F30DC8010E941F0E0E9462
:102ED000510F811102C00E94910E81E081CEC80184
:102EE0000E941F0E0E94510FF8CFC8010E941F0EB2
:102EF0000E94510FC8010E94140E882371F33DCE29
:102F00000F920FB6F8940F921F9211242F923F92B6
:102F10004F925F926F927F928F929F92AF92BF92E9
:102F2000CF92DF92EF92FF920F931F932F933F93D5
:102F30004F935F936F937F938F939F93AF93BF93C1
:102F4000CF93DF93EF93FF93A0910202B09103021E
:102F50000DB60D920EB60D9213BE8091A701811190
:102F6000F9C080910802909109020196909309029C
:102F700080930802009781F52091D0013091D10112
:102F80004091CE015091CF015093D1014093D00197
:102F90003093CF012093CE0120910A022F5F20931E
:102FA0000A02E091D001F091D1012081211107C0E6
:102FB0002FEF3FEF3093C8012093C7010DC0E09180
:102FC000D001F091D1010580F681E02D2081318181
:102FD0003093C8012093C7012091C7013091C801E7
:102FE0008217930710F420E0A1C020E039E0D32E2F
:102FF000E091D001F091D1013081311107C08FEF04
:103000009FEF9093C8018093C70190C0E091D001D9
:10301000F091D1010580F681E02D0680F781E02D49
:10302000428153818417950728F45093C801409337
:10303000C7017CC0A285B3854481558166817781B3
:10304000EA017D836C8366817781EB015B834A8330
:10305000AF014E5F5F4F11960D911C9112970417AF
:10306000150721F412967C936E931197138612869E
:103070003C9131503C93A489B5891097F9F066854D
:10308000778500891189EB011D830C8300891189E3
:10309000E8017B836A831196ED90FC901297BF0143
:1030A000645F7F4FE616F70621F412961C930E9389
:1030B0001197158A148A3C9131503C93A68930911E
:1030C0002F023A1710F4A0932F02DA9ED001112498
:1030D000A55FBD4F11960D90BC91A02DB583A48323
:1030E00014966D917C9115977783668314966D91F4
:1030F0007C911597EB015B834A8315965C934E9305
:10310000149746894D9DD0011124A55FBD4FB3870B
:10311000A2873C913F5F3C93E0910202F091030251
:103120003689341708F064CF21E062CFE0910202C3
:10313000F0910302E689D9E0ED9FF0011124E55FEB
:10314000FD4F8081823008F021E08091A60181113D
:103150000EC00AC08091A4019091A50101969093A0
:10316000A5018093A4016CC0222309F469C0809159
:10317000A701882321F081E08093A60161C010920D
:10318000A601A0910202B0910302E0910202F09127
:1031900003022D913C918789908D82179307A8F0A7
:1031A00080910202909103028091020290910302A9
:1031B000259A2D9A2FEF87EA91E621508040904082
:1031C000E1F700C000001D9AF5CF20912F0289E0A1
:1031D00001C02150422F50E0849FF001859FF00DE7
:1031E0001124E55FFD4F9081992399F3A181B2816C
:1031F00012966D917C9172836183289FC001112486
:10320000825F9D4F6817790721F4858196819283AB
:10321000818389E0849FF001859FF00D1124E55F93
:10322000FD4F0180F281E02D86819781909303020A
:103230008093020220932F02809102029091030258
:10324000A0910202B0910302CD91CDBFDD91DEBF0E
:10325000FF91EF91DF91CF91BF91AF919F918F91AE
:103260007F916F915F914F913F912F911F910F919E
:10327000FF90EF90DF90CF90BF90AF909F908F9096
:103280007F906F905F904F903F902F901F900F9086
:103290000FBE0F9008950E9480171895CF92DF926D
:1032A000EF92FF920F931F93CF93DF93EC018BE08C
:1032B00091E09983888384E08F83188A198A1A8A17
:1032C0001B8A1C8A1D8A1E8A1F8A188E198E1A8EC6
:1032D0001B8E1C8E1D8E1E8E1F8E18A219A21AA266
:1032E0001BA2C12CD12C80E8E82E8FE3F82ECCA2B3
:1032F000DDA2EEA2FFA21B821C821D821E8281E043
:1033000090E09DA78CA78FEF8FA718A619A61AA6E5
:103310001BA6688749872A870B871EA61CAA1DAA99
:103320001EAA1FAA18AE19AE1AAE1BAE1CAE1DAE59
:103330001EAE1FAE8E01005C1F4FF801C082D1820D
:10334000E282F3821A821C861D861E861F86CE01AB
:103350000E948402B701A601CE010E949408A70131
:1033600096016C8D7D8D8E8D9F8D0E94331D8823DF
:1033700009F1CC8EDD8EEE8EFF8E80E094E2A4E724
:10338000B9E4F80180839183A283B3838CA99DA9BA
:10339000AEA9BFA9181619061A061B065CF4CE01C1
:1033A000DF91CF911F910F91FF90EF90DF90CF9021
:1033B0000C945506DF91CF911F910F91FF90EF90E4
:1033C000DF90CF9008950F93E0E3F2E01382128232
:1033D00088EE93E0A0E0B0E084839583A683B78372
:1033E0008BE291E09183808385EC90E095878487E0
:1033F00084EC90E09787868780EC90E0918B808BBF
:1034000081EC90E0938B828B82EC90E0958B848BA7
:1034100086EC90E0978B868B118E128E138E148E15
:103420000DE02CE04BE06AE081E193E00E944E1950
:1034300005E024E043E062E08DEC92E00E944E194A
:103440000F910895CF93DF93CDB7DEB760970FB696
:10345000F894DEBF0FBECDBF789484B5826084BD82
:1034600084B5816084BD85B5826085BD85B5816088
:1034700085BD80916E00816080936E001092810006
:1034800080918100826080938100809181008160C1
:103490008093810080918000816080938000809182
:1034A000B10084608093B1008091B000816080930E
:1034B000B00080917A00846080937A0080917A00D5
:1034C000826080937A0080917A00816080937A0094
:1034D00080917A00806880937A001092C1002091D8
:1034E0000501309106018FEF98E0821B930B9093BA
:1034F0000201809301010E948606ACE7B1E0FE0163
:103500003196BF018D918193882321F081E0AC3801
:10351000B807C1F70BEA11E020E040EC50E080E38F
:1035200094E10E948114882309F490C0813009F04D
:103530008DC00FB6F8940F928091C5019091C6018D
:10354000892B51F58AEB91E00E94CF0B81EB91E042
:103550000E94CF0B8AEB91E09093B0018093AF0172
:1035600081EB91E09093AE018093AD0181E590E015
:103570000E9463148C01009759F04F96F8019183D3
:1035800080838AE0838F85E0848FC8010E94610E6A
:103590001093C6010093C5010F900FBE8091C50125
:1035A0009091C601892B09F451C003EC11E023E08E
:1035B0004CE550E061E871E08EEA95E10E948114EB
:1035C000813009F043C0F8942FEF3FEF3093C801EA
:1035D0002093C70180930002109209021092080202
:1035E000A89588E190EC0FB6F894A89580936000B8
:1035F0000FBE90936000A0910202B0910302CD91A2
:10360000CDBFDD91DEBFFF91EF91DF91CF91BF91F3
:10361000AF919F918F917F916F915F914F913F916A
:103620002F911F910F91FF90EF90DF90CF90BF905F
:10363000AF909F908F907F906F905F904F903F9052
:103640002F901F900F900FBE0F9008958091000152
:103650000E94860600E010E001151105E9F30E94C2
:103660007D01FACF0F931F93CF93DF9382309105A3
:1036700010F482E090E0E0915703F091580330E0BD
:1036800020E0B0E0A0E0309799F42115310509F46D
:103690004AC0281B390B24303105D8F58A819B811B
:1036A0006115710589F1FB0193838283FE0111C0CD
:1036B000408151810281138148175907E0F0481772
:1036C000590799F4109761F012960C93129713967C
:1036D0001C933296CF01DF91CF911F910F910895E6
:1036E0000093570310935803F4CF2115310551F07F
:1036F0004217530738F0A901DB019A01BD01DF0130
:10370000F801C1CFEF01F9CF90935803809357038D
:10371000CDCFFE01E20FF31F819391932250310927
:1037200039832883D7CF2091550330915603232B1B
:1037300041F420910301309104013093560320930A
:10374000550320910101309102012115310541F409
:103750002DB73EB74091050150910601241B350B52
:10376000E0915503F0915603E217F307A0F42E1BE6
:103770003F0B2817390778F0AC014E5F5F4F2417D5
:10378000350748F04E0F5F1F509356034093550383
:10379000819391939FCFF0E0E0E09CCFCF93DF93B4
:1037A0000097E9F0FC01329713821282A09157032F
:1037B000B0915803ED0130E020E01097A1F4208192
:1037C0003181820F931F20915503309156032817A2
:1037D000390709F061C0F0935603E0935503DF9178
:1037E000CF910895EA01CE17DF07E8F54A815B81A2
:1037F0009E0141155105B1F7E901FB83EA83499127
:103800005991C40FD51FEC17FD0761F48081918198
:103810000296840F951FE9019983888382819381A1
:103820009B838A83F0E0E0E012968D919C91139740
:103830000097B9F52D913C911197CD010296820F19
:10384000931F20915503309156032817390739F6F5
:10385000309751F51092580310925703B0935603C6
:10386000A0935503BCCFD383C28340815181840F81
:10387000951FC817D90761F44E5F5F4F8881998102
:10388000480F591F518340838A819B819383828390
:103890002115310509F0B0CFF0935803E093570399
:1038A0009ECFFD01DC01C0CF13821282D7CF97FBE0
:1038B000072E16F4009407D077FD09D00E94901CC3
:1038C00007FC05D03EF4909581959F4F0895709523
:1038D00061957F4F0895052E97FB1EF400940E947A
:1038E000821C57FD07D00E94A41C07FC03D04EF495
:1038F0000C94821C50954095309521953F4F4F4F29
:103900005F4F089590958095709561957F4F8F4F8B
:103910009F4F0895EE0FFF1F0590F491E02D09943D
:10392000AA1BBB1B51E107C0AA1FBB1FA617B707E5
:1039300010F0A61BB70B881F991F5A95A9F7809501
:103940009095BC01CD010895A1E21A2EAA1BBB1BC4
:10395000FD010DC0AA1FBB1FEE1FFF1FA217B3075B
:10396000E407F50720F0A21BB30BE40BF50B661F71
:10397000771F881F991F1A9469F760957095809535
:1039800090959B01AC01BD01CF0108955058BB2714
:10399000AA270E94DE1C0C94581E0E944A1E38F072
:1039A0000E94511E20F039F49F3F19F426F40C9424
:1039B000471E0EF4E095E7FB0C94411EE92F0E9490
:1039C000691E58F3BA17620773078407950720F03A
:1039D00079F4A6F50C948B1E0EF4E0950B2EBA2FFD
:1039E000A02D0B01B90190010C01CA01A001112405
:1039F000FF27591B99F0593F50F4503E68F11A16B1
:103A0000F040A22F232F342F4427585FF3CF469541
:103A100037952795A795F0405395C9F77EF41F1663
:103A2000BA0B620B730B840BBAF09150A1F0FF0F2D
:103A3000BB1F661F771F881FC2F70EC0BA0F621F19
:103A4000731F841F48F4879577956795B795F79509
:103A50009E3F08F0B0CF9395880F08F09927EE0F9E
:103A60009795879508950E941D1E08F481E008959A
:103A70000E944C1D0C94581E0E94511E58F00E942A
:103A80004A1E40F029F45F3F29F00C94411E511169
:103A90000C948C1E0C94471E0E94691E68F3992397
:103AA000B1F3552391F3951B550BBB27AA2762173A
:103AB0007307840738F09F5F5F4F220F331F441F47
:103AC000AA1FA9F335D00E2E3AF0E0E832D091507B
:103AD0005040E695001CCAF72BD0FE2F29D0660F68
:103AE000771F881FBB1F261737074807AB07B0E8AB
:103AF00009F0BB0B802DBF01FF2793585F4F3AF0B1
:103B00009E3F510578F00C94411E0C948C1E5F3F33
:103B1000E4F3983ED4F3869577956795B795F79536
:103B20009F5FC9F7880F911D9695879597F908951E
:103B3000E1E0660F771F881FBB1F621773078407BA
:103B4000BA0720F0621B730B840BBA0BEE1F88F7C9
:103B5000E09508950E94B11D6894B1110C948C1EDB
:103B600008950E94711E88F09F5798F0B92F9927E9
:103B7000B751B0F0E1F0660F771F881F991F1AF058
:103B8000BA95C9F714C0B13091F00E948B1EB1E014
:103B900008950C948B1E672F782F8827B85F39F013
:103BA000B93FCCF3869577956795B395D9F73EF4F1
:103BB00090958095709561957F4F8F4F9F4F089599
:103BC000E89409C097FB3EF49095809570956195B7
:103BD0007F4F8F4F9F4F9923A9F0F92F96E9BB276D
:103BE0009395F695879577956795B795F111F8CFE9
:103BF000FAF4BB0F11F460FF1BC06F5F7F4F8F4F54
:103C00009F4F16C0882311F096E911C0772321F049
:103C10009EE8872F762F05C0662371F096E8862FE1
:103C200070E060E02AF09A95660F771F881FDAF738
:103C3000880F9695879597F90895990F0008550F65
:103C4000AA0BE0E8FEEF16161706E807F907C0F022
:103C500012161306E407F50798F0621B730B840B2A
:103C6000950B39F40A2661F0232B242B252B21F404
:103C700008950A2609F4A140A6958FEF811D811DA4
:103C8000089597F99F6780E870E060E008959FEFDE
:103C900080EC089500240A941616170618060906E3
:103CA000089500240A9412161306140605060895B2
:103CB000092E0394000C11F4882352F0BB0F40F43A
:103CC000BF2B11F460FF04C06F5F7F4F8F4F9F4F7A
:103CD000089557FD9058440F551F59F05F3F71F0FC
:103CE0004795880F97FB991F61F09F3F79F0879563
:103CF0000895121613061406551FF2CF4695F1DFEC
:103D000008C0161617061806991FF1CF869571057B
:103D1000610508940895E894BB2766277727CB01AF
:103D200097F908950E941D1E08F48FEF08950E94D0
:103D3000AA1E0C94581E0E944A1E38F00E94511E62
:103D400020F0952311F00C94411E0C94471E112471
:103D50000C948C1E0E94691E70F3959FC1F3950F01
:103D600050E0551F629FF001729FBB27F00DB11DFF
:103D7000639FAA27F00DB11DAA1F649F6627B00D8F
:103D8000A11D661F829F2227B00DA11D621F739F78
:103D9000B00DA11D621F839FA00D611D221F749F86
:103DA0003327A00D611D231F849F600D211D822FCD
:103DB000762F6A2F11249F5750409AF0F1F08823F4
:103DC0004AF0EE0FFF1FBB1F661F771F881F915021
:103DD0005040A9F79E3F510580F00C94411E0C9471
:103DE0008C1E5F3FE4F3983ED4F3869577956795F4
:103DF000B795F795E7959F5FC1F7FE2B880F911D4B
:103E00009695879597F9089519F416F40C94471E22
:103E10000C944A1F0E94711EB8F39923C9F3B6F39C
:103E20009F57550B87FF0E94581F0024A0E640EAC9
:103E3000900180585695979528F4805C660F771FFF
:103E4000881F20F026173707480730F4621B730BD2
:103E5000840B202931294A2BA695179407942025F5
:103E600031254A2758F7660F771F881F20F026173D
:103E70003707480730F4620B730B840B200D311D9C
:103E8000411DA09581F7B901842F9158880F96950F
:103E9000879508959F3F31F0915020F4879577954D
:103EA0006795B795880F911D9695879597F9089511
:103EB00091505040660F771F881FD2F70895FB017D
:103EC000DC0102C001900D9241505040D8F7089596
:103ED000DC0101C06D9341505040E0F70895F89423
:023EE000FFCF12
:103EE2000300005903800000000000B8028402832E
:103EF200068406FC04190457040304D103B0037CAE
:103F0200035B030503D60200000000AC0109013681
:103F120001F9016701450159015265616450504D33
:103F2200005265616444697374616E636500436144
:103F32006C63756C617465436F6E74726F6C5369F8
:103F4200676E616C73004D6F746F725369676E6157
:103F52006C0046616E5369676E616C0049444C4562
:0A3F620000546D72205376630000D6
:00000001FF
