:100000000C9435000C945D000C945D000C945D0024
:100010000C945D000C945D000C945D000C945D00EC
:100020000C945D000C945D000C945D000C945D00DC
:100030000C945D000C945D000C945D000C945D00CC
:100040000C94E5010C945D000C9455020C942F0265
:100050000C945D000C945D000C945D000C945D00AC
:100060000C945D000C945D00920611241FBECFEF2E
:10007000D8E0DEBFCDBF11E0A0E0B1E0E4E7F1E100
:1000800002C005900D92AE35B107D9F722E0AEE57A
:10009000B1E001C01D92AE35B207E1F710E0C5E353
:1000A000D0E004C02197FE010E94E106C433D107CD
:1000B000C9F70E9487020C94B8080C940000AF9214
:1000C000BF92CF92DF92EF92FF920F931F93CF9345
:1000D000DF936C017B018B01040F151FEB015E01A7
:1000E000AE18BF08C017D10759F06991D601ED913C
:1000F000FC910190F081E02DC6010995892B79F7DB
:10010000C501DF91CF911F910F91FF90EF90DF908C
:10011000CF90BF90AF900895FC01538D448D252F53
:1001200030E0842F90E0821B930B541710F0CF9691
:10013000089501970895FC01918D828D981761F0C3
:10014000A28DAE0FBF2FB11D5D968C91928D9F5FDA
:100150009F73928F90E008958FEF9FEF0895FC01B9
:10016000918D828D981731F0828DE80FF11D858D6C
:1001700090E008958FEF9FEF0895FC01918D228DFF
:10018000892F90E0805C9F4F821B91098F73992784
:10019000089581EC91E00E94BD0021E0892B09F4D3
:1001A00020E0822F089580E090E0892B29F00E94C2
:1001B000C90081110C9400000895FC01A48DA80FC2
:1001C000B92FB11DA35ABF4F2C91848D90E0019699
:1001D0008F739927848FA689B7892C93A089B189B9
:1001E0008C91837080648C93938D848D981306C05A
:1001F0000288F389E02D80818F7D80830895EF92BE
:10020000FF920F931F93CF93DF93EC0181E0888FD0
:100210009B8D8C8D98131AC0E889F989808185FFA0
:1002200015C09FB7F894EE89FF896083E889F98942
:1002300080818370806480839FBF81E090E0DF9144
:10024000CF911F910F91FF90EF900895F62E0B8D97
:1002500010E00F5F1F4F0F731127E02E8C8D8E1152
:100260000CC00FB607FCFACFE889F989808185FFB9
:10027000F5CFCE010E94DD00F1CFEB8DEC0FFD2F0D
:10028000F11DE35AFF4FF0829FB7F8940B8FEA8974
:10029000FB8980818062CFCFCF93DF93EC01888D83
:1002A0008823B9F0AA89BB89E889F9898C9185FDF1
:1002B00003C0808186FD0DC00FB607FCF7CF8C917F
:1002C00085FFF2CF808185FFEDCFCE010E94DD005A
:1002D000E9CFDF91CF910895CF92DF92EF92FF9215
:1002E00020E030E040E052E40E9446086B017C01CF
:1002F00020E030E0A9010E94410820E030E040E029
:100300005FE387FD0CC0C701B6010E94E8060E94AA
:100310005907CB01FF90EF90DF90CF900895C70170
:10032000B6010E94E706F3CFFC0101900020E9F737
:100330003197AF01481B590BBC0181EC91E00C9443
:100340005F008F929F92AF92BF920F931F93CF93B4
:10035000DF93CDB7DEB7A1970FB6F894DEBF0FBE1F
:10036000CDBF19A2423008F44AE08E010F5D1F4F45
:10037000842E912CB12CA12CA50194010E94BF06C2
:10038000E62FB901CA01EA30F4F4E05DD801EE933A
:100390008D01232B242B252B79F790E080E01097FB
:1003A00019F0CD010E949401A1960FB6F894DEBF1A
:1003B0000FBECDBFDF91CF911F910F91BF90AF9036
:1003C0009F908F900895E95CE1CF1F920F920FB636
:1003D0000F9211242F933F938F939F93AF93BF93CB
:1003E0008091BD019091BE01A091BF01B091C0016B
:1003F0003091BC0123E0230F2D3758F50196A11D44
:10040000B11D2093BC018093BD019093BE01A093C8
:10041000BF01B093C0018091B8019091B901A09142
:10042000BA01B091BB010196A11DB11D8093B80125
:100430009093B901A093BA01B093BB01BF91AF9162
:100440009F918F913F912F910F900FBE0F901F9012
:10045000189526E8230F0296A11DB11DD2CF1F9239
:100460000F920FB60F9211242F933F934F935F93E8
:100470006F937F938F939F93AF93BF93EF93FF936C
:1004800081EC91E00E94DD00FF91EF91BF91AF916F
:100490009F918F917F916F915F914F913F912F919C
:1004A0000F900FBE0F901F9018951F920F920FB6CE
:1004B0000F9211242F938F939F93EF93FF93E091CB
:1004C000D101F091D2018081E091D701F091D80162
:1004D00082FD1BC090818091DA018F5F8F73209124
:1004E000DB01821741F0E091DA01F0E0EF53FE4FBB
:1004F000958F8093DA01FF91EF919F918F912F91CA
:100500000F900FBE0F901F9018958081F4CFCF935E
:10051000DF93CDB7DEB72E970FB6F894DEBF0FBED0
:10052000CDBF789484B5826084BD84B5816084BD7C
:1005300085B5826085BD85B5816085BD80916E0081
:10054000816080936E0010928100809181008260B2
:1005500080938100809181008160809381008091EF
:1005600080008160809380008091B10084608093DE
:10057000B1008091B00081608093B00080917A00DA
:10058000846080937A0080917A00826080937A0000
:1005900080917A00816080937A0080917A008068EF
:1005A00080937A001092C100E091D101F091D201C4
:1005B00082E08083E091CD01F091CE011082E09144
:1005C000CF01F091D0018FEC80831092D901E0919E
:1005D000D501F091D60186E08083E091D301F091BE
:1005E000D401808180618083E091D301F091D401B6
:1005F000808188608083E091D301F091D401808173
:1006000080688083E091D301F091D40180818F7D57
:1006100080830AE911E02EE531E03A87298782E0FC
:10062000282E81E0382E2901712C612CD8011396D7
:100630001C921E92129715961C921E921497179652
:100640001C921E92169719961C921E921897F101F1
:10065000C088D188E288F38820E030E040E05EE3A3
:10066000C701B6010E9446080E946C019C838B83DF
:10067000D8018D939C93F10184889588A688B788CA
:100680006114710409F421C320E030E040E85EEB1E
:1006900064857585868597850E9446080E946C0151
:1006A0002B813C81280F391F3A832983D8012D9350
:1006B0003C93B1E06B16710409F420C320E030E0F4
:1006C00040E05FE3F10160857185828593850E943A
:1006D00046080E946C0129813A81280F391F3A830C
:1006E0002983D8012D933C93B2E06B16710409F471
:1006F00005C320E030E040E85EEBF10164817581E4
:10070000868197810E9446080E946C0129813A8166
:10071000280F391F3A832983D8012D933C93B3E0E6
:100720006B16710409F4EAC220E030E040E05EE3B9
:10073000F10160817181828193810E9446080E944B
:100740006C0129813A81820F931FD8018D939C936C
:1007500020E030E040E05EE3C501B4010E944608BD
:100760000E946C019E838D8320E030E040E85EEBC8
:10077000C701B6010E9446080E946C019A838983D2
:10078000ED81FE81E80FF91FFE83ED8320E030E06C
:1007900040E05FE3D1011C966D917D918D919C911C
:1007A0001F970E9446080E946C01ED81FE81E80FB0
:1007B000F91FFE83ED83D8011396FC93EE931297F5
:1007C000B1E06B16710491F120E030E040E85EEB9F
:1007D000F10160857185828593850E9446080E949B
:1007E0006C012D813E81280F391F3E832D83D80156
:1007F00013963C932E931297B2E06B167104B1F0EE
:1008000020E030E040E05EE3F101648175818681A3
:1008100097810E9446080E946C01ED81FE81E80FDD
:10082000F91FD8011396FC93EE931297D1015896B5
:100830008D919D910D90BC91A02D8D839E83AF8352
:10084000B88720E030E040E05EE3BC01CD010E94CB
:1008500046080E946C01F8010480F581E02DE80F44
:10086000F91FFE87ED8720E030E040E85EEBC50130
:10087000B4010E9446080E946C019C878B872D85DD
:100880003E85280F391F3E872D8720E030E040E06D
:100890005FE3C701B6010E9446080E946C01AD8566
:1008A000BE85A80FB91FBE87AD87F801B583A483A5
:1008B00061147104A1F120E030E040E85EEBD10169
:1008C0001C966D917D918D919C911F970E94460879
:1008D0000E946C01ED85FE85E80FF91FFE87ED870C
:1008E000D8011596FC93EE931497B1E06B16710442
:1008F000B1F020E030E040E05EE3F1016085718519
:10090000828593850E9446080E946C012D853E8554
:10091000820F931FD80115969C938E931497F10123
:10092000C48CD58CE68CF78C20E030E040E05EE3B0
:10093000C701B6010E9446080E946C01D8011696B4
:100940000D90BC91A02DA80FB91FBE87AD8720E0E8
:1009500030E040E85EEB6D817E818F8198850E945A
:1009600046080E946C01ED85FE85E80FF91FFE87A1
:10097000ED8720E030E040E05FE3C501B4010E9474
:1009800046080E946C012D853E85280F391F8981FC
:100990009A81280F391F3A832983D80117963C93EF
:1009A0002E93169761147104B1F020E030E040E01E
:1009B0005EE3F10164857585868597850E9446080A
:1009C0000E946C0129813A81820F931FD8011796EA
:1009D0009C938E93169720E030E040E05EE3F101B7
:1009E00060A171A182A193A10E9446080E946C019E
:1009F000D80118960D90BC91A02DA80FB91FBA83ED
:100A0000A98320E030E040E85EEBC701B6010E9418
:100A100046080E946C01E981FA81E80FF91FFA8308
:100A2000E98320E030E040E05FE36D817E818F81EB
:100A300098850E9446080E946C0129813A81280FFE
:100A4000391F8B859C85280F391FAB81BC812A0FEC
:100A50003B1F3A832983F8013187208760817181A8
:100A6000072E000C880B990B0E94910720E030E0C4
:100A700040E05DE30E944608D2016D937D938D9323
:100A80009C931397F80162817381072E000C880BE9
:100A9000990B0E94910720E030E040E05DE30E9466
:100AA0004608D20114966D937D938D939C9317976E
:100AB000F80164817581072E000C880B990B0E9448
:100AC000910720E030E040E05DE30E944608D2015B
:100AD00018966D937D938D939C931B97F801668177
:100AE0007781072E000C880B990B0E94910720E05C
:100AF00030E040E05DE30E944608D2011C966D9311
:100B00007D938D939C931F97E981FA81BF01FF0F1D
:100B1000880B990B0E94910720E030E040E05DE3F4
:100B20000E944608D20150966D937D938D939C93BD
:100B30005397B5E06B0E711C065F1F4FE4E14E0E3C
:100B4000511CF4E12F0E311C2FE06216710409F0E4
:100B50006DCDA985BA85CD90DD90ED90FD90BA87D9
:100B6000A987A7019601C701B6010E94B30888238F
:100B7000D1F08EE491E00E9494018AE591E00E9418
:100B80009401EAE9F1E029853A85E217F30709F7CC
:100B900080E090E0892BE1F30E94C9008823C1F333
:100BA0000E940000F5CF46015701E894B7F82FEFF7
:100BB0003FEF4FE75FE7C501B4010E94B308811121
:100BC0000DC02FEF3FEF4FE75FE7C501B4010E9473
:100BD000540718161CF482E591E0CDCF2FEF3FEFBC
:100BE0004FE75FE4C701B6010E94410818161CF4E4
:100BF00086E591E0C0CF2FEF3FEF4FE75FECC701F5
:100C0000B6010E94540787FDF3CF20E030E0A90130
:100C1000C701B6010E94540787FF09C06DE281EC4D
:100C200091E00E94FF00F7FAF094F7F8F0942AE0C0
:100C300037ED43EA5BE3C701B6010E94E8064B01CA
:100C40005C010E9460076B017C010E948F079B0181
:100C5000AC01C501B4010E94E7064B015C014AE00A
:100C6000C701B6010E94A1016EE281EC91E00E94F1
:100C7000FF0020E030E040E251E4C501B4010E94F1
:100C800046084B015C010E9460076B01F12CE12CCE
:100C90004AE0C701B6010E94A101C701B6010E9446
:100CA0008F079B01AC01C501B4010E94E70620E05B
:100CB00030E040E251E40E9446080E94600790E064
:100CC00080E04AE00E94A10158CF20E030E040E0FF
:100CD0005EE3C501B4010E9446080E946C019E8338
:100CE0008D8320E030E040E85EEBC701B6010E9452
:100CF00046080E946C019A8389838FCD20E030E002
:100D000040E05EE3C501B4010E9446080E946C0108
:100D1000D80112960D90BC91A02DA80FB91FBE83CB
:100D2000AD8322CDE1ECF1E01382128288EE93E0F4
:100D3000A0E0B0E084839583A683B78384E091E04C
:100D40009183808385EC90E09587848784EC90E0A4
:100D50009787868780EC90E0918B808B81EC90E088
:100D6000938B828B82EC90E0958B848B86EC90E069
:100D7000978B868B118E128E138E148E0895A1E29E
:100D80001A2EAA1BBB1BFD010DC0AA1FBB1FEE1F05
:100D9000FF1FA217B307E407F50720F0A21BB30B50
:100DA000E40BF50B661F771F881F991F1A9469F7CC
:100DB00060957095809590959B01AC01BD01CF0128
:100DC0000895EE0FFF1F0590F491E02D09945058FF
:100DD000BB27AA270E94FF060C9407080E94F90768
:100DE00038F00E94000820F039F49F3F19F426F4EF
:100DF0000C94F6070EF4E095E7FB0C94F007E92F4E
:100E00000E94180858F3BA176207730784079507FA
:100E100020F079F4A6F50C943A080EF4E0950B2E28
:100E2000BA2FA02D0B01B90190010C01CA01A0013C
:100E30001124FF27591B99F0593F50F4503E68F197
:100E40001A16F040A22F232F342F4427585FF3CFD8
:100E5000469537952795A795F0405395C9F77EF4A9
:100E60001F16BA0B620B730B840BBAF09150A1F0F2
:100E7000FF0FBB1F661F771F881FC2F70EC0BA0F78
:100E8000621F731F841F48F4879577956795B79500
:100E9000F7959E3F08F0B0CF9395880F08F09927FB
:100EA000EE0F9795879508950E94CC0708F481E08E
:100EB00008950E9460076894B1110C943B0808954E
:100EC0000E94200888F09F5798F0B92F9927B751B2
:100ED000B0F0E1F0660F771F881F991F1AF0BA95DE
:100EE000C9F714C0B13091F00E943A08B1E00895FA
:100EF0000C943A08672F782F8827B85F39F0B93FEC
:100F0000CCF3869577956795B395D9F73EF4909590
:100F10008095709561957F4F8F4F9F4F0895E8940E
:100F200009C097FB3EF490958095709561957F4F31
:100F30008F4F9F4F9923A9F0F92F96E9BB279395DF
:100F4000F695879577956795B795F111F8CFFAF4EF
:100F5000BB0F11F460FF1BC06F5F7F4F8F4F9F4F20
:100F600016C0882311F096E911C0772321F09EE87E
:100F7000872F762F05C0662371F096E8862F70E0E4
:100F800060E02AF09A95660F771F881FDAF7880FBE
:100F90009695879597F90895990F0008550FAA0B14
:100FA000E0E8FEEF16161706E807F907C0F012167C
:100FB0001306E407F50798F0621B730B840B950B7F
:100FC00039F40A2661F0232B242B252B21F40895D4
:100FD0000A2609F4A140A6958FEF811D811D089571
:100FE00097F99F6780E870E060E008959FEF80ECDC
:100FF000089500240A94161617061806090608957F
:1010000000240A9412161306140605060895092EE4
:101010000394000C11F4882352F0BB0F40F4BF2B53
:1010200011F460FF04C06F5F7F4F8F4F9F4F089593
:1010300057FD9058440F551F59F05F3F71F0479589
:10104000880F97FB991F61F09F3F79F0879508956E
:10105000121613061406551FF2CF4695F1DF08C08D
:10106000161617061806991FF1CF869571056105AA
:1010700008940895E894BB2766277727CB0197F952
:1010800008950E94CC0708F48FEF08950E94590834
:101090000C9407080E94F90738F00E94000820F01D
:1010A000952311F00C94F0070C94F60711240C947E
:1010B0003B080E94180870F3959FC1F3950F50E00C
:1010C000551F629FF001729FBB27F00DB11D639FFA
:1010D000AA27F00DB11DAA1F649F6627B00DA11DA0
:1010E000661F829F2227B00DA11D621F739FB00D46
:1010F000A11D621F839FA00D611D221F749F3327B6
:10110000A00D611D231F849F600D211D822F762F4E
:101110006A2F11249F5750409AF0F1F088234AF02B
:10112000EE0FFF1FBB1F661F771F881F9150504097
:10113000A9F79E3F510580F00C94F0070C943B08F2
:101140005F3FE4F3983ED4F3869577956795B7951E
:10115000F795E7959F5FC1F7FE2B880F911D969538
:10116000879597F908950E94CC07880B990B0895ED
:04117000F894FFCF21
:1011740000000000FF005F008C004C01BD009B00DC
:10118400AF000000004300000243000034430000AD
:101194000C430000F0420000DC420000D642000094
:1011A400CF420000CC420000B4420000A84200003C
:1011B4008C420000F0419A999A426666BF426E6181
:0E11C4006E00696E66006F7666000D0A000010
:00000001FF
