:100000000C9435000C945D000C945D000C945D0024
:100010000C945D000C945D000C945D000C945D00EC
:100020000C945D000C945D000C945D000C945D00DC
:100030000C945D000C945D000C945D000C945D00CC
:100040000C94C6010C945D000C9436020C941002C2
:100050000C945D000C945D000C945D000C945D00AC
:100060000C945D000C945D00490511241FBECFEF78
:10007000D8E0DEBFCDBF11E0A0E0B1E0E4E5FEE0F6
:1000800002C005900D92A237B107D9F722E0A2E78E
:10009000B1E001C01D92A633B207E1F710E0C5E35D
:1000A000D0E004C02197FE010E949805C433D10717
:1000B000C9F70E9468020C9428070C9400003FB70F
:1000C000F8948091950190919601A0919701B0913B
:1000D000980126B5A89B05C02F3F19F00196A11DD8
:1000E000B11D3FBFBA2FA92F982F8827BC01CD0182
:1000F000620F711D811D911D42E0660F771F881FE1
:10010000991F4A95D1F70895AF92BF92CF92DF928F
:10011000EF92FF920F931F93CF93DF936C017B01BC
:100120008B01040F151FEB015E01AE18BF08C0174D
:10013000D10759F06991D601ED91FC910190F081C0
:10014000E02DC6010995892B79F7C501DF91CF9183
:100150001F910F91FF90EF90DF90CF90BF90AF90E5
:100160000895FC01538D448D252F30E0842F90E0BD
:10017000821B930B541710F0CF96089501970895A2
:10018000FC01918D828D981761F0A28DAE0FBF2F6B
:10019000B11D5D968C91928D9F5F9F73928F90E0C1
:1001A00008958FEF9FEF0895FC01918D828D981730
:1001B00031F0828DE80FF11D858D90E008958FEF6D
:1001C0009FEF0895FC01918D228D892F90E0805C36
:1001D0009F4F821B91098F739927089589E991E0B8
:1001E0000E94E20021E0892B09F420E0822F08958B
:1001F00080E090E0892B29F00E94EE0081110C94A0
:1002000000000895FC01A48DA80FB92FB11DA35AB9
:10021000BF4F2C91848D90E001968F739927848F26
:10022000A689B7892C93A089B1898C918370806449
:100230008C93938D848D981306C00288F389E02DEA
:1002400080818F7D80830895EF92FF920F931F939B
:10025000CF93DF93EC0181E0888F9B8D8C8D981379
:100260001AC0E889F989808185FF15C09FB7F89485
:10027000EE89FF896083E889F989808183708064D1
:1002800080839FBF81E090E0DF91CF911F910F911C
:10029000FF90EF900895F62E0B8D10E00F5F1F4F2B
:1002A0000F731127E02E8C8D8E110CC00FB607FC3A
:1002B000FACFE889F989808185FFF5CFCE010E94C8
:1002C0000201F1CFEB8DEC0FFD2FF11DE35AFF4F33
:1002D000F0829FB7F8940B8FEA89FB898081806256
:1002E000CFCFCF93DF93EC01888D8823B9F0AA8913
:1002F000BB89E889F9898C9185FD03C0808186FDE1
:100300000DC00FB607FCF7CF8C9185FFF2CF80812F
:1003100085FFEDCFCE010E940201E9CFDF91CF91A1
:100320000895CF92DF92EF92FF9220E030E040E01C
:1003300052E40E9497066B017C0120E030E0A901A5
:100340000E94920620E030E040E05FE387FD0CC0B1
:10035000C701B6010E949F050E940B06CB01FF90CA
:10036000EF90DF90CF900895C701B6010E949E05DF
:10037000F3CFFC0101900020E9F73197AF01481B52
:10038000590BBC0189E991E00C9484001F920F92F3
:100390000FB60F9211242F933F938F939F93AF9398
:1003A000BF938091910190919201A0919301B0919E
:1003B00094013091900123E0230F2D3758F50196D9
:1003C000A11DB11D20939001809391019093920102
:1003D000A0939301B093940180919501909196011F
:1003E000A0919701B09198010196A11DB11D809334
:1003F000950190939601A0939701B0939801BF91B6
:10040000AF919F918F913F912F910F900FBE0F90C1
:100410001F90189526E8230F0296A11DB11DD2CF7B
:100420001F920F920FB60F9211242F933F934F9369
:100430005F936F937F938F939F93AF93BF93EF934C
:10044000FF9389E991E00E940201FF91EF91BF9132
:10045000AF919F918F917F916F915F914F913F915C
:100460002F910F900FBE0F901F9018951F920F9213
:100470000FB60F9211242F938F939F93EF93FF93B7
:10048000E091A901F091AA018081E091AF01F09182
:10049000B00182FD1BC090818091B2018F5F8F738C
:1004A0002091B301821741F0E091B201F0E0E756EC
:1004B000FE4F958F8093B201FF91EF919F918F91A5
:1004C0002F910F900FBE0F901F9018958081F4CF41
:1004D000CF93DF93CDB7DEB7AF970FB6F894DEBFFB
:1004E0000FBECDBF789484B5826084BD84B5816031
:1004F00084BD85B5826085BD85B5816085BD8091EF
:100500006E00816080936E00109281008091810066
:10051000826080938100809181008160809381005E
:10052000809180008160809380008091B100846020
:100530008093B1008091B00081608093B000809181
:100540007A00846080937A0080917A008260809340
:100550007A0080917A00816080937A0080917A009D
:10056000806880937A001092C100E091A901F09117
:10057000AA0182E08083E091A501F091A60110829A
:10058000E091A701F091A8018FEC80831092B10156
:10059000E091AD01F091AE0186E08083E091AB0186
:1005A000F091AC01808180618083E091AB01F0919A
:1005B000AC01808188608083E091AB01F091AC0157
:1005C000808180688083E091AB01F091AC018081F3
:1005D0008F7D80830E945F006CA77DA78EA79FA759
:1005E00092E7292E91E0392E22E0422E21E0522E70
:1005F000712C612CD10113961C921E9212971596A4
:100600001C921E92149717961C921E92169719967A
:100610001C921E921897F201C088D188E288F38854
:1006200020E030E040E05EE3C701B6010E9497069B
:100630000E9491019DA38CA3D1018D939C93F20103
:1006400084889588A688B7886114710409F4F3C179
:1006500020E030E040E85EEB64857585868597850F
:100660000E9497060E9491010CA11DA1080F191F5D
:10067000D1010D931C93B1E06B16710409F4F8C11C
:1006800020E030E040E05FE3F20160857185828523
:1006900093850E9497060E949101080F191FD101AE
:1006A0000D931C93B2E06B16710409F4E1C120E0D4
:1006B00030E040E85EEBF2016481758186819781CC
:1006C0000E9497060E949101080F191FD1010D93F6
:1006D0001C93B3E06B16710409F4CAC120E030E04A
:1006E00040E05EE3F20160817181828193810E942A
:1006F00097060E949101800F911FD1018D939C93C9
:1007000020E030E040E05EE3C501B4010E949706BE
:100710000E9491018C0120E030E040E85EEBC701CF
:10072000B6010E9497060E9491019BA38AA3080F1D
:10073000191F20E030E040E05FE3F2016485758539
:10074000868597850E9497060E949101080F191FC0
:10075000D10113961C930E931297B1E06B1671049E
:1007600061F120E030E040E85EEBF20160857185E8
:10077000828593850E9497060E949101080F191F98
:10078000D10113961C930E931297B2E06B1671046D
:10079000A1F020E030E040E05EE3F2016481758189
:1007A000868197810E9497060E949101080F191F68
:1007B000D10113961C930E931297D20158968D91E6
:1007C0009D910D90BC91A02D8EA39FA3A8A7B9A722
:1007D00020E030E040E05EE3BC01CD010E949706DE
:1007E0000E949101F10104811581080F191F20E079
:1007F00030E040E85EEBC501B4010E9497060E941C
:1008000091019BA78AA7080F191F20E030E040E064
:100810005FE3C701B6010E9497060E949101080F8D
:10082000191FD10115961C930E931497611471042E
:1008300061F120E030E040E85EEBF201648575850F
:10084000868597850E9497060E949101080F191FBF
:10085000D10115961C930E931497B1E06B16710499
:10086000A1F020E030E040E05EE3F20160857185B8
:10087000828593850E9497060E949101800F911FA7
:10088000D10115969C938E931497F201C48CD58C4C
:10089000E68CF78C20E030E040E05EE3C701B60173
:1008A0000E9497060E949101D10116960D911C910C
:1008B000080F191F20E030E040E85EEB6EA17FA139
:1008C00088A599A50E9497060E949101080F191FFB
:1008D00020E030E040E05FE3C501B4010E949706EC
:1008E0000E949101080F191FEAA1FBA10E0F1F1F03
:1008F000D10117961C930E93169761147104A1F001
:1009000020E030E040E05EE3F20164857585868595
:1009100097850E9497060E949101800F911FD10137
:1009200017969C938E93169720E030E040E05EE3AC
:10093000F20160A171A182A193A10E9497060E9479
:100940009101D10118960D911C91080F191F20E0FB
:1009500030E040E85EEBC701B6010E9497060E94B6
:100960009101080F191F20E030E040E05FE36EA125
:100970007FA188A599A50E9497060E949101080F62
:10098000191FEAA5FBA50E0F1F1F8CA19DA1080F23
:10099000191FD10119961C930E931897B5E06B0E91
:1009A000711CEAE02E0E311CF4E14F0E511C8FE059
:1009B0006816710409F01ECE0E945F006B017C0175
:1009C0008EE491E00E94B901A70196018CA59DA536
:1009D000AEA5BFA5281B390B4A0B5B0B19A28E01D4
:1009E0000F5D1F4F8AE0C82ED12CE12CF12CCA01DB
:1009F000B901A70196010E947605605DD8016E934A
:100A00008D01211531054105510589F7109719F020
:100A1000CD010E94B9018EE691E00E94B90100E08B
:100A200010E001151105E9F30E94EE008823C9F3D7
:100A30000E940000F6CF20E030E040E05EE3C50118
:100A4000B4010E9497060E9491018C0120E030E0E1
:100A500040E85EEBC701B6010E9497060E94910133
:100A60009BA38AA3080F191FF10113830283A5CE4C
:100A700020E030E040E05EE3C501B4010E9497064B
:100A80000E949101D10112960D911C91080F191F1E
:100A900042CEE9E9F1E01382128288EE93E0A0E011
:100AA000B0E084839583A683B78384E091E091834B
:100AB000808385EC90E09587848784EC90E097872D
:100AC000868780EC90E0918B808B81EC90E0938B1B
:100AD000828B82EC90E0958B848B86EC90E0978BF8
:100AE000868B118E128E138E148E0895A1E21A2E0B
:100AF000AA1BBB1BFD010DC0AA1FBB1FEE1FFF1FC2
:100B0000A217B307E407F50720F0A21BB30BE40B11
:100B1000F50B661F771F881F991F1A9469F7609558
:100B20007095809590959B01AC01BD01CF01089512
:100B3000EE0FFF1F0590F491E02D09945058BB274C
:100B4000AA270E94B6050C9458060E944A0638F05F
:100B50000E94510620F039F49F3F19F426F40C94BA
:100B600047060EF4E095E7FB0C944106E92F0E943E
:100B7000690658F3BA17620773078407950720F0D0
:100B800079F4A6F50C948B060EF4E0950B2EBA2F93
:100B9000A02D0B01B90190010C01CA01A001112483
:100BA000FF27591B99F0593F50F4503E68F11A162F
:100BB000F040A22F232F342F4427585FF3CF4695C0
:100BC00037952795A795F0405395C9F77EF41F16E2
:100BD000BA0B620B730B840BBAF09150A1F0FF0FAC
:100BE000BB1F661F771F881FC2F70EC0BA0F621F98
:100BF000731F841F48F4879577956795B795F79588
:100C00009E3F08F0B0CF9395880F08F09927EE0F1C
:100C10009795879508950E9412066894B1110C94D7
:100C20008C0608950E94710688F09F5798F0B92F9E
:100C30009927B751B0F0E1F0660F771F881F991F11
:100C40001AF0BA95C9F714C0B13091F00E948B0622
:100C5000B1E008950C948B06672F782F8827B85F32
:100C600039F0B93FCCF3869577956795B395D9F769
:100C70003EF490958095709561957F4F8F4F9F4F73
:100C8000089597F99F6780E870E060E008959FEF0E
:100C900080EC089500240A94161617061806090613
:100CA000089500240A9412161306140605060895E2
:100CB000092E0394000C11F4882352F0BB0F40F46A
:100CC000BF2B11F460FF04C06F5F7F4F8F4F9F4FAA
:100CD000089557FD9058440F551F59F05F3F71F02C
:100CE0004795880F97FB991F61F09F3F79F0879593
:100CF0000895121613061406551FF2CF4695F1DF1C
:100D000008C0161617061806991FF1CF86957105AB
:100D1000610508940895E894BB2766277727CB01DF
:100D200097F908950E94040708F48FEF08950E9430
:100D3000AA060C9458060E944A0638F00E945106F2
:100D400020F0952311F00C9441060C9447061124D1
:100D50000C948C060E94690670F3959FC1F3950F61
:100D600050E0551F629FF001729FBB27F00DB11D2F
:100D7000639FAA27F00DB11DAA1F649F6627B00DBF
:100D8000A11D661F829F2227B00DA11D621F739FA8
:100D9000B00DA11D621F839FA00D611D221F749FB6
:100DA0003327A00D611D231F849F600D211D822FFD
:100DB000762F6A2F11249F5750409AF0F1F0882324
:100DC0004AF0EE0FFF1FBB1F661F771F881F915051
:100DD0005040A9F79E3F510580F00C9441060C94B9
:100DE0008C065F3FE4F3983ED4F38695779567953C
:100DF000B795F795E7959F5FC1F7FE2B880F911D7B
:100E00009695879597F90895990F0008550FAA0BA5
:100E1000E0E8FEEF16161706E807F907C0F012160D
:100E20001306E407F50798F0621B730B840B950B10
:100E300039F40A2661F0232B242B252B21F4089565
:100E40000A2609F4A140A6958FEF811D811D089502
:040E5000F894FFCF44
:100E54000000000024018400B1007101E200C00020
:100E6400D4000000004300000243000034430000AB
:100E74000C430000F0420000DC420000D6420000B7
:100E8400CF420000CC420000B4420000A84200005F
:100E94008C420000F0419A999A426666BF424578B6
:100EA40065637574696F6E2074696D6520286D695A
:100EB40063726F7365636F6E6473293A20000D0A61
:020EC40000002C
:00000001FF
