:100000000C9435000C945D000C945D000C945D0024
:100010000C945D000C945D000C945D000C945D00EC
:100020000C945D000C945D000C945D000C945D00DC
:100030000C945D000C945D000C945D000C945D00CC
:100040000C949E010C945D000C940E020C94E8013B
:100050000C945D000C945D000C945D000C945D00AC
:100060000C945D000C945D003E0311241FBECFEF85
:10007000D8E0DEBFCDBF11E0A0E0B1E0E0E8F9E0FC
:1000800002C005900D92A638B107D9F722E0A6E884
:10009000B1E001C01D92A836B207E1F710E0C5E358
:1000A000D0E004C02197FE010E948D03C433D10724
:1000B000C9F70E9440020C94BE040C9400003FB7A4
:1000C000F8948091C7019091C801A091C901B091A5
:1000D000CA0126B5A89B05C02F3F19F00196A11DA6
:1000E000B11D3FBFBA2FA92F982F8827BC01CD0182
:1000F000620F711D811D911D42E0660F771F881FE1
:10010000991F4A95D1F70895AF92BF92CF92DF928F
:10011000EF92FF920F931F93CF93DF936C017B01BC
:100120008B01040F151FEB015E01AE18BF08C0174D
:10013000D10759F06991D601ED91FC910190F081C0
:10014000E02DC6010995892B79F7C501DF91CF9183
:100150001F910F91FF90EF90DF90CF90BF90AF90E5
:100160000895FC01538D448D252F30E0842F90E0BD
:10017000821B930B541710F0CF96089501970895A2
:10018000FC01918D828D981761F0A28DAE0FBF2F6B
:10019000B11D5D968C91928D9F5F9F73928F90E0C1
:1001A00008958FEF9FEF0895FC01918D828D981730
:1001B00031F0828DE80FF11D858D90E008958FEF6D
:1001C0009FEF0895FC01918D228D892F90E0805C36
:1001D0009F4F821B91098F73992708958BEC91E0B3
:1001E0000E94E20021E0892B09F420E0822F08958B
:1001F00080E090E0892B29F00E94EE0081110C94A0
:1002000000000895FC01A48DA80FB92FB11DA35AB9
:10021000BF4F2C91848D90E001968F739927848F26
:10022000A689B7892C93A089B1898C918370806449
:100230008C93938D848D981306C00288F389E02DEA
:1002400080818F7D80830895EF92FF920F931F939B
:10025000CF93DF93EC0181E0888F9B8D8C8D981379
:100260001AC0E889F989808185FF15C09FB7F89485
:10027000EE89FF896083E889F989808183708064D1
:1002800080839FBF81E090E0DF91CF911F910F911C
:10029000FF90EF900895F62E0B8D10E00F5F1F4F2B
:1002A0000F731127E02E8C8D8E110CC00FB607FC3A
:1002B000FACFE889F989808185FFF5CFCE010E94C8
:1002C0000201F1CFEB8DEC0FFD2FF11DE35AFF4F33
:1002D000F0829FB7F8940B8FEA89FB898081806256
:1002E000CFCFCF93DF93EC01888D8823B9F0AA8913
:1002F000BB89E889F9898C9185FD03C0808186FDE1
:100300000DC00FB607FCF7CF8C9185FFF2CF80812F
:1003100085FFEDCFCE010E940201E9CFDF91CF91A1
:100320000895FC0101900020E9F73197AF01481BC7
:10033000590BBC018BEC91E00C9484001F920F923E
:100340000FB60F9211242F933F938F939F93AF93E8
:10035000BF938091C3019091C401A091C501B09158
:10036000C6013091C20123E0230F2D3758F50196C5
:10037000A11DB11D2093C2018093C3019093C401BC
:10038000A093C501B093C6018091C7019091C801A7
:10039000A091C901B091CA010196A11DB11D809320
:1003A000C7019093C801A093C901B093CA01BF913E
:1003B000AF919F918F913F912F910F900FBE0F9012
:1003C0001F90189526E8230F0296A11DB11DD2CFCC
:1003D0001F920F920FB60F9211242F933F934F93BA
:1003E0005F936F937F938F939F93AF93BF93EF939D
:1003F000FF938BEC91E00E940201FF91EF91BF917E
:10040000AF919F918F917F916F915F914F913F91AC
:100410002F910F900FBE0F901F9018951F920F9263
:100420000FB60F9211242F938F939F93EF93FF9307
:10043000E091DB01F091DC018081E091E101F0913C
:10044000E20182FD1BC090818091E4018F5F8F7378
:100450002091E501821741F0E091E401F0E0E553DD
:10046000FE4F958F8093E401FF91EF919F918F91C3
:100470002F910F900FBE0F901F9018958081F4CF91
:10048000CF93DF93CDB7DEB7A1970FB6F894DEBF59
:100490000FBECDBF789484B5826084BD84B5816081
:1004A00084BD85B5826085BD85B5816085BD80913F
:1004B0006E00816080936E001092810080918100B7
:1004C00082608093810080918100816080938100AF
:1004D000809180008160809380008091B100846071
:1004E0008093B1008091B00081608093B0008091D2
:1004F0007A00846080937A0080917A008260809391
:100500007A0080917A00816080937A0080917A00ED
:10051000806880937A001092C100E091DB01F09135
:10052000DC0182E08083E091D701F091D801108254
:10053000E091D901F091DA018FEC80831092E30110
:10054000E091DF01F091E00186E08083E091DD0140
:10055000F091DE01808180618083E091DD01F09186
:10056000DE01808188608083E091DD01F091DE0111
:10057000808180688083E091DD01F091DE018081DF
:100580008F7D80830E945F002B013C0126E8A22E14
:1005900021E0B22E10E000E0F501119211921192CB
:1005A00011925F019EE4892E91E0992EC8018A5E26
:1005B0009E4F1C01C12CD12C7601F40161917191E7
:1005C000819191914F01F101529142913291229189
:1005D0001F010E9451049B01AC01C701B6010E949A
:1005E00094036B017C01F2E68F16F1E09F0629F778
:1005F000F5013497C082D182E282F3820C5F1F4FF3
:100600000C33110549F60E945F006B017C0182E604
:1006100091E00E949101A70196012419350946092C
:10062000570919A28E010F5D1F4F8AE0C82ED12CE9
:10063000E12CF12CCA01B901A70196010E946B03BC
:10064000605DF80162938F01211531054105510567
:1006500089F7309719F0CF010E94910182E891E06B
:100660000E94910100E010E001151105E9F30E94DC
:10067000EE008823C9F30E940000F6CFEBECF1E016
:100680001382128288EE93E0A0E0B0E08483958329
:10069000A683B78384E091E09183808385EC90E02A
:1006A0009587848784EC90E09787868780EC90E03C
:1006B000918B808B81EC90E0938B828B82EC90E02D
:1006C000958B848B86EC90E0978B868B118E128EA7
:1006D000138E148E0895A1E21A2EAA1BBB1BFD01D6
:1006E0000DC0AA1FBB1FEE1FFF1FA217B307E40711
:1006F000F50720F0A21BB30BE40BF50B661F771F69
:10070000881F991F1A9469F7609570958095909548
:100710009B01AC01BD01CF010895EE0FFF1F0590B5
:10072000F491E02D09945058BB27AA270E94AB03EF
:100730000C9417040E94090438F00E94100420F061
:1007400039F49F3F19F426F40C9406040EF4E09556
:10075000E7FB0C940004E92F0E94280458F3BA1711
:10076000620773078407950720F079F4A6F50C94C7
:100770004A040EF4E0950B2EBA2FA02D0B01B901FF
:1007800090010C01CA01A0011124FF27591B99F007
:10079000593F50F4503E68F11A16F040A22F232F13
:1007A000342F4427585FF3CF469537952795A79563
:1007B000F0405395C9F77EF41F16BA0B620B730B0A
:1007C000840BBAF09150A1F0FF0FBB1F661F771F7B
:1007D000881FC2F70EC0BA0F621F731F841F48F430
:1007E000879577956795B795F7959E3F08F0B0CFB9
:1007F0009395880F08F09927EE0F979587950895A0
:1008000097F99F6780E870E060E008959FEF80ECC3
:10081000089500240A941616170618060906089566
:1008200000240A9412161306140605060895092ECC
:100830000394000C11F4882352F0BB0F40F4BF2B3B
:1008400011F460FF04C06F5F7F4F8F4F9F4F08957B
:1008500057FD9058440F551F59F05F3F71F0479571
:10086000880F97FB991F61F09F3F79F08795089556
:10087000121613061406551FF2CF4695F1DF08C075
:10088000161617061806991FF1CF86957105610592
:1008900008940895E894BB2766277727CB0197F93A
:1008A00008950E9464040C9417040E94090438F00F
:1008B0000E94100420F0952311F00C9400040C9475
:1008C000060411240C944B040E94280470F3959F95
:1008D000C1F3950F50E0551F629FF001729FBB2737
:1008E000F00DB11D639FAA27F00DB11DAA1F649FD3
:1008F0006627B00DA11D661F829F2227B00DA11D86
:10090000621F739FB00DA11D621F839FA00D611D0B
:10091000221F749F3327A00D611D231F849F600D2C
:10092000211D822F762F6A2F11249F5750409AF055
:10093000F1F088234AF0EE0FFF1FBB1F661F771FE1
:10094000881F91505040A9F79E3F510580F00C94AC
:1009500000040C944B045F3FE4F3983ED4F3869577
:1009600077956795B795F795E7959F5FC1F7FE2B4C
:10097000880F911D9695879597F90895F894FFCF64
:100980000000000024018400B1007101E200C000F9
:10099000D400000000430000024300003443000084
:1009A0000C430000F0420000DC420000D642000090
:1009B000CF420000CC420000B4420000A842000038
:1009C0008C420000F0419A999A426666BF4200004C
:1009D000003E000080BE0000003F000080BE00001E
:1009E000003E457865637574696F6E2074696D6546
:1009F00020286D6963726F7365636F6E6473293A43
:060A000020000D0A0000B9
:00000001FF
