:100000000C9435000C945D000C945D000C945D0024
:100010000C945D000C945D000C945D000C945D00EC
:100020000C945D000C945D000C945D000C945D00DC
:100030000C945D000C945D000C945D000C945D00CC
:100040000C94BD010C945D000C942D020C940702DD
:100050000C945D000C945D000C945D000C945D00AC
:100060000C945D000C945D00FF0311241FBECFEFC4
:10007000D8E0DEBFCDBF11E0A0E0B1E0EEE4FCE0EF
:1000800002C005900D92A237B107D9F722E0A2E78E
:10009000B1E001C01D92A435B207E1F710E0C5E35D
:1000A000D0E004C02197FE010E944E04C433D10762
:1000B000C9F70E945F020C9425060C940000AF92D1
:1000C000BF92CF92DF92EF92FF920F931F93CF9345
:1000D000DF936C017B018B01040F151FEB015E01A7
:1000E000AE18BF08C017D10759F06991D601ED913C
:1000F000FC910190F081E02DC6010995892B79F7DB
:10010000C501DF91CF911F910F91FF90EF90DF908C
:10011000CF90BF90AF900895FC01538D448D252F53
:1001200030E0842F90E0821B930B541710F0CF9691
:10013000089501970895FC01918D828D981761F0C3
:10014000A28DAE0FBF2FB11D5D968C91928D9F5FDA
:100150009F73928F90E008958FEF9FEF0895FC01B9
:10016000918D828D981731F0828DE80FF11D858D6C
:1001700090E008958FEF9FEF0895FC01918D228DFF
:10018000892F90E0805C9F4F821B91098F73992784
:10019000089587EB91E00E94BD0021E0892B09F4CE
:1001A00020E0822F089580E090E0892B29F00E94C2
:1001B000C90081110C9400000895FC01A48DA80FC2
:1001C000B92FB11DA35ABF4F2C91848D90E0019699
:1001D0008F739927848FA689B7892C93A089B189B9
:1001E0008C91837080648C93938D848D981306C05A
:1001F0000288F389E02D80818F7D80830895EF92BE
:10020000FF920F931F93CF93DF93EC0181E0888FD0
:100210009B8D8C8D98131AC0E889F989808185FFA0
:1002200015C09FB7F894EE89FF896083E889F98942
:1002300080818370806480839FBF81E090E0DF9144
:10024000CF911F910F91FF90EF900895F62E0B8D97
:1002500010E00F5F1F4F0F731127E02E8C8D8E1152
:100260000CC00FB607FCFACFE889F989808185FFB9
:10027000F5CFCE010E94DD00F1CFEB8DEC0FFD2F0D
:10028000F11DE35AFF4FF0829FB7F8940B8FEA8974
:10029000FB8980818062CFCFCF93DF93EC01888D83
:1002A0008823B9F0AA89BB89E889F9898C9185FDF1
:1002B00003C0808186FD0DC00FB607FCF7CF8C917F
:1002C00085FFF2CF808185FFEDCFCE010E94DD005A
:1002D000E9CFDF91CF910895FC0101900020E9F76B
:1002E0003197AF01481B590BBC0187EB91E00C948F
:1002F0005F008F929F92AF92BF920F931F93CF9305
:10030000DF93CDB7DEB7A1970FB6F894DEBF0FBE6F
:10031000CDBF19A2423008F44AE08E010F5D1F4F95
:10032000842E912CB12CA12CA50194010E942C04A7
:10033000E62FB901CA01EA30F4F4E05DD801EE938A
:100340008D01232B242B252B79F790E080E010974B
:1003500019F0CD010E946C01A1960FB6F894DEBF92
:100360000FBECDBFDF91CF911F910F91BF90AF9086
:100370009F908F900895E95CE1CF1F920F920FB686
:100380000F9211242F933F938F939F93AF93BF931B
:100390008091B3019091B401A091B501B091B601E3
:1003A0003091B20123E0230F2D3758F50196A11D9E
:1003B000B11D2093B2018093B3019093B401A09337
:1003C000B501B093B6018091AE019091AF01A091BB
:1003D000B001B091B1010196A11DB11D8093AE0194
:1003E0009093AF01A093B001B093B101BF91AF91D1
:1003F0009F918F913F912F910F900FBE0F901F9063
:10040000189526E8230F0296A11DB11DD2CF1F9289
:100410000F920FB60F9211242F933F934F935F9338
:100420006F937F938F939F93AF93BF93EF93FF93BC
:1004300087EB91E00E94DD00FF91EF91BF91AF91BA
:100440009F918F917F916F915F914F913F912F91EC
:100450000F900FBE0F901F9018951F920F920FB61E
:100460000F9211242F938F939F93EF93FF93E0911B
:10047000C701F091C8018081E091CD01F091CE01DA
:1004800082FD1BC090818091D0018F5F8F7320917E
:10049000D101821741F0E091D001F0E0E954FE4F24
:1004A000958F8093D001FF91EF919F918F912F9124
:1004B0000F900FBE0F901F9018958081F4CF789405
:1004C00084B5826084BD84B5816084BD85B5826059
:1004D00085BD85B5816085BD80916E00816080930A
:1004E0006E00109281008091810082608093810073
:1004F0008091810081608093810080918000816083
:10050000809380008091B10084608093B1008091DD
:10051000B00081608093B00080917A008460809305
:100520007A0080917A00826080937A0080917A00CC
:10053000816080937A0080917A00806880937A004D
:100540001092C100E091C701F091C80182E0808360
:10055000E091C301F091C4011082E091C501F091D6
:10056000C6018FEC80831092CF01E091CB01F09116
:10057000CC0186E08083E091C901F091CA018081BD
:1005800080618083E091C901F091CA018081886017
:100590008083E091C901F091CA01808180688083E5
:1005A000E091C901F091CA0180818F7D808322E7AB
:1005B000822E21E0922E32E1C32E31E0D32E14019F
:1005C000F12CE12C9EE4A92E91E0B92E10E000E080
:1005D000D0E0C0E0C701800F911F97FD2DC0F8014A
:1005E000EE0FFF1FEE0FFF1FEC0DFD1DD5012D912E
:1005F0003D914D915C9160817181828193810E94D6
:10060000B30520E030E040E052E40E94B3052B0146
:100610003C0120E030E0A9010E94AE0520E030E07E
:1006200040E05FE387FD54C0C301B2010E9455045E
:100630000E94C604C60FD71F01501109B4E0AB0ECB
:10064000B11C0B3FEFEF1E0729F6BE01DD0F880B33
:10065000990B0E94FE0420E030E040E05DE30E9440
:10066000B305D1016D937D938D939D931D01BFEFD4
:10067000EB1AFB0AE4E0CE0ED11CFFE0EF16F1040A
:1006800009F0A0CFD401CD90DD90ED90FD904D010B
:10069000A7019601C701B6010E9420068823E9F050
:1006A00082E691E00E946C018EE691E00E946C016E
:1006B000BEEA8B16B1E09B0629F7C0E0D0E0209798
:1006C000F1F30E94C9008823D1F30E940000F7CF04
:1006D000C301B2010E945404ABCF26013701E89454
:1006E00077F82FEF3FEF4FE75FE7C301B2010E94BA
:1006F000200681110DC02FEF3FEF4FE75FE7C301E9
:10070000B2010E94C10418161CF486E691E0CACF1B
:100710002FEF3FEF4FE75FE4C701B6010E94AE0540
:1007200018161CF48AE691E0BDCF2FEF3FEF4FE79C
:100730005FECC701B6010E94C10487FDF3CF20E042
:1007400030E0A901C701B6010E94C10487FF09C0BA
:100750006DE287EB91E00E94FF00F7FAF094F7F862
:10076000F0942AE037ED43EA5BE3C701B6010E944B
:1007700055042B013C010E94CD046B017C010E94B9
:10078000FC049B01AC01C301B2010E9454042B0183
:100790003C014AE0C701B6010E9479016EE287EB95
:1007A00091E00E94FF0020E030E040E251E4C3010C
:1007B000B2010E94B3052B013C010E94CD046B01E4
:1007C000F12CE12C4AE0C701B6010E947901C70172
:1007D000B6010E94FC049B01AC01C301B2010E945E
:1007E000540420E030E040E251E40E94B3050E944E
:1007F000CD0490E080E04AE00E94790155CFE7EB1C
:10080000F1E01382128288EE93E0A0E0B0E08483EE
:100810009583A683B78384E091E09183808385EC00
:1008200090E09587848784EC90E09787868780ECBA
:1008300090E0918B808B81EC90E0938B828B82ECAB
:1008400090E0958B848B86EC90E0978B868B118E55
:10085000128E138E148E0895A1E21A2EAA1BBB1BB2
:10086000FD010DC0AA1FBB1FEE1FFF1FA217B3077C
:10087000E407F50720F0A21BB30BE40BF50B661F92
:10088000771F881F991F1A9469F760957095809556
:1008900090959B01AC01BD01CF010895EE0FFF1FA4
:1008A0000590F491E02D09945058BB27AA270E9487
:1008B0006C040C9474050E94660538F00E946D0566
:1008C00020F039F49F3F19F426F40C9463050EF4DC
:1008D000E095E7FB0C945D05E92F0E94850558F330
:1008E000BA17620773078407950720F079F4A6F515
:1008F0000C94A7050EF4E0950B2EBA2FA02D0B013A
:10090000B90190010C01CA01A0011124FF27591B54
:1009100099F0593F50F4503E68F11A16F040A22F5A
:10092000232F342F4427585FF3CF469537952795CB
:10093000A795F0405395C9F77EF41F16BA0B620BCA
:10094000730B840BBAF09150A1F0FF0FBB1F661F11
:10095000771F881FC2F70EC0BA0F621F731F841F54
:1009600048F4879577956795B795F7959E3F08F07A
:10097000B0CF9395880F08F09927EE0F979587953C
:1009800008950E94390508F481E008950E94CD047D
:100990006894B1110C94A80508950E948D0588F003
:1009A0009F5798F0B92F9927B751B0F0E1F0660F33
:1009B000771F881F991F1AF0BA95C9F714C0B13074
:1009C00091F00E94A705B1E008950C94A705672F48
:1009D000782F8827B85F39F0B93FCCF386957795A3
:1009E0006795B395D9F73EF490958095709561958C
:1009F0007F4F8F4F9F4F0895E89409C097FB3EF4B7
:100A000090958095709561957F4F8F4F9F4F99235B
:100A1000A9F0F92F96E9BB279395F69587957795D9
:100A20006795B795F111F8CFFAF4BB0F11F460FF99
:100A30001BC06F5F7F4F8F4F9F4F16C0882311F0F1
:100A400096E911C0772321F09EE8872F762F05C005
:100A5000662371F096E8862F70E060E02AF09A95A0
:100A6000660F771F881FDAF7880F9695879597F995
:100A70000895990F0008550FAA0BE0E8FEEF16162F
:100A80001706E807F907C0F012161306E407F50782
:100A900098F0621B730B840B950B39F40A2661F0F6
:100AA000232B242B252B21F408950A2609F4A14099
:100AB000A6958FEF811D811D089597F99F6780E8A6
:100AC00070E060E008959FEF80EC089500240A94A0
:100AD0001616170618060906089500240A94121619
:100AE0001306140605060895092E0394000C11F44C
:100AF000882352F0BB0F40F4BF2B11F460FF04C0F9
:100B00006F5F7F4F8F4F9F4F089557FD9058440F51
:100B1000551F59F05F3F71F04795880F97FB991F5C
:100B200061F09F3F79F08795089512161306140619
:100B3000551FF2CF4695F1DF08C0161617061806A6
:100B4000991FF1CF86957105610508940895E89481
:100B5000BB2766277727CB0197F908950E943905AF
:100B600008F48FEF08950E94C6050C9474050E9446
:100B7000660538F00E946D0520F0952311F00C9465
:100B80005D050C94630511240C94A8050E9485054D
:100B900070F3959FC1F3950F50E0551F629FF001D0
:100BA000729FBB27F00DB11D639FAA27F00DB11DE9
:100BB000AA1F649F6627B00DA11D661F829F222772
:100BC000B00DA11D621F739FB00DA11D621F839FF9
:100BD000A00D611D221F749F3327A00D611D231FCF
:100BE000849F600D211D822F762F6A2F11249F571D
:100BF00050409AF0F1F088234AF0EE0FFF1FBB1F20
:100C0000661F771F881F91505040A9F79E3F5105DE
:100C100080F00C945D050C94A8055F3FE4F3983ECA
:100C2000D4F3869577956795B795F795E7959F5F88
:100C3000C1F7FE2B880F911D9695879597F908951A
:0E0C40000E943905880B990B0895F894FFCF98
:100C4E0000000000FF005F008C004C01BD009B0007
:100C5E00AF000000004300000243000034430000D8
:100C6E000C430000F0420000DC420000D6420000BF
:100C7E00CF420000CC420000B4420000A842000067
:100C8E008C420000F0419A999A426666BF4200007B
:100C9E00003E000080BE0000003F000080BE00004D
:100CAE00003E6E616E00696E66006F7666000D0A1C
:020CBE00000034
:00000001FF
