:100000000C9462000C948A000C948A000C948A0070
:100010000C948A000C948A000C948A000C948A0038
:100020000C948A000C948A000C948A000C948A0028
:100030000C948A000C948A000C948A000C948A0018
:100040000C944A020C948A000C94BA020C94940208
:100050000C948A000C948A000C948A000C948A00F8
:100060000C948A000C948A000000000024002700F1
:100070002A0000000000250028002B0000000000DE
:1000800023002600290004040404040404040202DA
:100090000202020203030303030301020408102007
:1000A0004080010204081020010204081020000012
:1000B0000008000201000003040700000000000027
:1000C0000000AA0511241FBECFEFD8E0DEBFCDBFD0
:1000D00011E0A0E0B1E0EAE3FDE002C005900D927E
:1000E000A231B107D9F721E0A2E1B1E001C01D9230
:1000F000A83EB207E1F710E0C2E6D0E004C02197C5
:10010000FE010E94D705C136D107C9F70E94EC0253
:100110000C949B060C940000833081F028F481300D
:1001200099F08230A9F008958730A9F08830C9F09D
:100130008430B1F4809180008F7D03C08091800075
:100140008F7780938000089584B58F7784BD08955C
:1001500084B58F7DFBCF8091B0008F778093B00006
:1001600008958091B0008F7DF9CFCF93DF93282F32
:1001700030E0F901E255FF4F8491F901E656FF4F57
:10018000D491F901EA57FF4FC491CC23A1F081111A
:100190000E948C00EC2FF0E0EE0FFF1FE458FF4FA1
:1001A000A591B491EC91ED2381E090E009F480E019
:1001B000DF91CF91089580E090E0FACF1F93CF9325
:1001C000DF93282F30E0F901E255FF4F8491F901C8
:1001D000E656FF4FD491F901EA57FF4FC491CC2363
:1001E000A9F0162F81110E948C00EC2FF0E0EE0F89
:1001F000FF1FEE58FF4FA591B4918FB7F894EC9183
:10020000111108C0D095DE23DC938FBFDF91CF9111
:100210001F910895DE2BF8CFCF93DF9390E0FC0180
:10022000E656FF4F24918A579F4FFC018491882303
:10023000D1F090E0880F991FFC01E859FF4FA5917C
:10024000B491FC01EE58FF4FC591D49161110EC0DD
:100250009FB7F8948C91E22FE0958E238C932881A0
:10026000E223E8839FBFDF91CF9108958FB7F89481
:10027000EC91E22BEC938FBFF6CFAF92BF92CF926F
:10028000DF92EF92FF920F931F93CF93DF936C0156
:100290007B018B01040F151FEB015E01AE18BF0837
:1002A000C017D10759F06991D601ED91FC910190E9
:1002B000F081E02DC6010995892B79F7C501DF9101
:1002C000CF911F910F91FF90EF90DF90CF90BF9053
:1002D000AF900895FC01538D448D252F30E0842F7D
:1002E00090E0821B930B541710F0CF96089501975E
:1002F0000895FC01918D828D981761F0A28DAE0F4B
:10030000BF2FB11D5D968C91928D9F5F9F73928FD1
:1003100090E008958FEF9FEF0895FC01918D828DFD
:10032000981731F0828DE80FF11D858D90E00895CA
:100330008FEF9FEF0895FC01918D228D892F90E022
:10034000805C9F4F821B91098F739927089582E1EA
:1003500091E00E949B0121E0892B09F420E0822F8B
:10036000089580E090E0892B29F00E94A701811177
:100370000C9400000895FC01A48DA80FB92FB11DA5
:10038000A35ABF4F2C91848D90E001968F739927CB
:10039000848FA689B7892C93A089B1898C918370A9
:1003A00080648C93938D848D981306C00288F389A2
:1003B000E02D80818F7D80830895EF92FF920F93CF
:1003C0001F93CF93DF93EC0181E0888F9B8D8C8D01
:1003D00098131AC0E889F989808185FF15C09FB7F5
:1003E000F894EE89FF896083E889F98980818370B8
:1003F000806480839FBF81E090E0DF91CF911F9167
:100400000F91FF90EF900895F62E0B8D10E00F5F87
:100410001F4F0F731127E02E8C8D8E110CC00FB65D
:1004200007FCFACFE889F989808185FFF5CFCE01F5
:100430000E94BB01F1CFEB8DEC0FFD2FF11DE35AB4
:10044000FF4FF0829FB7F8940B8FEA89FB89808178
:100450008062CFCFCF93DF93EC01888D8823B9F0F2
:10046000AA89BB89E889F9898C9185FD03C08081BF
:1004700086FD0DC00FB607FCF7CF8C9185FFF2CF3C
:10048000808185FFEDCFCE010E94BB01E9CFDF91D6
:10049000CF9108951F920F920FB60F9211242F93B0
:1004A0003F938F939F93AF93BF938091E40190917B
:1004B000E501A091E601B091E7013091E30123E06D
:1004C000230F2D3758F50196A11DB11D2093E3018F
:1004D0008093E4019093E501A093E601B093E701D6
:1004E0008091DF019091E001A091E101B091E201E2
:1004F0000196A11DB11D8093DF019093E001A093AF
:10050000E101B093E201BF91AF919F918F913F9133
:100510002F910F900FBE0F901F90189526E8230F74
:100520000296A11DB11DD2CF1F920F920FB60F924E
:1005300011242F933F934F935F936F937F938F93E8
:100540009F93AF93BF93EF93FF9382E191E00E945B
:10055000BB01FF91EF91BF91AF919F918F917F91DF
:100560006F915F914F913F912F910F900FBE0F9020
:100570001F9018951F920F920FB60F9211242F9370
:100580008F939F93EF93FF93E0912201F0912301CA
:100590008081E0912801F091290182FD1BC09081AA
:1005A00080912B018F5F8F7320912C01821741F076
:1005B000E0912B01F0E0EE5EFE4F958F80932B01D2
:1005C000FF91EF919F918F912F910F900FBE0F9000
:1005D0001F9018958081F4CFCF93DF93CDB7DEB70E
:1005E00060970FB6F894DEBF0FBECDBF789484B588
:1005F000826084BD84B5816084BD85B5826085BD1F
:1006000085B5816085BD80916E00816080936E00AC
:10061000109281008091810082608093810080919E
:10062000810081608093810080918000816080934F
:1006300080008091B10084608093B1008091B0000F
:1006400081608093B00080917A00846080937A000A
:1006500080917A00826080937A0080917A00816034
:1006600080937A0080917A00806880937A0010925B
:10067000C100E0912201F091230182E08083E091AA
:100680001E01F0911F011082E0912001F0912101E3
:1006900080E1808310922A01E0912601F0912701E8
:1006A00086E08083E0912401F091250180818061C2
:1006B0008083E0912401F09125018081886080830E
:1006C000E0912401F0912501808180688083E09190
:1006D0002401F091250180818F7D808360E08EE090
:1006E0000E940C0160E08FE00E940C0160E080E15C
:1006F0000E940C0160E081E10E940C0160E082E157
:100700000E940C0160E083E10E940C0161E082E044
:100710000E940C0161E083E00E940C0161E084E032
:100720000E940C0161E085E00E940C0161E086E01E
:100730000E940C0180E0282E80E0382E812C912C24
:1007400090E8A92E9FE3B92E8EE00E94B500BC016F
:10075000990F880B990B0E94130669837A838B8308
:100760009C836093C7017093C8018093C9019093E3
:10077000CA018FE00E94B500BC01990F880B990B4C
:100780000E9413066D837E838F8398876093D701C1
:100790007093D8018093D9019093DA0180E10E948F
:1007A000B500BC01990F880B990B0E9413066B01D1
:1007B0007C01C092CB01D092CC01E092CD01F092AD
:1007C000CE0181E10E94B500BC01990F880B990B05
:1007D0000E94130669877A878B879C876093DB0169
:1007E0007093DC018093DD019093DE0182E10E9431
:1007F000B500BC01990F880B990B0E9413066D87F9
:100800007E878F87988B6093D3017093D4018093F8
:10081000D5019093D60183E10E94B500BC01990FE8
:10082000880B990B0E9413062B013C014092CF01CB
:100830005092D0016092D1017092D2018091AF01AB
:1008400081117BC081E08093AF018092B3019092CF
:10085000B401A092B501B092B6011092B701109206
:10086000B8011092B9011092BA011092BB01109216
:10087000BC011092BD011092BE011092C3011092F2
:10088000C4011092C5011092C6011092BF011092CE
:10089000C0011092C1011092C20192E09093B00188
:1008A0006091B3017091B4018091B5019091B6014E
:1008B0000E94E20582E00E94DE006091C301709117
:1008C000C4018091C5019091C6010E94E20583E0B8
:1008D0000E94DE006091BF017091C0018091C10152
:1008E0009091C2010E94E20584E00E94DE006091C6
:1008F000B7017091B8018091B9019091BA010E943D
:10090000E20585E00E94DE006091BB017091BC01B0
:100910008091BD019091BE010E94E20586E00E9497
:10092000DE002114310409F40FCF0E94A7018823AF
:1009300009F40ACF0E94000007CF1091B00120E017
:1009400030E0A901113009F0B2C06D817E818F8144
:1009500098850E94DD05882381F18092B3019092F1
:10096000B401A092B501B092B6011092B7011092F5
:10097000B8011092B9011092BA011092BB01109205
:10098000BC011092BD011092BE011092C3011092E1
:10099000C4011092C5011092C6011092BF011092BD
:1009A000C0011092C1011092C2011092B2011092C6
:1009B000B101A2E0A093B00173CF8091B10120E01A
:1009C00030E0A9018130D9F5C701B6010E94DD05EB
:1009D000882399F08092C3019092C401A092C5012E
:1009E000B092C6011092BF011092C0011092C101D5
:1009F0001092C201B2E0B093B1018091B20120E047
:100A000030E0A9018130B1F5C301B2010E94DD05DA
:100A1000882309F445CF1092B7011092B8011092C3
:100A2000B9011092BA018092BB019092BC01A092D0
:100A3000BD01B092BE0182E08093B20131CF6985E1
:100A40007A858B859C850E94DD058823B1F2809292
:100A5000BF019092C001A092C101B092C201109258
:100A6000C3011092C4011092C5011092C6011093E7
:100A7000B101C3CF6D857E858F8598890E94DD0584
:100A8000882309F40DCF1092BB011092BC01109283
:100A9000BD011092BE018092B7019092B801A09260
:100AA000B901B092BA0191E09093B201F9CE698197
:100AB0007A818B819C810E94DD05882301F110924F
:100AC000B3011092B4011092B5011092B601A1E0E9
:100AD000A093B0018092BF019092C001A092C10189
:100AE000B092C201A093B1018092B7019092B80177
:100AF000A092B901B092BA01A093B201D1CE20E088
:100B000030E0A901C701B6010E94DD05882309F480
:100B1000C7CE1092B3011092B4011092B501109299
:100B2000B6018092C3019092C401A092C501B09217
:100B3000C601B1E0B093B00182E08093B101809230
:100B4000B7019092B801A092B901B092BA01B093E6
:100B5000B201A6CEE2E1F1E01382128288EE93E0C8
:100B6000A0E0B0E084839583A683B78384E091E01E
:100B70009183808385EC90E09587848784EC90E076
:100B80009787868780EC90E0918B808B81EC90E05A
:100B9000938B828B82EC90E0958B848B86EC90E03B
:100BA000978B868B118E128E138E148E0895EE0FF6
:100BB000FF1F0590F491E02D09940E944E0608F461
:100BC00081E008950E947A0688F09F5798F0B92F27
:100BD0009927B751B0F0E1F0660F771F881F991F72
:100BE0001AF0BA95C9F714C0B13091F00E9494067A
:100BF000B1E008950C949406672F782F8827B85F8A
:100C000039F0B93FCCF3869577956795B395D9F7C9
:100C10003EF490958095709561957F4F8F4F9F4FD3
:100C20000895E89409C097FB3EF4909580957095DF
:100C300061957F4F8F4F9F4F9923A9F0F92F96E928
:100C4000BB279395F695879577956795B795F1119D
:100C5000F8CFFAF4BB0F11F460FF1BC06F5F7F4F3A
:100C60008F4F9F4F16C0882311F096E911C077234C
:100C700021F09EE8872F762F05C0662371F096E855
:100C8000862F70E060E02AF09A95660F771F881F24
:100C9000DAF7880F9695879597F90895990F0008C8
:100CA000550FAA0BE0E8FEEF16161706E807F9073E
:100CB000C0F012161306E407F50798F0621B730BD9
:100CC000840B950B39F40A2661F0232B242B252B5A
:100CD00021F408950A2609F4A140A6958FEF811DFD
:100CE000811D089557FD9058440F551F59F05F3FDF
:100CF00071F04795880F97FB991F61F09F3F79F03E
:100D000087950895121613061406551FF2CF4695BF
:100D1000F1DF08C0161617061806991FF1CF869541
:100D20007105610508940895E894BB276627772725
:0A0D3000CB0197F90895F894FFCF66
:100D3A0000000000DD013D016A012A029B017901E0
:020D4A008D0119
:00000001FF
