:1000000034C0000057C0000055C0000053C00000BD
:1000100051C000004FC000004DC000004BC00000A8
:1000200049C0000047C0000045C0000043C00000B8
:1000300041C0000033C200003DC000003BC00000D2
:1000400048C4000037C00000F3C5000023C600000C
:1000500031C000002FC000002DC000002BC00000E8
:1000600029C0000027C000006F0611241FBECFEF7B
:10007000D8E0DEBFCDBF11E0A0E0B1E0E6EEFDE0EC
:1000800002C005900D92A233B107D9F722E0A2E396
:10009000B1E001C01D92A838B207E1F710E0C5E356
:1000A000D0E003C02197FE0196D6C433D107D1F723
:1000B00057D297C6A5CF8F929F92AF92BF92CF9201
:1000C000DF92EF92FF92CF93DF93C091C701D0915F
:1000D000C80180918402811115C081E0809384025F
:1000E00010927C0210927D0210927E0210927F028A
:1000F000109280021092810210928202109283026A
:1001000082E0A1C080918502823009F4A8C048F540
:10011000813009F447C020E030E040E752E46091CC
:1001200080027091810280918202909183026AD351
:1001300087FF80C020E030E040E85FE360917C0210
:1001400070917D0280917E0290917F0241D26093F6
:100150007C0270937D0280937E0290937F0285E003
:1001600072C0833009F4F6C08430A9F620E030E094
:1001700040EA50E460918002709181028091820295
:10018000909183023FD387FFABCF20E030E040E87F
:100190005FE360917C0270917D0280917E0290917C
:1001A0007F0217C0C0907C02D0907D02E0907E025A
:1001B000F0907F0220E030E040E752E4C701B60152
:1001C0006BD287FF10C020E030E040E85FE3C7015A
:1001D000B601FED160937C0270937D0280937E0213
:1001E00090937F0275C020910001309101014091F0
:1001F000020150910301688179818A819B814CD2EF
:1002000087FF24C06091040170910501809106016F
:100210009091070120E030E0A9013ED2882309F443
:1002200057C020E030E040E752E4C701B601EAD20F
:1002300087FD4EC010927C0210927D0210927E02C9
:1002400010927F0284E08093850242C06091080191
:100250007091090180910A0190910B01DBCFC09050
:100260008002D0908102E0908202F090830220E030
:1002700030E040E85FE360917C0270917D02809104
:100280007E0290917F02A4D14B015C0120E030E01E
:100290004CE552E4C701B601B5D280927C0290923F
:1002A0007D02A0927E02B0927F0287FD02C083E0B1
:1002B000CACF20E030E040E85FE3C701B60188D153
:1002C00060938002709381028093820290938302F4
:1002D0006091B9017091BA018091BB019091BC010C
:1002E0006F5F7F4F8F4F9F4F6093B9017093BA013B
:1002F0008093BB019093BC01D3D19B01AC01609171
:10030000BD017091BE018091BF019091C0017ED26C
:10031000688379838A839B838091C1019091C20114
:10032000A091C301B091C4010196A11DB11D80939C
:10033000C1019093C201A093C301B093C401DF91A6
:10034000CF91FF90EF90DF90CF90BF90AF909F90B4
:100350008F90089580907C0290907D02A0907E0204
:10036000B0907F0220E030E040E85FE3C501B401D7
:100370002FD16B017C0120E030E040E752E4C50161
:10038000B40140D2C0927C02D0927D02E0927E0203
:10039000F0927F0287FD9CCF81E055CF0F931F9392
:1003A000CF93DF93E2E3F1E085EC91E095838483E2
:1003B000C7ECD1E0D7AFC6AF0DEB11E0138B028BCA
:1003C000F0939B01E0939A01F383E28321E030E014
:1003D000DC012D933C931092B1011092B8018CE096
:1003E00091E09187808789EC91E09983888340E050
:1003F00050E060E87FE3F8014083518362837383B8
:10040000DF91CF911F910F910895089526E030E07C
:1004100040E855E260E070E090E080E000C01092BB
:10042000D2011092D10189309105E0F4865E9D4F92
:10043000FC01D1C423022C023302360239023C02F1
:100440003F024202480281E090E09093D201809303
:10045000D1018FED91E08CC382E090E09093D201C6
:100460008093D101089584E090E0F8CF88E090E097
:10047000F5CF80E190E0F2CF80E290E0EFCF80E432
:1004800090E0ECCF80E890E09093D2018093D1018E
:100490008091D1019091D2019160E0CF1F920F9293
:1004A0000FB60F9211242F933F934F935F936F9347
:1004B0007F938F939F93AF93BF93EF93FF9387EFB8
:1004C00092EC909385008093840032D0FF91EF915D
:1004D000BF91AF919F918F917F916F915F914F915C
:1004E0003F912F910F900FBE0F901F90189587EF9F
:1004F00092EC9093850080938400AFE6B0E08C91FD
:100500008E7F8C93E0E8F0E080818C7F8083E1E84F
:10051000F0E08081877E8083808185608083808118
:100520008D7F80838C9181608C93089581E0089504
:100530008091D30191E0980F9093D301882349F0E3
:1005400021E030E03093D5012093D4018093D30192
:1005500008957894B0DDF8948091D3018150F6CF5E
:10056000CF93DF931092870210928602FCD14EDF68
:10057000C0911E01D0911F01198218820FDFF894DB
:10058000B6DF81E028813981232B09F080E0809358
:1005900086027894789480918602811107C035DFB5
:1005A000F89490E080E0DF91CF91089581E0288178
:1005B0003981232B09F480E0809387029091870290
:1005C00081E0911180E080938602B0DFE4CF505843
:1005D000BB27AA270ED0DCC0CDD030F0D2D020F07F
:1005E00031F49F3F11F41EF4C2C00EF4E095E7FB16
:1005F000B8C0E92FDED080F3BA176207730784070B
:10060000950718F071F49EF5F6C00EF4E0950B2EE8
:10061000BA2FA02D0B01B90190010C01CA01A00154
:100620001124FF27591B99F0593F50F4503E68F1AF
:100630001A16F040A22F232F342F4427585FF3CFF0
:10064000469537952795A795F0405395C9F77EF4C1
:100650001F16BA0B620B730B840BBAF09150A1F00A
:10066000FF0FBB1F661F771F881FC2F70EC0BA0F90
:10067000621F731F841F48F4879577956795B79518
:10068000F7959E3F08F0B3CF9395880F08F0992710
:10069000EE0F97958795089540D008F481E008956E
:1006A000E89409C097FB3EF490958095709561950C
:1006B0007F4F8F4F9F4F9923A9F0F92F96E9BB27C2
:1006C0009395F695879577956795B795F111F8CF3E
:1006D000FAF4BB0F11F460FF1BC06F5F7F4F8F4FA9
:1006E0009F4F16C0882311F096E911C0772321F09F
:1006F0009EE8872F762F05C0662371F096E8862F37
:1007000070E060E02AF09A95660F771F881FDAF78D
:10071000880F9695879597F90895990F0008550FBA
:10072000AA0BE0E8FEEF16161706E807F907C0F077
:1007300012161306E407F50798F0621B730B840B7F
:10074000950B39F40A2661F0232B242B252B21F459
:1007500008950A2609F4A140A6958FEF811D811DF9
:10076000089597F99F6780E870E060E008959FEF33
:1007700080EC089500240A94161617061806090638
:10078000089500240A941216130614060506089507
:10079000092E0394000C11F4882352F0BB0F40F48F
:1007A000BF2B11F460FF04C06F5F7F4F8F4F9F4FCF
:1007B000089557FD9058440F551F59F05F3F71F051
:1007C0004795880F97FB991F61F09F3F79F08795B8
:1007D0000895121613061406551FF2CF4695F1DF41
:1007E00008C0161617061806991FF1CF86957105D1
:1007F000610508940895E894BB2766277727CB0105
:1008000097F908958ADF08F48FEF08950BD0C0CFD1
:10081000B1DF28F0B6DF18F0952309F0A2CFA7CFFB
:100820001124EACFC6DFA0F3959FD1F3950F50E0D6
:10083000551F629FF001729FBB27F00DB11D639F92
:10084000AA27F00DB11DAA1F649F6627B00DA11D38
:10085000661F829F2227B00DA11D621F739FB00DDE
:10086000A11D621F839FA00D611D221F749F33274E
:10087000A00D611D231F849F600D211D822F762FE7
:100880006A2F11249F5750408AF0E1F088234AF0E4
:10089000EE0FFF1FBB1F661F771F881F9150504030
:1008A000A9F79E3F510570F05CCFA6CF5F3FECF3F8
:1008B000983EDCF3869577956795B795F795E7951C
:1008C0009F5FC1F7FE2B880F911D9695879597F92D
:1008D00008951F920F920FB60F9211242F933F93FA
:1008E0008F939F93AF93BF938091D7019091D8013D
:1008F000A091D901B091DA013091D60123E0230F04
:100900002D3758F50196A11DB11D2093D601809376
:10091000D7019093D801A093D901B093DA018091C7
:10092000DB019091DC01A091DD01B091DE01019627
:10093000A11DB11D8093DB019093DC01A093DD012B
:10094000B093DE01BF91AF919F918F913F912F9115
:100950000F900FBE0F901F90189526E8230F029658
:10096000A11DB11DD2CF789484B5826084BD84B5B9
:10097000816084BD85B5826085BD85B5816085BD9A
:10098000EEE6F0E0808181608083E1E8F0E01082B3
:10099000808182608083808181608083E0E8F0E0F4
:1009A000808181608083E1EBF0E0808184608083DE
:1009B000E0EBF0E0808181608083EAE7F0E0808115
:1009C0008460808380818260808380818160808375
:1009D0008081806880831092C1000895FC01918D10
:1009E000228D892F90E0805C9F4F821B91098F732D
:1009F00099270895FC01918D828D981731F0828D91
:100A0000E80FF11D858D90E008958FEF9FEF089519
:100A1000FC01918D828D981761F0A28DAE0FBF2FD2
:100A2000B11D5D968C91928D9F5F9F73928F90E028
:100A300008958FEF9FEF0895FC01538D448D252F6E
:100A400030E0842F90E0821B930B541710F0CF9668
:100A5000089501970895FC01A48DA80FB92FB11D29
:100A6000A35ABF4F2C91848D90E001968F739927E4
:100A7000848FA689B7892C93A089B1898C918370C2
:100A800080648C93938D848D981306C00288F389BB
:100A9000E02D80818F7D80830895CF93DF93EC01DB
:100AA000888D8823B1F0AA89BB89E889F9898C915E
:100AB00085FD03C0808186FD0CC00FB607FCF7CF13
:100AC0008C9185FFF2CF808185FFEDCFCE01C3DF12
:100AD000EACFDF91CF910895EF92FF920F931F938A
:100AE000CF93DF93EC0181E0888F9B8D8C8D9813E1
:100AF0001AC0E889F989808185FF15C09FB7F894ED
:100B0000EE89FF896083E889F98980818370806438
:100B100080839FBF81E090E0DF91CF911F910F9183
:100B2000FF90EF900895F62E0B8D10E00F5F1F4F92
:100B30000F731127E02E8C8D8E110BC00FB607FCA2
:100B4000FACFE889F989808185FFF5CFCE0183DF6F
:100B5000F2CFEB8DEC0FFD2FF11DE35AFF4FF0822A
:100B60009FB7F8940B8FEA89FB8980818062D0CF90
:100B7000CF92DF92EF92FF921F93CF93DF93EC011E
:100B80006A017B01122FE889F98982E08083C11410
:100B900081EED806E104F10499F060E079E08DE39C
:100BA00090E0A7019601F5D0215031094109510982
:100BB0005695479537952795211580E1380790F090
:100BC000E889F989108260E874E88EE190E0A70175
:100BD0009601DFD0215031094109510956954795B9
:100BE00037952795EC85FD853083EE85FF8520833D
:100BF000188EEC89FD891083EA89FB8980818061E8
:100C00008083EA89FB89808188608083EA89FB8907
:100C1000808180688083EA89FB8980818F7D8083E1
:100C2000DF91CF911F91FF90EF90DF90CF900895CB
:100C30001F920F920FB60F9211242F938F939F93B1
:100C4000EF93FF93E091EF01F091F0018081E0914B
:100C5000F501F091F60182FD1BC090818091F801B1
:100C60008F5F8F732091F901821741F0E091F801B5
:100C7000F0E0E152FE4F958F8093F801FF91EF91E4
:100C80009F918F912F910F900FBE0F901F901895ED
:100C90008081F4CF1F920F920FB60F9211242F93E1
:100CA0003F934F935F936F937F938F939F93AF93F4
:100CB000BF93EF93FF938FED91E0CDDEFF91EF9126
:100CC000BF91AF919F918F917F916F915F914F9164
:100CD0003F912F910F900FBE0F901F901895EFED41
:100CE000F1E01382128288EE93E0A0E0B0E084830A
:100CF0009583A683B78384E291E09183808385EC1A
:100D000090E09587848784EC90E09787868780ECD5
:100D100090E0918B808B81EC90E0938B828B82ECC6
:100D200090E0958B848B86EC90E0978B868B118E70
:100D3000128E138E148E0895AF92BF92CF92DF92CF
:100D4000EF92FF920F931F93CF93DF936C017B0180
:100D50008B01040F151FEB015E01AE18BF08C01711
:100D6000D10759F06991D601ED91FC910190F08184
:100D7000E02DC6010995892B79F7C501DF91CF9147
:100D80001F910F91FF90EF90DF90CF90BF90AF90A9
:100D90000895A1E21A2EAA1BBB1BFD010DC0AA1FBC
:100DA000BB1FEE1FFF1FA217B307E407F50720F0D4
:100DB000A21BB30BE40BF50B661F771F881F991F4F
:100DC0001A9469F760957095809590959B01AC0198
:100DD000BD01CF010895EE0FFF1F0590F491E02DA6
:060DE0000994F894FFCF16
:100DE6000000803F000000000000803F46697865F3
:100DF6006453746570446973637265746500320187
:100E0600000000006C059C061C054D05EE04080557
:020E1600FA04DC
:00000001FF
