:100000000C9435000C945D000C945D000C945D0024
:100010000C945D000C945D000C945D000C945D00EC
:100020000C945D000C945D000C945D000C945D00DC
:100030000C945D000C945D000C945D000C945D00CC
:100040000C949E010C945D000C940E020C94E8013B
:100050000C945D000C945D000C945D000C945D00AC
:100060000C945D000C945D00770311241FBECFEF4C
:10007000D8E0DEBFCDBF11E0A0E0B1E0E2EFF9E0F3
:1000800002C005900D92A237B107D9F722E0A2E78E
:10009000B1E001C01D92A435B207E1F710E0C5E35D
:1000A000D0E004C02197FE010E94C603C433D107EB
:1000B000C9F70E9440020C94F7040C9400003FB76B
:1000C000F8948091B3019091B401A091B501B091E1
:1000D000B60126B5A89B05C02F3F19F00196A11DBA
:1000E000B11D3FBFBA2FA92F982F8827BC01CD0182
:1000F000620F711D811D911D42E0660F771F881FE1
:10010000991F4A95D1F70895AF92BF92CF92DF928F
:10011000EF92FF920F931F93CF93DF936C017B01BC
:100120008B01040F151FEB015E01AE18BF08C0174D
:10013000D10759F06991D601ED91FC910190F081C0
:10014000E02DC6010995892B79F7C501DF91CF9183
:100150001F910F91FF90EF90DF90CF90BF90AF90E5
:100160000895FC01538D448D252F30E0842F90E0BD
:10017000821B930B541710F0CF96089501970895A2
:10018000FC01918D828D981761F0A28DAE0FBF2F6B
:10019000B11D5D968C91928D9F5F9F73928F90E0C1
:1001A00008958FEF9FEF0895FC01918D828D981730
:1001B00031F0828DE80FF11D858D90E008958FEF6D
:1001C0009FEF0895FC01918D228D892F90E0805C36
:1001D0009F4F821B91098F739927089587EB91E0B8
:1001E0000E94E20021E0892B09F420E0822F08958B
:1001F00080E090E0892B29F00E94EE0081110C94A0
:1002000000000895FC01A48DA80FB92FB11DA35AB9
:10021000BF4F2C91848D90E001968F739927848F26
:10022000A689B7892C93A089B1898C918370806449
:100230008C93938D848D981306C00288F389E02DEA
:1002400080818F7D80830895EF92FF920F931F939B
:10025000CF93DF93EC0181E0888F9B8D8C8D981379
:100260001AC0E889F989808185FF15C09FB7F89485
:10027000EE89FF896083E889F989808183708064D1
:1002800080839FBF81E090E0DF91CF911F910F911C
:10029000FF90EF900895F62E0B8D10E00F5F1F4F2B
:1002A0000F731127E02E8C8D8E110CC00FB607FC3A
:1002B000FACFE889F989808185FFF5CFCE010E94C8
:1002C0000201F1CFEB8DEC0FFD2FF11DE35AFF4F33
:1002D000F0829FB7F8940B8FEA89FB898081806256
:1002E000CFCFCF93DF93EC01888D8823B9F0AA8913
:1002F000BB89E889F9898C9185FD03C0808186FDE1
:100300000DC00FB607FCF7CF8C9185FFF2CF80812F
:1003100085FFEDCFCE010E940201E9CFDF91CF91A1
:100320000895FC0101900020E9F73197AF01481BC7
:10033000590BBC0187EB91E00C9484001F920F9243
:100340000FB60F9211242F933F938F939F93AF93E8
:10035000BF938091AF019091B001A091B101B09194
:10036000B2013091AE0123E0230F2D3758F50196ED
:10037000A11DB11D2093AE018093AF019093B001F8
:10038000A093B101B093B2018091B3019091B401F7
:10039000A091B501B091B6010196A11DB11D809348
:1003A000B3019093B401A093B501B093B601BF918E
:1003B000AF919F918F913F912F910F900FBE0F9012
:1003C0001F90189526E8230F0296A11DB11DD2CFCC
:1003D0001F920F920FB60F9211242F933F934F93BA
:1003E0005F936F937F938F939F93AF93BF93EF939D
:1003F000FF9387EB91E00E940201FF91EF91BF9183
:10040000AF919F918F917F916F915F914F913F91AC
:100410002F910F900FBE0F901F9018951F920F9263
:100420000FB60F9211242F938F939F93EF93FF9307
:10043000E091C701F091C8018081E091CD01F09178
:10044000CE0182FD1BC090818091D0018F5F8F73A0
:100450002091D101821741F0E091D001F0E0E95400
:10046000FE4F958F8093D001FF91EF919F918F91D7
:100470002F910F900FBE0F901F9018958081F4CF91
:10048000CF93DF93CDB7DEB7A1970FB6F894DEBF59
:100490000FBECDBF789484B5826084BD84B5816081
:1004A00084BD85B5826085BD85B5816085BD80913F
:1004B0006E00816080936E001092810080918100B7
:1004C00082608093810080918100816080938100AF
:1004D000809180008160809380008091B100846071
:1004E0008093B1008091B00081608093B0008091D2
:1004F0007A00846080937A0080917A008260809391
:100500007A0080917A00816080937A0080917A00ED
:10051000806880937A001092C100E091C701F09149
:10052000C80182E08083E091C301F091C401108290
:10053000E091C501F091C6018FEC80831092CF014C
:10054000E091CB01F091CC0186E08083E091C9017C
:10055000F091CA01808180618083E091C901F091AE
:10056000CA01808188608083E091C901F091CA014D
:10057000808180688083E091C901F091CA01808107
:100580008F7D80830E945F004B015C0192E7C92E42
:1005900091E0D92E22E0E22E21E0F22E3EE3232E3E
:1005A00031E0332E870184E0E80EF11C20E030E0DA
:1005B00040E05EE3F80160897189828993890E9435
:1005C0008A0420E030E0A9010E94CD032B013C0108
:1005D00020E030E040E85EEBF801648575858685B3
:1005E00097850E948A049B01AC01C301B2010E945D
:1005F000CD032B013C0120E030E040E05FE3F80157
:1006000060857185828593850E948A049B01AC0177
:10061000C301B2010E94CD032B013C0120E030E078
:1006200040E85EEBF80164817581868197810E94C4
:100630008A049B01AC01C301B2010E94CD032B01CE
:100640003C0120E030E040E05EE3F8016081718130
:10065000828193810E948A049B01AC01C301B20193
:100660000E94CD03F60161937193819391936F0181
:100670002E143F0409F096CF0E945F006B017C01AD
:100680008EE491E00E949101A70196012819390991
:100690004A095B0919A28E010F5D1F4F8AE0C82E1F
:1006A000D12CE12CF12CCA01B901A70196010E94BD
:1006B000A403605DF80162938F01211531054105A6
:1006C000510589F7309719F0CF010E9491018EE60C
:1006D00091E00E94910100E010E001151105E9F39D
:1006E0000E94EE008823C9F30E940000F6CFE7EBDA
:1006F000F1E01382128288EE93E0A0E0B0E0848300
:100700009583A683B78384E091E09183808385EC11
:1007100090E09587848784EC90E09787868780ECCB
:1007200090E0918B808B81EC90E0938B828B82ECBC
:1007300090E0958B848B86EC90E0978B868B118E66
:10074000128E138E148E0895A1E21A2EAA1BBB1BC3
:10075000FD010DC0AA1FBB1FEE1FFF1FA217B3078D
:10076000E407F50720F0A21BB30BE40BF50B661FA3
:10077000771F881F991F1A9469F760957095809567
:1007800090959B01AC01BD01CF010895EE0FFF1FB5
:100790000590F491E02D09945058BB27AA270E9498
:1007A000E4030C9450040E94420438F00E9449046F
:1007B00020F039F49F3F19F426F40C943F040EF412
:1007C000E095E7FB0C943904E92F0E94610458F38B
:1007D000BA17620773078407950720F079F4A6F526
:1007E0000C9483040EF4E0950B2EBA2FA02D0B0170
:1007F000B90190010C01CA01A0011124FF27591B66
:1008000099F0593F50F4503E68F11A16F040A22F6B
:10081000232F342F4427585FF3CF469537952795DC
:10082000A795F0405395C9F77EF41F16BA0B620BDB
:10083000730B840BBAF09150A1F0FF0FBB1F661F22
:10084000771F881FC2F70EC0BA0F621F731F841F65
:1008500048F4879577956795B795F7959E3F08F08B
:10086000B0CF9395880F08F09927EE0F979587954D
:10087000089597F99F6780E870E060E008959FEF22
:1008800080EC089500240A94161617061806090627
:10089000089500240A9412161306140605060895F6
:1008A000092E0394000C11F4882352F0BB0F40F47E
:1008B000BF2B11F460FF04C06F5F7F4F8F4F9F4FBE
:1008C000089557FD9058440F551F59F05F3F71F040
:1008D0004795880F97FB991F61F09F3F79F08795A7
:1008E0000895121613061406551FF2CF4695F1DF30
:1008F00008C0161617061806991FF1CF86957105C0
:10090000610508940895E894BB2766277727CB01F3
:1009100097F908950E949D040C9450040E9442048B
:1009200038F00E94490420F0952311F00C9439040A
:100930000C943F0411240C9484040E94610470F30D
:10094000959FC1F3950F50E0551F629FF001729F74
:10095000BB27F00DB11D639FAA27F00DB11DAA1F83
:10096000649F6627B00DA11D661F829F2227B00DD0
:10097000A11D621F739FB00DA11D621F839FA00D5B
:10098000611D221F749F3327A00D611D231F849FAB
:10099000600D211D822F762F6A2F11249F57504002
:1009A0009AF0F1F088234AF0EE0FFF1FBB1F661F7D
:1009B000771F881F91505040A9F79E3F510580F046
:1009C0000C9439040C9484045F3FE4F3983ED4F310
:1009D000869577956795B795F795E7959F5FC1F7EA
:1009E000FE2B880F911D9695879597F90895F89499
:0209F000FFCF37
:1009F2000000000024018400B1007101E200C00087
:100A0200D400000000430000024300003443000011
:100A12000C430000F0420000DC420000D64200001D
:100A2200CF420000CC420000B4420000A8420000C5
:100A32008C420000F0419A999A426666BF4245781C
:100A420065637574696F6E2074696D6520286D69C0
:100A520063726F7365636F6E6473293A20000D0AC7
:020A6200000092
:00000001FF
