:100000000C9435000C945D000C945D000C945D0024
:100010000C945D000C945D000C945D000C945D00EC
:100020000C945D000C945D000C945D000C945D00DC
:100030000C945D000C945D000C945D000C945D00CC
:100040000C94C90D0C945D000C9414060C9440069D
:100050000C945D000C945D000C945D000C945D00AC
:100060000C945D000C945D00B70611241FBECFEF09
:10007000D8E0DEBFCDBF11E0A0E0B1E0EEEAF4E2EF
:1000800002C005900D92A43EB107D9F722E0A4EE7C
:10009000B1E001C01D92A63CB207E1F710E0C5E354
:1000A000D0E004C02197FE010E940510C433D1079F
:1000B000C9F70E94BA0D0C9455120C940000CF930E
:1000C000DF9300D000D000D0CDB7DEB79A8389830C
:1000D0004B835C836D837E838B819C81AD81BE81EC
:1000E000E981FA8126E0AC01BD01CF010E94E50162
:1000F00026960FB6F894DEBF0FBECDBFDF91CF912D
:100100000895CF93DF93CDB7DEB740E855E260E0C6
:1001100070E080E292E00E945F000E949900DF910F
:10012000CF910895CF93DF93CDB7DEB7DF91CF9115
:100130000895CF92DF92EF92FF92CF93DF9300D09A
:1001400000D0CDB7DEB71A82198289819A810F97C4
:100150000CF073C089819A81880F991F880F991FAD
:100160008C519E4FFC0110821182128213821C82DC
:100170001B828B819C8105970CF059C029813A81A3
:100180008B819C81A901481B590BCA0199230CF44E
:1001900048C089819A81880F991F880F991F8C51B7
:1001A0009E4FFC01C080D180E280F3808B819C81D6
:1001B000880F991F880F991F865B9E4FFC018081D5
:1001C0009181A281B38149815A812B813C81BA01FD
:1001D000621B730B9B01220F331F220F331F205012
:1001E0003F4FF9012081318142815381BC01CD0112
:1001F0000E94D511DC01CB019C01AD01C701B60104
:100200000E940C10DC01CB0129813A81220F331F9F
:10021000220F331F2C513E4FF90180839183A2831B
:10022000B3838B819C8101969C838B83A2CF898130
:100230009A8101969A83898388CF1A82198289814B
:100240009A810F97DCF489819A81880F991F880F12
:10025000991F8C519E4FFC0180819181A281B381B5
:1002600022E030E0AC01BD0180E292E00E94470B49
:1002700089819A8101969A838983E1CF80E090E019
:100280000F900F900F900F90DF91CF91FF90EF9014
:10029000DF90CF900895CF93DF93CDB7DEB7F8947A
:1002A00081E0DF91CF910895CF93DF9300D0CDB758
:1002B000DEB79A8389838FE590E029813A81F9013D
:1002C0002081FC0120830F900F90DF91CF91089542
:1002D000CF93DF93CDB7DEB780E090E0892B31F08C
:1002E0000E946C06882311F081E001C080E0882321
:1002F00011F00E940000DF91CF910895CF93DF931A
:1003000000D01F92CDB7DEB79B838A838A819B8101
:10031000FC01848D882F90E02A813B81820F931FFE
:10032000835A9F4FFC01808189838A819B81FC01D4
:10033000848D882F90E001968F739078992324F410
:100340000197806C9F6F0196282F8A819B81FC0109
:10035000248F8A819B81FC01868997892981FC01F0
:1003600020838A819B81FC0180899189FC018081A5
:100370008370282F20648A819B81FC018089918968
:10038000FC0120838A819B81FC01238D8A819B81D2
:10039000FC01948D81E0291709F080E0882379F031
:1003A0008A819B81FC0182899389FC0120818A8159
:1003B0009B81FC01828993892F7DFC0120830F9012
:1003C0000F900F90DF91CF910895CF93DF93CDB72A
:1003D000DEB729970FB6F894DEBF0FBECDBF9C8362
:1003E0008B834D835E836F837887298780E099E0D4
:1003F000ADE3B0E02D813E814F815885BC01CD0138
:100400000E94E30FDA01C9010197A109B109B6956C
:10041000A795979587959A8389838B819C81FC0109
:100420008089918922E0FC0120838D819E81AF81AA
:10043000B8858115914EA105B10529F089819A8170
:1004400081159041F0F08B819C81FC01808991891C
:10045000FC01108280E894E8AEE1B0E02D813E819D
:100460004F815885BC01CD010E94E30FDA01C9011B
:100470000197A109B109B695A795979587959A8394
:10048000898389819A81292F33278B819C81FC0163
:1004900084859585FC0120838B819C81FC01868568
:1004A00097852981FC0120838B819C81FC01108E22
:1004B0008B819C81FC01848995892985FC0120839D
:1004C0008B819C81FC0182899389FC0120818B8135
:1004D0009C81FC01828993892061FC0120838B81AE
:1004E0009C81FC0182899389FC0120818B819C8104
:1004F000FC01828993892860FC0120838B819C8187
:10050000FC0182899389FC0120818B819C81FC0103
:10051000828993892068FC0120838B819C81FC0166
:1005200082899389FC0120818B819C81FC018289D5
:1005300093892F7DFC01208329960FB6F894DEBFA6
:100540000FBECDBFDF91CF910895CF93DF9300D041
:10055000CDB7DEB79A83898389819A81FC01808136
:1005600091810696FC012081318189819A81F9016E
:10057000099589819A81FC0182899389FC012081F6
:1005800089819A81FC01828993892F7EFC012083D5
:1005900089819A81FC0182899389FC01208189816A
:1005A0009A81FC0182899389277FFC0120838981BC
:1005B0009A81FC0182899389FC01208189819A8139
:1005C000FC01828993892F77FC01208389819A819C
:1005D000FC0182899389FC01208189819A81FC0137
:1005E000828993892F7DFC01208389819A81FC0176
:1005F000228D89819A81FC01218F0F900F90DF91CC
:10060000CF910895CF93DF9300D0CDB7DEB79A8313
:10061000898389819A81FC01818D882F90E09C01DA
:10062000205C3F4F89819A81FC01828D882F90E068
:10063000A901481B590BCA018F7399270F900F907E
:10064000DF91CF910895CF93DF9300D0CDB7DEB780
:100650009A83898389819A81FC01218D89819A817C
:10066000FC01928D81E0291709F080E0882319F0C0
:100670008FEF9FEF0FC089819A81FC01828D882FB7
:1006800090E029813A81820F931F4D96FC01808171
:10069000882F90E00F900F90DF91CF910895CF9326
:1006A000DF9300D01F92CDB7DEB79B838A838A8108
:1006B0009B81FC01218D8A819B81FC01928D81E0CF
:1006C000291709F080E0882319F08FEF9FEF1CC0F5
:1006D0008A819B81FC01828D882F90E02A813B8159
:1006E000820F931F4D96FC01808189838A819B81B3
:1006F000FC01828D8F5F282F2F738A819B81FC01E3
:10070000228F8981882F90E00F900F900F90DF91BA
:10071000CF910895CF93DF9300D000D0CDB7DEB74F
:100720009C838B838B819C81FC01838D89838B814E
:100730009C81FC01848D8A8399818A81981768F055
:100740008981882F90E02FE330E0281B390B8A81C4
:10075000882F90E0820F931F0BC08A81282F30E0F2
:100760008981882F90E0A901481B590BCA01019784
:100770000F900F900F900F90DF91CF910895CF932E
:10078000DF9300D0CDB7DEB79A83898389819A81C0
:10079000FC01908D81E08927882309F04EC0898172
:1007A0009A81FC0182899389FC018081882F90E0E5
:1007B00080729927892B69F489819A81FC0180894B
:1007C0009189FC018081882F90E080749927892B82
:1007D00011F481E001C080E0882379F18FE590E099
:1007E000FC01808188237CF089819A81FC018289C7
:1007F0009389FC018081882F90E080729927892B52
:1008000011F081E001C080E0882349F289819A815A
:10081000FC0180899189FC018081882F90E08072A1
:10082000992721E0892B09F420E0222309F4B7CF8E
:1008300089819A810E947E01B2CF0F900F90DF9143
:10084000CF910895CF93DF93CDB7DEB728970FB63A
:10085000F894DEBF0FBECDBF9F838E8368878E81E5
:100860009F8121E0FC01208F8E819F81FC01238DDF
:100870008E819F81FC01848D281779F48E819F8160
:10088000FC0180899189FC018081882F90E0807231
:100890009927892B11F081E001C080E0882369F15C
:1008A0008FE590E0FC0180818D830E944B0189835C
:1008B00089818823D9F08E819F81FC01868997895F
:1008C0002885FC0120838E819F81FC01808991898C
:1008D000FC0180818370282F20648E819F81FC0120
:1008E00080899189FC0120831982E2CFCE0105968F
:1008F0000E94540181E090E071C08E819F81FC01D3
:10090000838D882F90E001968F739078992324F43B
:100910000197806C9F6F01968B838E819F81FC0174
:10092000948D81E02B81291709F080E0882301F163
:100930008FE590E0FC0180818095881F8827881FC3
:10094000882359F38E819F81FC0180899189FC0164
:100950008081882F90E08072992721E0892B09F40B
:1009600020E02223D1F28E819F810E947E01D5CF8B
:100970008E819F81FC01838D882F90E02E813F81A5
:10098000820F931F835A9F4F2885FC0120838FE598
:1009900090E0FC0180818C830E944B018A838A81D4
:1009A0008823B1F08E819F812B81FC01238F8E8162
:1009B0009F81FC0182899389FC0120818E819F8126
:1009C000FC01828993892062FC0120831A82E7CF8F
:1009D000CE0104960E94540181E090E028960FB663
:1009E000F894DEBF0FBECDBFDF91CF910895CF93B6
:1009F000DF9300D0CDB7DEB79A83898320EB31E057
:100A000089819A81FC013183208389819A81FC014B
:100A1000138212820F900F90DF91CF910895CF93A0
:100A2000DF9300D0CDB7DEB79A83898380E090E072
:100A30000F900F90DF91CF910895CF93DF9300D067
:100A4000CDB7DEB79A8389830F900F90DF91CF9156
:100A50000895CF93DF9300D0CDB7DEB79A83898313
:100A600089819A810E94F70420E931E089819A8185
:100A7000FC013183208329813A8188EE93E0A0E054
:100A8000B0E0F90184839583A683B7830F900F901C
:100A9000DF91CF910895CF92DF92EF92FF920F9363
:100AA0001F93CF93DF93CDB7DEB72E970FB6F89491
:100AB000DEBF0FBECDBF9A8389837C836B835E8349
:100AC0004D8338872F831A870987FC86EB86DE865D
:100AD000CD8689819A810E94290520E731E08981AC
:100AE0009A81FC013183208389819A812B813C8109
:100AF000FC013587248789819A812D813E81FC0103
:100B00003787268789819A812F813885FC01318B2F
:100B1000208B89819A8129853A85FC01338B228B30
:100B200089819A812B853C85FC01358B248B8981B9
:100B30009A812D853E85FC01378B268B89819A8190
:100B4000FC01118E89819A81FC01128E89819A8122
:100B5000FC01138E89819A81FC01148E2E960FB6AA
:100B6000F894DEBF0FBECDBFDF91CF911F910F91E3
:100B7000FF90EF90DF90CF900895CF93DF9300D058
:100B800000D0CDB7DEB79C838B838B819C81FC0129
:100B900080899189FC018081882F90E08470992759
:100BA00021E0892B09F020E0222371F18B819C81C7
:100BB000FC0186899789FC01808189838B819C81D6
:100BC000FC01818D8F5F8F738A838B819C81FC01F7
:100BD000928D81E02A81291709F480E08823E1F0D1
:100BE0008B819C81FC01818D882F90E02B813C8141
:100BF000820F931F4D962981FC0120838B819C815C
:100C00002A81FC01218F09C08B819C81FC0186898E
:100C10009789FC01808101C000000F900F900F9018
:100C20000F90DF91CF9108951F920F920FB60F9200
:100C300011242F933F934F935F936F937F938F93E1
:100C40009F93AF93BF93EF93FF93CF93DF93CDB772
:100C5000DEB780E292E00E94BD05DF91CF91FF9167
:100C6000EF91BF91AF919F918F917F916F915F9124
:100C70004F913F912F910F900FBE0F901F9018959D
:100C80001F920F920FB60F9211242F933F934F9301
:100C90005F936F937F938F939F93AF93BF93EF93E4
:100CA000FF93CF93DF93CDB7DEB780E292E00E944F
:100CB0007E01DF91CF91FF91EF91BF91AF919F9115
:100CC0008F917F916F915F914F913F912F910F90F5
:100CD0000FBE0F901F901895CF93DF93CDB7DEB75F
:100CE00080E292E00E94020321E0892B09F420E0D7
:100CF000822FDF91CF910895CF92DF92EF92FF92F2
:100D00000F931F93CF93DF9300D000D0CDB7DEB702
:100D10009A8389837C836B8389819A810197D1F43B
:100D20008B819C810196B1F40F2EF6ECCF2ED12C45
:100D3000F02D0F2EF2ECEF2EF12CF02D01EC10E047
:100D400020EC30E044EC50E065EC70E080E292E0B2
:100D50000E944B050F900F900F900F90DF91CF9155
:100D60001F910F91FF90EF90DF90CF900895CF9358
:100D7000DF93CDB7DEB76FEF7FEF81E090E00E94A9
:100D80007C06DF91CF910895CF93DF9300D0CDB74C
:100D9000DEB79A83898389819A81FC018481958158
:100DA0000F900F90DF91CF910895CF93DF9300D0F4
:100DB000CDB7DEB79A83898389819A81FC018081CE
:100DC00091810F900F90DF91CF9108950F931F9312
:100DD000CF93DF9300D000D0CDB7DEB79A8389835D
:100DE0007C836B838B819C81892B19F480E090E05C
:100DF00015C089819A81FC01808191810296FC0154
:100E0000008111818B819C810E944C12AC012B814D
:100E10003C8189819A81B901F80109950F900F9061
:100E20000F900F90DF91CF911F910F910895CF9365
:100E3000DF9300D000D000D0CDB7DEB79A8389838E
:100E40007C836B835E834D8389819A81FC018081E1
:100E500091810296FC01208131814D815E816B81FF
:100E60007C8189819A81F901099526960FB6F894BB
:100E7000DEBF0FBECDBFDF91CF910895CF93DF933B
:100E8000CDB7DEB728970FB6F894DEBF0FBECDBF43
:100E90009C838B837E836D8358874F831A8219824C
:100EA0008F8198859C012150310938872F8321E05B
:100EB000892B09F420E0222311F18B819C81FC0114
:100EC00080819181FC01208131818D819E81AC01E5
:100ED0004F5F5F4F5E834D83FC0140818B819C811E
:100EE000642FF901099521E0892B09F420E02223E0
:100EF00031F089819A8101969A838983D1CF898142
:100F00009A8128960FB6F894DEBF0FBECDBFDF9151
:100F1000CF910895CF93DF93CDB7DEB72C970FB65F
:100F2000F894DEBF0FBECDBF9A8789877C876B8719
:100F30008B859C859A8389831C821B8289819A81F7
:100F40009C012F5F3F4F3A8329839E838D838D8140
:100F50009E81FC0184918F838F8188878885882377
:100F6000C9F089859A85FC0180819181FC012081ED
:100F7000318189859A856885F901099521E0892B58
:100F800009F420E0222331F08B819C8101969C831F
:100F90008B83D4CF8B819C812C960FB6F894DEBFC7
:100FA0000FBECDBFDF91CF9108950F931F93CF93C5
:100FB000DF9300D000D0CDB7DEB79A8389837C83DE
:100FC0006B838B819C810E94C4068C018B819C81E8
:100FD0000E94D5069C0189819A81A801B9010E94CD
:100FE00017070F900F900F900F90DF91CF911F91E7
:100FF0000F910895CF93DF9300D000D0CDB7DEB727
:101000009A8389837C836B832B813C8189819A813C
:10101000B9010E94E6060F900F900F900F90DF919C
:10102000CF910895CF93DF9300D01F92CDB7DEB755
:101030009A8389836B8389819A81FC018081918164
:10104000FC01208131814B8189819A81642FF901D2
:1010500009950F900F900F90DF91CF910895CF9346
:10106000DF9300D000D01F92CDB7DEB79A8389837B
:101070006B835D834C838B81882F90E0A0E0B0E090
:101080002C813D81E981FA81AC01BD01CF010E9433
:1010900013090F900F900F900F900F90DF91CF9149
:1010A0000895CF93DF9300D000D000D0CDB7DEB746
:1010B0009A8389837C836B835E834D838B819C8140
:1010C000092E000CAA0BBB0B2D813E81E981FA8110
:1010D000AC01BD01CF010E949A0826960FB6F89484
:1010E000DEBF0FBECDBFDF91CF910895CF93DF93C9
:1010F00000D000D000D0CDB7DEB79A8389837C833F
:101100006B835E834D838B819C81CC01A0E0B0E03A
:101110002D813E81E981FA81AC01BD01CF010E94A0
:10112000130926960FB6F894DEBF0FBECDBFDF9130
:10113000CF910895CF93DF93CDB7DEB72A970FB63F
:10114000F894DEBF0FBECDBF9C838B834D835E833F
:101150006F8378873A87298789859A85892B79F4DF
:101160008B819C81FC0180819181FC0120813181F6
:101170004D818B819C81642FF90109954BC0898534
:101180009A850A97D9F58D819E81AF81B885BB2359
:1011900044F58B819C816DE20E9412089A838983B9
:1011A0008D819E81AF81B885B095A09590958195F0
:1011B0009F4FAF4FBF4F8D839E83AF83B8878D8185
:1011C0009E81AF81B885EB81FC812AE0AC01BD0135
:1011D000CF010E94A80B9C0189819A81820F931FE5
:1011E00019C08D819E81AF81B885EB81FC812AE099
:1011F000AC01BD01CF010E94A80B0CC029858D81D7
:101200009E81AF81B885EB81FC81AC01BD01CF012E
:101210000E94A80B2A960FB6F894DEBF0FBECDBF72
:10122000DF91CF910895CF93DF93CDB7DEB72897A5
:101230000FB6F894DEBF0FBECDBF9A8389834B8370
:101240005C836D837E8338872F838F819885892B7C
:1012500079F489819A81FC0180819181FC0120814E
:1012600031814B8189819A81642FF90109950CC0E4
:101270002F818B819C81AD81BE81E981FA81AC0196
:10128000BD01CF010E94A80B28960FB6F894DEBFCF
:101290000FBECDBFDF91CF910895CF93DF93CDB730
:1012A000DEB728970FB6F894DEBF0FBECDBF9A8386
:1012B00089834B835C836D837E8338872F832F8163
:1012C0008B819C81AD81BE81E981FA81AC01BD0138
:1012D000CF010E94150C28960FB6F894DEBF0FBE02
:1012E000CDBFDF91CF910895CF93DF9300D000D091
:1012F00000D0CDB7DEB79C838B837E836D832D8139
:101300003E818B819C81B9010E948A079A838983DF
:101310008B819C810E94BE099C0189819A81820FE8
:10132000931F9A83898389819A8126960FB6F894B0
:10133000DEBF0FBECDBFDF91CF910895CF93DF9376
:1013400000D000D0CDB7DEB79A8389837C836B83CE
:101350008B819C81FC0180819181FC012081318104
:1013600049815A818B819C81BA01F90109950F90BD
:101370000F900F900F90DF91CF910895CF93DF934F
:1013800000D0CDB7DEB79A83898389819A8164EDD5
:1013900071E00E94E6060F900F90DF91CF910895C3
:1013A000CF93DF9300D000D000D0CDB7DEB79C83C1
:1013B0008B837E836D832D813E818B819C81B901DE
:1013C0000E94D5079A8389838B819C810E94BE09E4
:1013D0009C0189819A81820F931F9A8389838981D5
:1013E0009A8126960FB6F894DEBF0FBECDBFDF916F
:1013F000CF910895CF93DF9300D000D000D0CDB728
:10140000DEB79C838B837E836D832D813E818B81B0
:101410009C81B9010E94FA079A8389838B819C8100
:101420000E94BE099C0189819A81820F931F9A8331
:10143000898389819A8126960FB6F894DEBF0FBE04
:10144000CDBFDF91CF910895CF93DF9300D000D02F
:101450001F92CDB7DEB79C838B836D838B819C817C
:101460006D810E9412089A8389838B819C810E94DE
:10147000BE099C0189819A81820F931F9A83898377
:1014800089819A810F900F900F900F900F90DF91AC
:10149000CF910895CF93DF9300D000D000D01F925A
:1014A000CDB7DEB79C838B836D835F834E832E81A4
:1014B0003F818B819C81A9016D810E942F089A83B5
:1014C00089838B819C810E94BE099C0189819A81BC
:1014D000820F931F9A83898389819A8127960FB6F9
:1014E000F894DEBF0FBECDBFDF91CF910895CF93AB
:1014F000DF93CDB7DEB728970FB6F894DEBF0FBEE7
:10150000CDBF9C838B837E836D8358874F834F81B0
:1015100058852D813E818B819C81B9010E945108A3
:101520009A8389838B819C810E94BE099C01898159
:101530009A81820F931F9A83898389819A81289641
:101540000FB6F894DEBF0FBECDBFDF91CF910895E7
:10155000CF93DF93CDB7DEB728970FB6F894DEBFF1
:101560000FBECDBF9C838B837E836D8358874F8353
:101570004F8158852D813E818B819C81B9010E94CC
:1015800076089A8389838B819C810E94BE099C0185
:1015900089819A81820F931F9A83898389819A8195
:1015A00028960FB6F894DEBF0FBECDBFDF91CF9166
:1015B0000895CF93DF93CDB7DEB72A970FB6F8948F
:1015C000DEBF0FBECDBF9C838B834D835E836F8355
:1015D00078873A87298729853A858D819E81AF81D1
:1015E000B885EB81FC81AC01BD01CF010E949A0856
:1015F0009A8389838B819C810E94BE099C01898189
:101600009A81820F931F9A83898389819A812A966E
:101610000FB6F894DEBF0FBECDBFDF91CF91089516
:10162000CF93DF93CDB7DEB72A970FB6F894DEBF1E
:101630000FBECDBF9C838B834D835E836F83788782
:101640003A87298729853A858D819E81AF81B88522
:10165000EB81FC81AC01BD01CF010E9413099A838B
:1016600089838B819C810E94BE099C0189819A811A
:10167000820F931F9A83898389819A812A960FB654
:10168000F894DEBF0FBECDBFDF91CF910895CF9309
:10169000DF93CDB7DEB72A970FB6F894DEBF0FBE43
:1016A000CDBF9C838B834D835E836F8378873A871E
:1016B000298729853A858D819E81AF81B885EB8107
:1016C000FC81AC01BD01CF010E944D099A83898341
:1016D0008B819C810E94BE099C0189819A81820F25
:1016E000931F9A83898389819A812A960FB6F894E9
:1016F000DEBF0FBECDBFDF91CF910895CF93DF93B3
:1017000000D000D000D0CDB7DEB79C838B837E8322
:101710006D832D813E818B819C81B9010E949E0940
:101720009A8389838B819C810E94BE099C01898157
:101730009A81820F931F9A83898389819A81269641
:101740000FB6F894DEBF0FBECDBFDF91CF910895E5
:10175000CF93DF93CDB7DEB7AB970FB6F894DEBF6C
:101760000FBECDBF9EA38DA34FA358A769A77AA78D
:101770002BA7CE01049680969A83898389819A81CA
:10178000FC0110828BA5823010F48AE08BA78BA518
:10179000282F30E040E050E08FA198A5A9A5BAA578
:1017A000BC01CD010E94E30FDC01CB018B838BA533
:1017B000282F30E040E050E08FA198A5A9A5BAA558
:1017C000BC01CD010E94E30FDA01C9018FA398A7E4
:1017D000A9A7BAA78B818A3024F48B81805D282F3A
:1017E00003C08B81895C282F89819A8101979A8314
:1017F000898389819A81FC0120838FA198A5A9A55D
:10180000BAA5892B8A2B8B2B11F629813A818DA1C0
:101810009EA1B9010E94E606AB960FB6F894DEBF12
:101820000FBECDBFDF91CF910895CF92DF92EF929F
:10183000FF921F93CF93DF93CDB7DEB768970FB6B4
:10184000F894DEBF0FBECDBF9B8B8A8B4C8B5D8B1C
:101850006E8B7F8B288F1A8219822C893D894E8945
:101860005F896C897D898E899F890E9442128823B5
:1018700011F081E001C080E0882339F08A899B89DA
:1018800067ED71E00E94FA0739C18C899D89AE89A4
:10189000BF896C017D01E894F7F811E02FEF3FEF6D
:1018A0004FE75FE7C701B6010E944212882359F44F
:1018B0002FEF3FEF4FE75FE7C701B6010E947810B7
:1018C00018160CF410E081E08127882F90E08170D9
:1018D000882339F08A899B896BED71E00E94FA07B1
:1018E0000DC12FEF3FEF4FE75FE46C897D898E8953
:1018F0009F890E94D01118163CF48A899B896FED4C
:1019000071E00E94FA07FAC02FEF3FEF4FE75FEC5C
:101910006C897D898E899F890E94781088233CF488
:101920008A899B896FED71E00E94FA07E7C020E089
:1019300030E0A9016C897D898E899F890E94781089
:101940008823ACF48A899B896DE20E9412089C016D
:1019500089819A81820F931F9A8389838C899D89BB
:10196000AE89BF89B0588C8B9D8BAE8BBF8B80E0CE
:1019700090E0A0E0BFE38B839C83AD83BE831F8296
:101980009F81888D9817A0F420E030E040E251E478
:101990006B817C818D819E810E947D10DC01CB0159
:1019A0008B839C83AD83BE838F818F5F8F83E8CFD2
:1019B0002B813C814D815E816C897D898E899F89D7
:1019C0000E940C10DC01CB018C8B9D8BAE8BBF8BEE
:1019D0006C897D898E899F890E94EF10DC01CB0183
:1019E0008C879D87AE87BF876C857D858E859F851B
:1019F0000E941E11DC01CB019C01AD016C897D8927
:101A00008E899F890E940B10DC01CB018887998702
:101A1000AA87BB878C859D85AE85BF85EA89FB89B2
:101A20002AE030E0AC01BD01CF010E9413099C0106
:101A300089819A81820F931F9A838983888D882355
:101A400061F08A899B896EE20E9412089C0189815B
:101A50009A81820F931F9A838983888D9FEF980FB5
:101A6000988F91E0882309F490E0992309F444C009
:101A700020E030E040E251E4688579858A859B85E5
:101A80000E94D511DC01CB0188879987AA87BB8783
:101A9000688579858A859B850E94EF10DC01CB01E2
:101AA000998B888B288939898A899B894AE050E0FB
:101AB000B9010E9476089C0189819A81820F931F47
:101AC0009A83898388899989CC01A0E0B0E0BC0120
:101AD000CD010E941E11DC01CB019C01AD01688586
:101AE00079858A859B850E940B10DC01CB01888754
:101AF0009987AA87BB87B1CF89819A8168960FB6EB
:101B0000F894DEBF0FBECDBFDF91CF911F91FF9044
:101B1000EF90DF90CF900895CF93DF93CDB7DEB7EE
:101B20000E944712CF93DF93CDB7DEB70E948C0D92
:101B3000CF93DF93CDB7DEB70E948C0DCF93DF93A9
:101B400000D0CDB7DEB79A83898380E090E00F9014
:101B50000F90DF91CF910895CF93DF93CDB7DEB78C
:101B6000DF91CF910895CF93DF93CDB7DEB7DF91AB
:101B7000CF910895CF93DF93CDB7DEB70E944E0F7C
:101B80000E94AC0D0E9481000E9492000E94680198
:101B9000FBCF1F920F920FB60F9211248F939F933A
:101BA000AF93BF93CF93DF93CDB7DEB72597DEBF5B
:101BB000CDBF8091C1029091C202A091C302B091A9
:101BC000C40289839A83AB83BC838091C5028D83D1
:101BD00089819A81AB81BC810196A11DB11D898348
:101BE0009A83AB83BC838D818D5F8D838D818D378F
:101BF00070F08D818D578D8389819A81AB81BC81F5
:101C00000196A11DB11D89839A83AB83BC838D810D
:101C10008093C50289819A81AB81BC818093C10286
:101C20009093C202A093C302B093C4028091BD02FC
:101C30009091BE02A091BF02B091C0020196A11D79
:101C4000B11D8093BD029093BE02A093BF02B093DA
:101C5000C0020F900F900F900F900F90DF91CF91D7
:101C6000BF91AF919F918F910F900FBE0F901F90DA
:101C70001895CF93DF9300D000D01F92CDB7DEB779
:101C80008FE590E0FC0180818983F8948091C10206
:101C90009091C202A091C302B091C4028A839B8337
:101CA000AC83BD838FE590E02981FC0120838A818C
:101CB0009B81AC81BD81BC01CD010F900F900F9035
:101CC0000F900F90DF91CF910895CF93DF9300D0C5
:101CD00000D000D0CDB7DEB78FE590E0FC01808169
:101CE0008D83F8948091BD029091BE02A091BF02B5
:101CF000B091C00289839A83AB83BC8386E490E071
:101D0000FC0180818E8385E390E0FC018081882F37
:101D100090E081709927892B71F08E818F3F59F067
:101D200089819A81AB81BC810196A11DB11D8983F6
:101D30009A83AB83BC838FE590E02D81FC012083E7
:101D400089819A81AB81BC812227382F492F5A2F54
:101D50008E81882F90E0A0E0B0E0820F931FA41F37
:101D6000B51F880F991FAA1FBB1F880F991FAA1F95
:101D7000BB1FBC01CD0126960FB6F894DEBF0FBE87
:101D8000CDBFDF91CF910895EF92FF920F931F93F4
:101D9000CF93DF93CDB7DEB728970FB6F894DEBFA9
:101DA0000FBECDBF6D837E838F8398870E94650EA3
:101DB000DC01CB0189839A83AB83BC8337C00E944B
:101DC000DC0F17C08D819E81AF81B8850197A10975
:101DD000B1098D839E83AF83B88789819A81AB8156
:101DE000BC8188519C4FAF4FBF4F89839A83AB838F
:101DF000BC838D819E81AF81B885892B8A2B8B2BEB
:101E0000A9F00E94650E9B01AC0189819A81AB818A
:101E1000BC8179018A01E81AF90A0A0B1B0BD80167
:101E2000C701883E9340A105B10560F68D819E8172
:101E3000AF81B885892B8A2B8B2B09F628960FB694
:101E4000F894DEBF0FBECDBFDF91CF911F910F91F0
:101E5000FF90EF900895CF93DF9300D0CDB7DEB71A
:101E60009A83898389819A81029798F089819A81DE
:101E7000880F991F880F991F9A83898389819A8176
:101E800005979A83898389819A810197F1F79A83CB
:101E900089830F900F90DF91CF910895CF93DF93B7
:101EA000CDB7DEB7789484E490E0FC01208184E42F
:101EB00090E02260FC01208384E490E0FC0120811A
:101EC00084E490E02160FC01208385E490E0FC0143
:101ED000208185E490E02260FC01208385E490E08D
:101EE000FC01208185E490E02160FC0120838EE6E6
:101EF00090E0FC0120818EE690E02160FC012083CF
:101F000081E890E0FC01108281E890E0FC012081F2
:101F100081E890E02260FC01208381E890E0FC01F0
:101F2000208181E890E02160FC01208380E890E03E
:101F3000FC01208180E890E02160FC01208381EB9E
:101F400090E0FC01208181EB90E02460FC01208383
:101F500080EB90E0FC01208180EB90E02160FC01AF
:101F600020838AE790E0FC0120818AE790E02460EA
:101F7000FC0120838AE790E0FC0120818AE790E061
:101F80002260FC0120838AE790E0FC0120818AE73F
:101F900090E02160FC0120838AE790E0FC01208131
:101FA0008AE790E02068FC01208381EC90E0FC014E
:101FB0001082DF91CF910895CF93DF93CDB7DEB735
:101FC000DF91CF910895A1E21A2EAA1BBB1BFD0140
:101FD0000DC0AA1FBB1FEE1FFF1FA217B307E40708
:101FE000F50720F0A21BB30BE40BF50B661F771F60
:101FF000881F991F1A9469F7609570958095909540
:102000009B01AC01BD01CF010895EE0FFF1F0590AC
:10201000F491E02D09945058BB27AA270E94231061
:102020000C9496110E94881138F00E948F1120F0B4
:1020300039F49F3F19F426F40C9485110EF4E095C1
:10204000E7FB0C947F11E92F0E94A71158F3BA17F0
:10205000620773078407950720F079F4A6F50C94BE
:10206000C9110EF4E0950B2EBA2FA02D0B01B9016A
:1020700090010C01CA01A0011124FF27591B99F0FE
:10208000593F50F4503E68F11A16F040A22F232F0A
:10209000342F4427585FF3CF469537952795A7955A
:1020A000F0405395C9F77EF41F16BA0B620B730B01
:1020B000840BBAF09150A1F0FF0FBB1F661F771F72
:1020C000881FC2F70EC0BA0F621F731F841F48F427
:1020D000879577956795B795F7959E3F08F0B0CFB0
:1020E0009395880F08F09927EE0F97958795089597
:1020F0000E945B1108F481E008950E9491100C94F5
:1021000096110E948F1158F00E94881140F029F416
:102110005F3F29F00C947F1151110C94CA110C945B
:1021200085110E94A71168F39923B1F3552391F308
:10213000951B550BBB27AA2762177307840738F036
:102140009F5F5F4F220F331F441FAA1FA9F335D093
:102150000E2E3AF0E0E832D091505040E695001C47
:10216000CAF72BD0FE2F29D0660F771F881FBB1F01
:10217000261737074807AB07B0E809F0BB0B802DDF
:10218000BF01FF2793585F4F3AF09E3F510578F00B
:102190000C947F110C94CA115F3FE4F3983ED4F382
:1021A000869577956795B795F7959F5FC9F7880FDF
:1021B000911D9695879597F90895E1E0660F771F31
:1021C000881FBB1F621773078407BA0720F0621BC2
:1021D000730B840BBA0BEE1F88F7E09508950E94ED
:1021E000AF1188F09F5798F0B92F9927B751B0F0E9
:1021F000E1F0660F771F881F991F1AF0BA95C9F78B
:1022000014C0B13091F00E94C911B1E008950C944E
:10221000C911672F782F8827B85F39F0B93FCCF301
:10222000869577956795B395D9F73EF49095809507
:10223000709561957F4F8F4F9F4F0895E89409C027
:1022400097FB3EF490958095709561957F4F8F4FE9
:102250009F4F9923A9F0F92F96E9BB279395F695FF
:10226000879577956795B795F111F8CFFAF4BB0F7D
:1022700011F460FF1BC06F5F7F4F8F4F9F4F16C0E1
:10228000882311F096E911C0772321F09EE8872F6B
:10229000762F05C0662371F096E8862F70E060E027
:1022A0002AF09A95660F771F881FDAF7880F9695A0
:1022B000879597F90895990F0008550FAA0BE0E844
:1022C000FEEF16161706E807F907C0F012161306F8
:1022D000E407F50798F0621B730B840B950B39F438
:1022E0000A2661F0232B242B252B21F408950A269E
:1022F00009F4A140A6958FEF811D811D089597F9DE
:102300009F6780E870E060E008959FEF80EC08959B
:1023100000240A94161617061806090608950024C4
:102320000A9412161306140605060895092E03943E
:10233000000C11F4882352F0BB0F40F4BF2B11F4B2
:1023400060FF04C06F5F7F4F8F4F9F4F089557FD11
:102350009058440F551F59F05F3F71F04795880F13
:1023600097FB991F61F09F3F79F0879508951216AA
:1023700013061406551FF2CF4695F1DF08C0161656
:1023800017061806991FF1CF869571056105089407
:102390000895E894BB2766277727CB0197F908951E
:1023A0000E945B1108F48FEF08950E94E8110C94CD
:1023B00096110E94881138F00E948F1120F0952309
:1023C00011F00C947F110C94851111240C94CA11F6
:1023D0000E94A71170F3959FC1F3950F50E0551F10
:1023E000629FF001729FBB27F00DB11D639FAA276A
:1023F000F00DB11DAA1F649F6627B00DA11D661FB9
:10240000829F2227B00DA11D621F739FB00DA11DD9
:10241000621F839FA00D611D221F749F3327A00D93
:10242000611D231F849F600D211D822F762F6A2F2F
:1024300011249F5750409AF0F1F088234AF0EE0F94
:10244000FF1FBB1F661F771F881F91505040A9F7C1
:102450009E3F510580F00C947F110C94CA115F3F90
:10246000E4F3983ED4F3869577956795B795F795FD
:10247000E7959F5FC1F7FE2B880F911D9695879575
:1024800097F908950E945B11880B990B089581E0DC
:1024900090E0F8940C945512FC0101900020E9F7AB
:0E24A000809590958E0F9F1F0895F894FFCFA2
:1024AE0000000043000002430000344300000C43D0
:1024BE000000F0420000DC420000D6420000CF4295
:1024CE000000CC420000B4420000A84200008C4242
:1024DE000000F0419A999A426666BF420A0B0C0DB3
:1024EE0012130E0F1011121314150000003E0000EF
:1024FE0080BE0000003F000080BE0000003E0A0BC0
:10250E000C0D12130E0F10111213141500000000F3
:10251E0022043E078A03BF0302034F0323030A0B61
:10252E000C0D12130E0F10111213141500000000D3
:10253E00920D3E070F051D05920D920D920D0A0B81
:10254E000C0D12130E0F10111213141500000000B3
:10255E00920D3E070F051D050A0B0C0D12130E0FE3
:10256E001011121314150A0B0C0D12130E0F10115D
:10257E00121314150D0A006E616E00696E66006FFF
:04258E00766600006D
:00000001FF
