:100000000C9435000C945D000C945D000C945D0024
:100010000C945D000C945D000C945D000C945D00EC
:100020000C945D000C945D000C945D000C945D00DC
:100030000C945D000C945D000C945D000C945D00CC
:100040000C94EA0D0C945D000C9435060C9461063A
:100050000C945D000C945D000C945D000C945D00AC
:100060000C945D000C945D00D80611241FBECFEFE8
:10007000D8E0DEBFCDBF12E0A0E0B1E0E0EFF4E2F7
:1000800002C005900D92A430B107D9F722E0A4E098
:10009000B2E001C01D92A63EB207E1F710E0C5E351
:1000A000D0E004C02197FE010E942610C433D1077E
:1000B000C9F70E94DB0D0C9476120C940000CF93CC
:1000C000DF9300D000D000D0CDB7DEB79A8389830C
:1000D0004B835C836D837E838B819C81AD81BE81EC
:1000E000E981FA8126E0AC01BD01CF010E94060240
:1000F00026960FB6F894DEBF0FBECDBFDF91CF912D
:100100000895EF92FF920F931F93CF93DF93CDB794
:10011000DEB728970FB6F894DEBF0FBECDBF40E81C
:1001200055E260E070E080E492E00E945F000E948F
:10013000860EDC01CB0189839A83AB83BC830E944A
:10014000DB000E94860EDC01CB018D839E83AF8392
:10015000B88764ED71E080E492E00E941B082D8175
:100160003E814F81588589819A81AB81BC8179011B
:100170008A01E81AF90A0A0B1B0BD801C7012AE009
:1001800030E0AC01BD0180E492E00E94310B289682
:100190000FB6F894DEBF0FBECDBFDF91CF911F9198
:1001A0000F91FF90EF900895CF93DF93CDB7DEB717
:1001B000DF91CF910895CF92DF92EF92FF92CF938C
:1001C000DF9300D000D0CDB7DEB71A8219828981C3
:1001D0009A810F970CF073C089819A81880F991FBB
:1001E000880F991F8C5F9D4FFC0110821182128233
:1001F00013821C821B828B819C8105970CF059C055
:1002000029813A818B819C81A901481B590BCA0124
:1002100099230CF448C089819A81880F991F880F0F
:10022000991F8C5F9D4FFC01C080D180E280F380DC
:100230008B819C81880F991F880F991F865B9E4F29
:10024000FC0180819181A281B38149815A812B81F6
:100250003C81BA01621B730B9B01220F331F220FDB
:10026000331F20503F4FF90120813181428153815A
:10027000BC01CD010E94F611DC01CB019C01AD0156
:10028000C701B6010E942D10DC01CB0129813A8102
:10029000220F331F220F331F2C5F3D4FF901808344
:1002A0009183A283B3838B819C8101969C838B83F2
:1002B000A2CF89819A8101969A83898388CF80E031
:1002C00090E00F900F900F900F90DF91CF91FF90E3
:1002D000EF90DF90CF900895CF93DF93CDB7DEB747
:1002E000F89481E0DF91CF910895CF93DF9300D010
:1002F000CDB7DEB79A8389838FE590E029813A8173
:10030000F9012081FC0120830F900F90DF91CF91A4
:100310000895CF93DF93CDB7DEB780E090E0892BCF
:1003200031F00E948D06882311F081E001C080E049
:10033000882311F00E940000DF91CF910895CF93A0
:10034000DF9300D01F92CDB7DEB79B838A838A816B
:100350009B81FC01848D882F90E02A813B81820F54
:10036000931F835A9F4FFC01808189838A819B81DF
:10037000FC01848D882F90E001968F7390789923EB
:1003800024F40197806C9F6F0196282F8A819B81AE
:10039000FC01248F8A819B81FC01868997892981B0
:1003A000FC0120838A819B81FC0180899189FC0169
:1003B00080818370282F20648A819B81FC01808941
:1003C0009189FC0120838A819B81FC01238D8A8194
:1003D0009B81FC01948D81E0291709F080E088233E
:1003E00079F08A819B81FC0182899389FC012081BB
:1003F0008A819B81FC01828993892F7DFC01208366
:100400000F900F900F90DF91CF910895CF93DF93CE
:10041000CDB7DEB729970FB6F894DEBF0FBECDBFBC
:100420009C838B834D835E836F837887298780E0ED
:1004300099E0ADE3B0E02D813E814F815885BC014C
:10044000CD010E940410DA01C9010197A109B10987
:10045000B695A795979587959A8389838B819C817B
:10046000FC018089918922E0FC0120838D819E819D
:10047000AF81B8858115914EA105B10529F089811B
:100480009A8181159041F0F08B819C81FC018089DB
:100490009189FC01108280E894E8AEE1B0E02D8102
:1004A0003E814F815885BC01CD010E940410DA01C4
:1004B000C9010197A109B109B695A79597958795A7
:1004C0009A83898389819A81292F33278B819C8103
:1004D000FC0184859585FC0120838B819C81FC0136
:1004E000868597852981FC0120838B819C81FC0175
:1004F000108E8B819C81FC01848995892985FC0162
:1005000020838B819C81FC0182899389FC0120815D
:100510008B819C81FC01828993892061FC0120836D
:100520008B819C81FC0182899389FC0120818B81D4
:100530009C81FC01828993892860FC0120838B8146
:100540009C81FC0182899389FC0120818B819C81A3
:10055000FC01828993892068FC0120838B819C8126
:10056000FC0182899389FC0120818B819C81FC01A3
:10057000828993892F7DFC01208329960FB6F894F8
:10058000DEBF0FBECDBFDF91CF910895CF93DF9334
:1005900000D0CDB7DEB79A83898389819A81FC0127
:1005A000808191810696FC012081318189819A8127
:1005B000F901099589819A81FC0182899389FC015D
:1005C000208189819A81FC01828993892F7EFC0197
:1005D000208389819A81FC0182899389FC01208191
:1005E00089819A81FC0182899389277FFC0120837C
:1005F00089819A81FC0182899389FC01208189810A
:100600009A81FC01828993892F77FC01208389815B
:100610009A81FC0182899389FC01208189819A81D8
:10062000FC01828993892F7DFC01208389819A8135
:10063000FC01228D89819A81FC01218F0F900F90FE
:10064000DF91CF910895CF93DF9300D0CDB7DEB780
:100650009A83898389819A81FC01818D882F90E01A
:100660009C01205C3F4F89819A81FC01828D882FFB
:1006700090E0A901481B590BCA018F7399270F906D
:100680000F90DF91CF910895CF93DF9300D0CDB736
:10069000DEB79A83898389819A81FC01218D8981C2
:1006A0009A81FC01928D81E0291709F080E088236E
:1006B00019F08FEF9FEF0FC089819A81FC01828D25
:1006C000882F90E029813A81820F931F4D96FC017B
:1006D0008081882F90E00F900F90DF91CF91089547
:1006E000CF93DF9300D01F92CDB7DEB79B838A8371
:1006F0008A819B81FC01218D8A819B81FC01928DE5
:1007000081E0291709F080E0882319F08FEF9FEF2F
:100710001CC08A819B81FC01828D882F90E02A81F8
:100720003B81820F931F4D96FC01808189838A81D2
:100730009B81FC01828D8F5F282F2F738A819B8183
:10074000FC01228F8981882F90E00F900F900F90ED
:10075000DF91CF910895CF93DF9300D000D0CDB734
:10076000DEB79C838B838B819C81FC01838D898385
:100770008B819C81FC01848D8A8399818A81981761
:1007800068F08981882F90E02FE330E0281B390B37
:100790008A81882F90E0820F931F0BC08A81282FB7
:1007A00030E08981882F90E0A901481B590BCA01CC
:1007B00001970F900F900F900F90DF91CF910895B8
:1007C000CF93DF9300D0CDB7DEB79A838983898139
:1007D0009A81FC01908D81E08927882309F04EC021
:1007E00089819A81FC0182899389FC018081882F0B
:1007F00090E080729927892B69F489819A81FC01A4
:1008000080899189FC018081882F90E080749927EC
:10081000892B11F481E001C080E0882379F18FE514
:1008200090E0FC01808188237CF089819A81FC0121
:1008300082899389FC018081882F90E080729927BA
:10084000892B11F081E001C080E0882349F2898181
:100850009A81FC0180899189FC018081882F90E038
:100860008072992721E0892B09F420E0222309F4E2
:10087000B7CF89819A810E949F01B2CF0F900F90CC
:10088000DF91CF910895CF93DF93CDB7DEB728974F
:100890000FB6F894DEBF0FBECDBF9F838E836887EF
:1008A0008E819F8121E0FC01208F8E819F81FC0140
:1008B000238D8E819F81FC01848D281779F48E8190
:1008C0009F81FC0180899189FC018081882F90E0C3
:1008D00080729927892B11F081E001C080E0882384
:1008E00069F18FE590E0FC0180818D830E946C01AD
:1008F000898389818823D9F08E819F81FC01868933
:1009000097892885FC0120838E819F81FC01808945
:100910009189FC0180818370282F20648E819F81C2
:10092000FC0180899189FC0120831982E2CFCE01EC
:1009300005960E94750181E090E071C08E819F81D3
:10094000FC01838D882F90E001968F739078992316
:1009500024F40197806C9F6F01968B838E819F8119
:10096000FC01948D81E02B81291709F080E0882318
:1009700001F18FE590E0FC0180818095881F882738
:10098000881F882359F38E819F81FC01808991897A
:10099000FC018081882F90E08072992721E0892BCB
:1009A00009F420E02223D1F28E819F810E949F01D1
:1009B000D5CF8E819F81FC01838D882F90E02E8181
:1009C0003F81820F931F835A9F4F2885FC0120830C
:1009D0008FE590E0FC0180818C830E946C018A830A
:1009E0008A818823B1F08E819F812B81FC01238F26
:1009F0008E819F81FC0182899389FC0120818E81F7
:100A00009F81FC01828993892062FC0120831A82E4
:100A1000E7CFCE0104960E94750181E090E0289610
:100A20000FB6F894DEBF0FBECDBFDF91CF91089512
:100A3000CF93DF9300D0CDB7DEB79A83898320EBC5
:100A400031E089819A81FC013183208389819A81F7
:100A5000FC01138212820F900F90DF91CF910895C5
:100A6000CF93DF9300D0CDB7DEB79A83898380E040
:100A700090E00F900F90DF91CF910895CF93DF9387
:100A800000D0CDB7DEB79A8389830F900F90DF91A6
:100A9000CF910895CF93DF9300D0CDB7DEB79A837F
:100AA000898389819A810E94180520E931E0898132
:100AB0009A81FC013183208329813A8188EE93E079
:100AC000A0E0B0E0F90184839583A683B7830F90FB
:100AD0000F90DF91CF910895CF92DF92EF92FF9226
:100AE0000F931F93CF93DF93CDB7DEB72E970FB63B
:100AF000F894DEBF0FBECDBF9A8389837C836B835E
:100B00005E834D8338872F831A870987FC86EB869F
:100B1000DE86CD8689819A810E944A0520E731E0F0
:100B200089819A81FC013183208389819A812B817B
:100B30003C81FC013587248789819A812D813E8102
:100B4000FC013787268789819A812F813885FC01AE
:100B5000318B208B89819A8129853A85FC01338BE1
:100B6000228B89819A812B853C85FC01358B248BD6
:100B700089819A812D853E85FC01378B268B898161
:100B80009A81FC01118E89819A81FC01128E8981E2
:100B90009A81FC01138E89819A81FC01148E2E9614
:100BA0000FB6F894DEBF0FBECDBFDF91CF911F917E
:100BB0000F91FF90EF90DF90CF900895CF93DF9348
:100BC00000D000D0CDB7DEB79C838B838B819C8116
:100BD000FC0180899189FC018081882F90E08470DC
:100BE000992721E0892B09F020E0222371F18B81E4
:100BF0009C81FC0186899789FC01808189838B8196
:100C00009C81FC01818D8F5F8F738A838B819C8196
:100C1000FC01928D81E02A81291709F480E0882364
:100C2000E1F08B819C81FC01818D882F90E02B81EC
:100C30003C81820F931F4D962981FC0120838B817B
:100C40009C812A81FC01218F09C08B819C81FC0140
:100C500086899789FC01808101C000000F900F9068
:100C60000F900F90DF91CF9108951F920F920FB6C2
:100C70000F9211242F933F934F935F936F937F9322
:100C80008F939F93AF93BF93EF93FF93CF93DF9394
:100C9000CDB7DEB780E492E00E94DE05DF91CF9110
:100CA000FF91EF91BF91AF919F918F917F916F9144
:100CB0005F914F913F912F910F900FBE0F901F901A
:100CC00018951F920F920FB60F9211242F933F93F6
:100CD0004F935F936F937F938F939F93AF93BF9344
:100CE000EF93FF93CF93DF93CDB7DEB780E492E02D
:100CF0000E949F01DF91CF91FF91EF91BF91AF9142
:100D00009F918F917F916F915F914F913F912F9123
:100D10000F900FBE0F901F901895CF93DF93CDB714
:100D2000DEB780E492E00E94230321E0892B09F4DE
:100D300020E0822FDF91CF910895CF92DF92EF9242
:100D4000FF920F931F93CF93DF9300D000D0CDB7C6
:100D5000DEB79A8389837C836B8389819A8101972B
:100D6000D1F48B819C810196B1F40F2EF6ECCF2E3D
:100D7000D12CF02D0F2EF2ECEF2EF12CF02D01ECFA
:100D800010E020EC30E044EC50E065EC70E080E4F2
:100D900092E00E946C050F900F900F900F90DF91E2
:100DA000CF911F910F91FF90EF90DF90CF9008951A
:100DB000CF93DF93CDB7DEB76FEF7FEF81E090E0A9
:100DC0000E949D06DF91CF910895CF93DF9300D0CD
:100DD000CDB7DEB79A83898389819A81FC018481AA
:100DE00095810F900F90DF91CF910895CF93DF936E
:100DF00000D0CDB7DEB79A83898389819A81FC01BF
:100E0000808191810F900F90DF91CF9108950F9382
:100E10001F93CF93DF9300D000D0CDB7DEB79A8376
:100E200089837C836B838B819C81892B19F480E07F
:100E300090E015C089819A81FC01808191810296A0
:100E4000FC01008111818B819C810E946D12AC019B
:100E50002B813C8189819A81B901F80109950F9014
:100E60000F900F900F90DF91CF911F910F910895E8
:100E7000CF93DF9300D000D000D0CDB7DEB79A83F8
:100E800089837C836B835E834D8389819A81FC0196
:100E9000808191810296FC01208131814D815E81AA
:100EA0006B817C8189819A81F901099526960FB61B
:100EB000F894DEBF0FBECDBFDF91CF910895CF93E1
:100EC000DF93CDB7DEB728970FB6F894DEBF0FBE1D
:100ED000CDBF9C838B837E836D8358874F831A821B
:100EE00019828F8198859C012150310938872F8381
:100EF00021E0892B09F420E0222311F18B819C81D0
:100F0000FC0180819181FC01208131818D819E8154
:100F1000AC014F5F5F4F5E834D83FC0140818B814D
:100F20009C81642FF901099521E0892B09F420E0C7
:100F3000222331F089819A8101969A838983D1CFC6
:100F400089819A8128960FB6F894DEBF0FBECDBF77
:100F5000DF91CF910895CF93DF93CDB7DEB72C9774
:100F60000FB6F894DEBF0FBECDBF9A8789877C8706
:100F70006B878B859C859A8389831C821B828981E0
:100F80009A819C012F5F3F4F3A8329839E838D83F3
:100F90008D819E81FC0184918F838F8188878885D4
:100FA0008823C9F089859A85FC0180819181FC01A3
:100FB0002081318189859A856885F901099521E02B
:100FC000892B09F420E0222331F08B819C8101964A
:100FD0009C838B83D4CF8B819C812C960FB6F89405
:100FE000DEBF0FBECDBFDF91CF9108950F931F934A
:100FF000CF93DF9300D000D0CDB7DEB79A8389833B
:101000007C836B838B819C810E94E5068C018B81A4
:101010009C810E94F6069C0189819A81A801B901F0
:101020000E9438070F900F900F900F90DF91CF9193
:101030001F910F910895CF93DF9300D000D0CDB7CB
:10104000DEB79A8389837C836B832B813C81898182
:101050009A81B9010E9407070F900F900F900F908F
:10106000DF91CF910895CF93DF9300D01F92CDB73A
:10107000DEB79A8389836B8389819A81FC018081A1
:101080009181FC01208131814B8189819A81642F7A
:10109000F90109950F900F900F90DF91CF9108956E
:1010A000CF93DF9300D000D01F92CDB7DEB79A83E5
:1010B00089836B835D834C838B81882F90E0A0E0D4
:1010C000B0E02C813D81E981FA81AC01BD01CF0105
:1010D0000E9434090F900F900F900F900F90DF91A6
:1010E000CF910895CF93DF9300D000D000D0CDB73B
:1010F000DEB79A8389837C836B835E834D838B8188
:101100009C81092E000CAA0BBB0B2D813E81E9812D
:10111000FA81AC01BD01CF010E94BB0826960FB633
:10112000F894DEBF0FBECDBFDF91CF910895CF936E
:10113000DF9300D000D000D0CDB7DEB79A8389838B
:101140007C836B835E834D838B819C81CC01A0E08B
:10115000B0E02D813E81E981FA81AC01BD01CF0172
:101160000E94340926960FB6F894DEBF0FBECDBF9D
:10117000DF91CF910895CF93DF93CDB7DEB72A9754
:101180000FB6F894DEBF0FBECDBF9C838B834D831B
:101190005E836F8378873A87298789859A85892B2B
:1011A00079F48B819C81FC0180819181FC012081FB
:1011B00031814D818B819C81642FF90109954BC050
:1011C00089859A850A97D9F58D819E81AF81B885E9
:1011D000BB2344F58B819C816DE20E9433089A8386
:1011E00089838D819E81AF81B885B095A0959095BA
:1011F00081959F4FAF4FBF4F8D839E83AF83B8873D
:101200008D819E81AF81B885EB81FC812AE0AC01A4
:10121000BD01CF010E94C90B9C0189819A81820F77
:10122000931F19C08D819E81AF81B885EB81FC81B0
:101230002AE0AC01BD01CF010E94C90B0CC0298579
:101240008D819E81AF81B885EB81FC81AC01BD01B0
:10125000CF010E94C90B2A960FB6F894DEBF0FBECD
:10126000CDBFDF91CF910895CF93DF93CDB7DEB798
:1012700028970FB6F894DEBF0FBECDBF9A8389833F
:101280004B835C836D837E8338872F838F81988522
:10129000892B79F489819A81FC0180819181FC01FB
:1012A000208131814B8189819A81642FF9010995CF
:1012B0000CC02F818B819C81AD81BE81E981FA8137
:1012C000AC01BD01CF010E94C90B28960FB6F8945E
:1012D000DEBF0FBECDBFDF91CF910895CF93DF93D7
:1012E000CDB7DEB728970FB6F894DEBF0FBECDBFDF
:1012F0009A8389834B835C836D837E8338872F83B6
:101300002F818B819C81AD81BE81E981FA81AC0105
:10131000BD01CF010E94360C28960FB6F894DEBFAF
:101320000FBECDBFDF91CF910895CF93DF9300D053
:1013300000D000D0CDB7DEB79C838B837E836D83D6
:101340002D813E818B819C81B9010E94AB079A83DC
:1013500089838B819C810E94DF099C0189819A810C
:10136000820F931F9A83898389819A8126960FB66B
:10137000F894DEBF0FBECDBFDF91CF910895CF931C
:10138000DF9300D000D0CDB7DEB79A8389837C830A
:101390006B838B819C81FC0180819181FC01208188
:1013A000318149815A818B819C81BA01F90109956A
:1013B0000F900F900F900F90DF91CF910895CF93E2
:1013C000DF9300D0CDB7DEB79A83898389819A8174
:1013D00064EF71E00E9407070F900F90DF91CF91AB
:1013E0000895CF93DF9300D000D000D0CDB7DEB703
:1013F0009C838B837E836D832D813E818B819C8139
:10140000B9010E94F6079A8389838B819C810E948F
:10141000DF099C0189819A81820F931F9A838983B6
:1014200089819A8126960FB6F894DEBF0FBECDBF94
:10143000DF91CF910895CF93DF9300D000D000D0FB
:10144000CDB7DEB79C838B837E836D832D813E81F8
:101450008B819C81B9010E941B089A8389838B81AF
:101460009C810E94DF099C0189819A81820F931FD0
:101470009A83898389819A8126960FB6F894DEBF74
:101480000FBECDBFDF91CF910895CF93DF9300D0F2
:1014900000D01F92CDB7DEB79C838B836D838B8189
:1014A0009C816D810E9433089A8389838B819C8102
:1014B0000E94DF099C0189819A81820F931F9A8380
:1014C000898389819A810F900F900F900F900F90D0
:1014D000DF91CF910895CF93DF9300D000D000D05B
:1014E0001F92CDB7DEB79C838B836D835F834E8362
:1014F0002E813F818B819C81A9016D810E945008C2
:101500009A8389838B819C810E94DF099C01898158
:101510009A81820F931F9A83898389819A81279662
:101520000FB6F894DEBF0FBECDBFDF91CF91089507
:10153000CF93DF93CDB7DEB728970FB6F894DEBF11
:101540000FBECDBF9C838B837E836D8358874F8373
:101550004F8158852D813E818B819C81B9010E94EC
:1015600072089A8389838B819C810E94DF099C0188
:1015700089819A81820F931F9A83898389819A81B5
:1015800028960FB6F894DEBF0FBECDBFDF91CF9186
:101590000895CF93DF93CDB7DEB728970FB6F894B1
:1015A000DEBF0FBECDBF9C838B837E836D83588748
:1015B0004F834F8158852D813E818B819C81B9015C
:1015C0000E9497089A8389838B819C810E94DF09FE
:1015D0009C0189819A81820F931F9A8389838981D3
:1015E0009A8128960FB6F894DEBF0FBECDBFDF916B
:1015F000CF910895CF93DF93CDB7DEB72A970FB67B
:10160000F894DEBF0FBECDBF9C838B834D835E837A
:101610006F8378873A87298729853A858D819E81CE
:10162000AF81B885EB81FC81AC01BD01CF010E9487
:10163000BB089A8389838B819C810E94DF099C016E
:1016400089819A81820F931F9A83898389819A81E4
:101650002A960FB6F894DEBF0FBECDBFDF91CF91B3
:101660000895CF93DF93CDB7DEB72A970FB6F894DE
:10167000DEBF0FBECDBF9C838B834D835E836F83A4
:1016800078873A87298729853A858D819E81AF8120
:10169000B885EB81FC81AC01BD01CF010E9434090A
:1016A0009A8389838B819C810E94DF099C018981B7
:1016B0009A81820F931F9A83898389819A812A96BE
:1016C0000FB6F894DEBF0FBECDBFDF91CF91089566
:1016D000CF93DF93CDB7DEB72A970FB6F894DEBF6E
:1016E0000FBECDBF9C838B834D835E836F837887D2
:1016F0003A87298729853A858D819E81AF81B88572
:10170000EB81FC81AC01BD01CF010E946E099A837F
:1017100089838B819C810E94DF099C0189819A8148
:10172000820F931F9A83898389819A812A960FB6A3
:10173000F894DEBF0FBECDBFDF91CF910895CF9358
:10174000DF9300D000D000D0CDB7DEB79C838B8371
:101750007E836D832D813E818B819C81B9010E94A6
:10176000BF099A8389838B819C810E94DF099C0138
:1017700089819A81820F931F9A83898389819A81B3
:1017800026960FB6F894DEBF0FBECDBFDF91CF9186
:101790000895CF93DF93CDB7DEB7AB970FB6F8942C
:1017A000DEBF0FBECDBF9EA38DA34FA358A769A7D1
:1017B0007AA72BA7CE01049680969A838983898184
:1017C0009A81FC0110828BA5823010F48AE08BA7ED
:1017D0008BA5282F30E040E050E08FA198A5A9A567
:1017E000BAA5BC01CD010E940410DC01CB018B83A2
:1017F0008BA5282F30E040E050E08FA198A5A9A547
:10180000BAA5BC01CD010E940410DA01C9018FA361
:1018100098A7A9A7BAA78B818A3024F48B81805D11
:10182000282F03C08B81895C282F89819A81019799
:101830009A83898389819A81FC0120838FA198A54D
:10184000A9A5BAA5892B8A2B8B2B11F629813A8160
:101850008DA19EA1B9010E940707AB960FB6F8941F
:10186000DEBF0FBECDBFDF91CF910895CF92DF9243
:10187000EF92FF921F93CF93DF93CDB7DEB76897B8
:101880000FB6F894DEBF0FBECDBF9B8B8A8B4C8BFF
:101890005D8B6E8B7F8B288F1A8219822C893D89F4
:1018A0004E895F896C897D898E899F890E94631228
:1018B000882311F081E001C080E0882339F08A8913
:1018C0009B8967EF71E00E941B0839C18C899D8953
:1018D000AE89BF896C017D01E894F7F811E02FEF24
:1018E0003FEF4FE75FE7C701B6010E94631288230D
:1018F00059F42FEF3FEF4FE75FE7C701B6010E94B2
:10190000991018160CF410E081E08127882F90E0E0
:101910008170882339F08A899B896BEF71E00E947E
:101920001B080DC12FEF3FEF4FE75FE46C897D8906
:101930008E899F890E94F11118163CF48A899B892F
:101940006FEF71E00E941B08FAC02FEF3FEF4FE7E7
:101950005FEC6C897D898E899F890E94991088230C
:101960003CF48A899B896FEF71E00E941B08E7C0F5
:1019700020E030E0A9016C897D898E899F890E94D1
:1019800099108823ACF48A899B896DE20E94330800
:101990009C0189819A81820F931F9A8389838C8904
:1019A0009D89AE89BF89B0588C8B9D8BAE8BBF8BC8
:1019B00080E090E0A0E0BFE38B839C83AD83BE8397
:1019C0001F829F81888D9817A0F420E030E040E2CC
:1019D00051E46B817C818D819E810E949E10DC018F
:1019E000CB018B839C83AD83BE838F818F5F8F837D
:1019F000E8CF2B813C814D815E816C897D898E8908
:101A00009F890E942D10DC01CB018C8B9D8BAE8BAE
:101A1000BF8B6C897D898E899F890E941011DC01A2
:101A2000CB018C879D87AE87BF876C857D858E8532
:101A30009F850E943F11DC01CB019C01AD016C89A7
:101A40007D898E899F890E942C10DC01CB018887BB
:101A50009987AA87BB878C859D85AE85BF85EA89D6
:101A6000FB892AE030E0AC01BD01CF010E943409BE
:101A70009C0189819A81820F931F9A838983888D23
:101A8000882361F08A899B896EE20E9433089C0159
:101A900089819A81820F931F9A838983888D9FEF12
:101AA000980F988F91E0882309F490E0992309F426
:101AB00044C020E030E040E251E4688579858A85C1
:101AC0009B850E94F611DC01CB0188879987AA8744
:101AD000BB87688579858A859B850E941011DC010A
:101AE000CB01998B888B288939898A899B894AE01F
:101AF00050E0B9010E9497089C0189819A81820F68
:101B0000931F9A83898388899989CC01A0E0B0E0EA
:101B1000BC01CD010E943F11DC01CB019C01AD0154
:101B2000688579858A859B850E942C10DC01CB0114
:101B300088879987AA87BB87B1CF89819A81689660
:101B40000FB6F894DEBF0FBECDBFDF91CF911F91CE
:101B5000FF90EF90DF90CF900895CF93DF93CDB7B4
:101B6000DEB70E946812CF93DF93CDB7DEB70E9435
:101B7000AD0DCF93DF93CDB7DEB70E94AD0DCF9300
:101B8000DF9300D0CDB7DEB79A83898380E090E001
:101B90000F900F90DF91CF910895CF93DF93CDB742
:101BA000DEB7DF91CF910895CF93DF93CDB7DEB746
:101BB000DF91CF910895CF93DF93CDB7DEB70E9429
:101BC0006F0F0E94CD0D0E9481000E94D4000E94E0
:101BD0008901FBCF1F920F920FB60F9211248F93A2
:101BE0009F93AF93BF93CF93DF93CDB7DEB7259786
:101BF000DEBFCDBF8091E1029091E202A091E302AD
:101C0000B091E40289839A83AB83BC838091E5021F
:101C10008D8389819A81AB81BC810196A11DB11D03
:101C200089839A83AB83BC838D818D5F8D838D8106
:101C30008D3770F08D818D578D8389819A81AB812D
:101C4000BC810196A11DB11D89839A83AB83BC839E
:101C50008D818093E50289819A81AB81BC818093DB
:101C6000E1029093E202A093E302B093E402809138
:101C7000DD029091DE02A091DF02B091E0020196B8
:101C8000A11DB11D8093DD029093DE02A093DF02BF
:101C9000B093E0020F900F900F900F900F90DF9194
:101CA000CF91BF91AF919F918F910F900FBE0F90E9
:101CB0001F901895CF93DF9300D000D01F92CDB71F
:101CC000DEB78FE590E0FC0180818983F8948091F4
:101CD000E1029091E202A091E302B091E4028A83D2
:101CE0009B83AC83BD838FE590E02981FC01208339
:101CF0008A819B81AC81BD81BC01CD010F900F9089
:101D00000F900F900F90DF91CF910895CF93DF93B5
:101D100000D000D000D0CDB7DEB78FE590E0FC0159
:101D200080818D83F8948091DD029091DE02A091F4
:101D3000DF02B091E00289839A83AB83BC8386E49F
:101D400090E0FC0180818E8385E390E0FC0180813E
:101D5000882F90E081709927892B71F08E818F3FB9
:101D600059F089819A81AB81BC810196A11DB11D79
:101D700089839A83AB83BC838FE590E02D81FC013E
:101D8000208389819A81AB81BC812227382F492FFA
:101D90005A2F8E81882F90E0A0E0B0E0820F931F31
:101DA000A41FB51F880F991FAA1FBB1F880F991F5B
:101DB000AA1FBB1FBC01CD0126960FB6F894DEBF4B
:101DC0000FBECDBFDF91CF910895EF92FF920F9399
:101DD0001F93CF93DF93CDB7DEB728970FB6F89454
:101DE000DEBF0FBECDBF6D837E838F8398870E9439
:101DF000860EDC01CB0189839A83AB83BC8337C019
:101E00000E94FD0F17C08D819E81AF81B88501971B
:101E1000A109B1098D839E83AF83B88789819A8197
:101E2000AB81BC8188519C4FAF4FBF4F89839A8350
:101E3000AB83BC838D819E81AF81B885892B8A2B32
:101E40008B2BA9F00E94860E9B01AC0189819A819F
:101E5000AB81BC8179018A01E81AF90A0A0B1B0BD4
:101E6000D801C701883E9340A105B10560F68D8178
:101E70009E81AF81B885892B8A2B8B2B09F62896FA
:101E80000FB6F894DEBF0FBECDBFDF91CF911F918B
:101E90000F91FF90EF900895CF93DF9300D0CDB7CF
:101EA000DEB79A83898389819A81029798F0898124
:101EB0009A81880F991F880F991F9A838983898136
:101EC0009A8105979A83898389819A810197F1F78D
:101ED0009A8389830F900F90DF91CF910895CF93CC
:101EE000DF93CDB7DEB7789484E490E0FC012081E5
:101EF00084E490E02260FC01208384E490E0FC0113
:101F0000208184E490E02160FC01208385E490E05E
:101F1000FC01208185E490E02260FC01208385E4BF
:101F200090E0FC01208185E490E02160FC012083A9
:101F30008EE690E0FC0120818EE690E02160FC01BD
:101F4000208381E890E0FC01108281E890E0FC01B0
:101F5000208181E890E02260FC01208381E890E00C
:101F6000FC01208181E890E02160FC01208380E871
:101F700090E0FC01208180E890E02160FC0120835A
:101F800081EB90E0FC01208181EB90E02460FC017A
:101F9000208380EB90E0FC01208180EB90E02160C9
:101FA000FC0120838AE790E0FC0120818AE790E031
:101FB0002460FC0120838AE790E0FC0120818AE70D
:101FC00090E02260FC0120838AE790E0FC01208100
:101FD0008AE790E02160FC0120838AE790E0FC0121
:101FE00020818AE790E02068FC01208381EC90E06A
:101FF000FC011082DF91CF910895CF93DF93CDB78D
:10200000DEB7DF91CF910895A1E21A2EAA1BBB1B68
:10201000FD010DC0AA1FBB1FEE1FFF1FA217B307B4
:10202000E407F50720F0A21BB30BE40BF50B661FCA
:10203000771F881F991F1A9469F76095709580958E
:1020400090959B01AC01BD01CF010895EE0FFF1FDC
:102050000590F491E02D09945058BB27AA270E94BF
:1020600044100C94B7110E94A91138F00E94B011CD
:1020700020F039F49F3F19F426F40C94A6110EF4C5
:10208000E095E7FB0C94A011E92F0E94C81158F3CA
:10209000BA17620773078407950720F079F4A6F54D
:1020A0000C94EA110EF4E0950B2EBA2FA02D0B0123
:1020B000B90190010C01CA01A0011124FF27591B8D
:1020C00099F0593F50F4503E68F11A16F040A22F93
:1020D000232F342F4427585FF3CF46953795279504
:1020E000A795F0405395C9F77EF41F16BA0B620B03
:1020F000730B840BBAF09150A1F0FF0FBB1F661F4A
:10210000771F881FC2F70EC0BA0F621F731F841F8C
:1021100048F4879577956795B795F7959E3F08F0B2
:10212000B0CF9395880F08F09927EE0F9795879574
:1021300008950E947C1108F481E008950E94B21075
:102140000C94B7110E94B01158F00E94A91140F0F0
:1021500029F45F3F29F00C94A01151110C94EB115C
:102160000C94A6110E94C81168F39923B1F355236A
:1021700091F3951B550BBB27AA276217730784079A
:1021800038F09F5F5F4F220F331F441FAA1FA9F330
:1021900035D00E2E3AF0E0E832D091505040E6951E
:1021A000001CCAF72BD0FE2F29D0660F771F881F7F
:1021B000BB1F261737074807AB07B0E809F0BB0B72
:1021C000802DBF01FF2793585F4F3AF09E3F510586
:1021D00078F00C94A0110C94EB115F3FE4F3983E5F
:1021E000D4F3869577956795B795F7959F5FC9F76F
:1021F000880F911D9695879597F90895E1E0660FF0
:10220000771F881FBB1F621773078407BA0720F068
:10221000621B730B840BBA0BEE1F88F7E0950895D1
:102220000E94D01188F09F5798F0B92F9927B75185
:10223000B0F0E1F0660F771F881F991F1AF0BA956A
:10224000C9F714C0B13091F00E94EA11B1E00895CD
:102250000C94EA11672F782F8827B85F39F0B93FBF
:10226000CCF3869577956795B395D9F73EF490951D
:102270008095709561957F4F8F4F9F4F0895E8949B
:1022800009C097FB3EF490958095709561957F4FBE
:102290008F4F9F4F9923A9F0F92F96E9BB2793956C
:1022A000F695879577956795B795F111F8CFFAF47C
:1022B000BB0F11F460FF1BC06F5F7F4F8F4F9F4FAD
:1022C00016C0882311F096E911C0772321F09EE80B
:1022D000872F762F05C0662371F096E8862F70E071
:1022E00060E02AF09A95660F771F881FDAF7880F4B
:1022F0009695879597F90895990F0008550FAA0BA1
:10230000E0E8FEEF16161706E807F907C0F0121608
:102310001306E407F50798F0621B730B840B950B0B
:1023200039F40A2661F0232B242B252B21F4089560
:102330000A2609F4A140A6958FEF811D811D0895FD
:1023400097F99F6780E870E060E008959FEF80EC68
:10235000089500240A94161617061806090608950B
:1023600000240A9412161306140605060895092E71
:102370000394000C11F4882352F0BB0F40F4BF2BE0
:1023800011F460FF04C06F5F7F4F8F4F9F4F089520
:1023900057FD9058440F551F59F05F3F71F0479516
:1023A000880F97FB991F61F09F3F79F087950895FB
:1023B000121613061406551FF2CF4695F1DF08C01A
:1023C000161617061806991FF1CF86957105610537
:1023D00008940895E894BB2766277727CB0197F9DF
:1023E00008950E947C1108F48FEF08950E9409124D
:1023F0000C94B7110E94A91138F00E94B01120F07E
:10240000952311F00C94A0110C94A61111240C9496
:10241000EB110E94C81170F3959FC1F3950F50E026
:10242000551F629FF001729FBB27F00DB11D639F86
:10243000AA27F00DB11DAA1F649F6627B00DA11D2C
:10244000661F829F2227B00DA11D621F739FB00DD2
:10245000A11D621F839FA00D611D221F749F332742
:10246000A00D611D231F849F600D211D822F762FDB
:102470006A2F11249F5750409AF0F1F088234AF0B8
:10248000EE0FFF1FBB1F661F771F881F9150504024
:10249000A9F79E3F510580F00C94A0110C94EB110C
:1024A0005F3FE4F3983ED4F3869577956795B795AB
:1024B000F795E7959F5FC1F7FE2B880F911D9695C5
:1024C000879597F908950E947C11880B990B0895C0
:1024D00081E090E0F8940C947612FC0101900020C9
:1024E000E9F7809590958E0F9F1F0895F894FFCF80
:1024F00000000043000002430000344300000C438E
:102500000000F0420000DC420000D6420000CF4252
:102510000000CC420000B4420000A84200008C42FF
:102520000000F0419A999A426666BF420A0B0C0D70
:1025300012130E0F1011121314150000003E0000AC
:1025400080BE0000003F000080BE0000003E0A0B7D
:102550000C0D12130E0F10111213141500000000B1
:1025600043045F07AB03E0032303700344030A0B38
:102570000C0D12130E0F1011121314150000000091
:10258000B30D5F0730053E05B30DB30DB30D0A0B58
:102590000C0D12130E0F1011121314150000000071
:1025A000B30D5F0730053E050A0B0C0D12130E0F1D
:1025B0001011121314150A0B0C0D12130E0F10111B
:1025C00012131415457865637574696F6E2074690C
:1025D0006D6520286D6963726F7365636F6E6473D8
:1025E000293A20000D0A006E616E00696E66006F68
:0425F000766600000B
:00000001FF
